{"abi":[{"inputs":[{"internalType":"string","name":"_electionName","type":"string"}],"name":"createElections","outputs":[],"stateMutability":"nonpayable","type":"function"},{"inputs":[{"internalType":"uint256","name":"","type":"uint256"}],"name":"elections","outputs":[{"internalType":"address","name":"","type":"address"}],"stateMutability":"view","type":"function"},{"inputs":[],"name":"getDeployedElections","outputs":[{"internalType":"address[]","name":"","type":"address[]"}],"stateMutability":"view","type":"function"}],"devdoc":{"kind":"dev","methods":{},"version":1},"evm":{"assembly":"    /* \"Election.sol\":68:458  contract ManageElection {\r... */\n  mstore(0x40, 0x80)\n  callvalue\n  dup1\n  iszero\n  tag_1\n  jumpi\n  0x00\n  dup1\n  revert\ntag_1:\n  pop\n  dataSize(sub_0)\n  dup1\n  dataOffset(sub_0)\n  0x00\n  codecopy\n  0x00\n  return\nstop\n\nsub_0: assembly {\n        /* \"Election.sol\":68:458  contract ManageElection {\r... */\n      mstore(0x40, 0x80)\n      callvalue\n      dup1\n      iszero\n      tag_1\n      jumpi\n      0x00\n      dup1\n      revert\n    tag_1:\n      pop\n      jumpi(tag_2, lt(calldatasize, 0x04))\n      shr(0xe0, calldataload(0x00))\n      dup1\n      0x26755cb9\n      eq\n      tag_3\n      jumpi\n      dup1\n      0x5e6fef01\n      eq\n      tag_4\n      jumpi\n      dup1\n      0xca306594\n      eq\n      tag_5\n      jumpi\n    tag_2:\n      0x00\n      dup1\n      revert\n        /* \"Election.sol\":145:332  function createElections(string memory _electionName) public{\r... */\n    tag_3:\n      tag_6\n      0x04\n      dup1\n      calldatasize\n      sub\n      dup2\n      add\n      swap1\n      tag_7\n      swap2\n      swap1\n      tag_8\n      jump\t// in\n    tag_7:\n      tag_9\n      jump\t// in\n    tag_6:\n      stop\n        /* \"Election.sol\":105:131  address[] public elections */\n    tag_4:\n      tag_10\n      0x04\n      dup1\n      calldatasize\n      sub\n      dup2\n      add\n      swap1\n      tag_11\n      swap2\n      swap1\n      tag_12\n      jump\t// in\n    tag_11:\n      tag_13\n      jump\t// in\n    tag_10:\n      mload(0x40)\n      tag_14\n      swap2\n      swap1\n      tag_15\n      jump\t// in\n    tag_14:\n      mload(0x40)\n      dup1\n      swap2\n      sub\n      swap1\n      return\n        /* \"Election.sol\":344:449  function getDeployedElections() public view returns (address[] memory){\r... */\n    tag_5:\n      tag_16\n      tag_17\n      jump\t// in\n    tag_16:\n      mload(0x40)\n      tag_18\n      swap2\n      swap1\n      tag_19\n      jump\t// in\n    tag_18:\n      mload(0x40)\n      dup1\n      swap2\n      sub\n      swap1\n      return\n        /* \"Election.sol\":145:332  function createElections(string memory _electionName) public{\r... */\n    tag_9:\n        /* \"Election.sol\":216:235  address newElection */\n      0x00\n        /* \"Election.sol\":259:272  _electionName */\n      dup2\n        /* \"Election.sol\":274:284  msg.sender */\n      caller\n        /* \"Election.sol\":246:285  new Election(_electionName, msg.sender) */\n      mload(0x40)\n      tag_21\n      swap1\n      tag_22\n      jump\t// in\n    tag_21:\n      tag_23\n      swap3\n      swap2\n      swap1\n      tag_24\n      jump\t// in\n    tag_23:\n      mload(0x40)\n      dup1\n      swap2\n      sub\n      swap1\n      0x00\n      create\n      dup1\n      iszero\n      dup1\n      iszero\n      tag_25\n      jumpi\n      returndatasize\n      0x00\n      dup1\n      returndatacopy\n      revert(0x00, returndatasize)\n    tag_25:\n      pop\n        /* \"Election.sol\":216:286  address newElection = address(new Election(_electionName, msg.sender)) */\n      swap1\n      pop\n        /* \"Election.sol\":297:306  elections */\n      0x00\n        /* \"Election.sol\":312:323  newElection */\n      dup2\n        /* \"Election.sol\":297:324  elections.push(newElection) */\n      swap1\n      dup1\n      0x01\n      dup2\n      sload\n      add\n      dup1\n      dup3\n      sstore\n      dup1\n      swap2\n      pop\n      pop\n      0x01\n      swap1\n      sub\n      swap1\n      0x00\n      mstore\n      keccak256(0x00, 0x20)\n      add\n      0x00\n      swap1\n      swap2\n      swap1\n      swap2\n      swap1\n      swap2\n      0x0100\n      exp\n      dup2\n      sload\n      dup2\n      0xffffffffffffffffffffffffffffffffffffffff\n      mul\n      not\n      and\n      swap1\n      dup4\n      0xffffffffffffffffffffffffffffffffffffffff\n      and\n      mul\n      or\n      swap1\n      sstore\n      pop\n        /* \"Election.sol\":145:332  function createElections(string memory _electionName) public{\r... */\n      pop\n      pop\n      jump\t// out\n        /* \"Election.sol\":105:131  address[] public elections */\n    tag_13:\n      0x00\n      dup2\n      dup2\n      sload\n      dup2\n      lt\n      tag_27\n      jumpi\n      0x00\n      dup1\n      revert\n    tag_27:\n      swap1\n      0x00\n      mstore\n      keccak256(0x00, 0x20)\n      add\n      0x00\n      swap2\n      pop\n      sload\n      swap1\n      0x0100\n      exp\n      swap1\n      div\n      0xffffffffffffffffffffffffffffffffffffffff\n      and\n      dup2\n      jump\t// out\n        /* \"Election.sol\":344:449  function getDeployedElections() public view returns (address[] memory){\r... */\n    tag_17:\n        /* \"Election.sol\":397:413  address[] memory */\n      0x60\n        /* \"Election.sol\":432:441  elections */\n      0x00\n        /* \"Election.sol\":425:441  return elections */\n      dup1\n      sload\n      dup1\n      0x20\n      mul\n      0x20\n      add\n      mload(0x40)\n      swap1\n      dup2\n      add\n      0x40\n      mstore\n      dup1\n      swap3\n      swap2\n      swap1\n      dup2\n      dup2\n      mstore\n      0x20\n      add\n      dup3\n      dup1\n      sload\n      dup1\n      iszero\n      tag_30\n      jumpi\n      0x20\n      mul\n      dup3\n      add\n      swap2\n      swap1\n      0x00\n      mstore\n      keccak256(0x00, 0x20)\n      swap1\n    tag_31:\n      dup2\n      0x00\n      swap1\n      sload\n      swap1\n      0x0100\n      exp\n      swap1\n      div\n      0xffffffffffffffffffffffffffffffffffffffff\n      and\n      0xffffffffffffffffffffffffffffffffffffffff\n      and\n      dup2\n      mstore\n      0x20\n      add\n      swap1\n      0x01\n      add\n      swap1\n      dup1\n      dup4\n      gt\n      tag_31\n      jumpi\n    tag_30:\n      pop\n      pop\n      pop\n      pop\n      pop\n      swap1\n      pop\n        /* \"Election.sol\":344:449  function getDeployedElections() public view returns (address[] memory){\r... */\n      swap1\n      jump\t// out\n    tag_22:\n      dataSize(sub_0)\n      dup1\n      dataOffset(sub_0)\n      dup4\n      codecopy\n      add\n      swap1\n      jump\t// out\n        /* \"#utility.yul\":7:352   */\n    tag_33:\n        /* \"#utility.yul\":85:90   */\n      0x00\n        /* \"#utility.yul\":110:176   */\n      tag_35\n        /* \"#utility.yul\":126:175   */\n      tag_36\n        /* \"#utility.yul\":168:174   */\n      dup5\n        /* \"#utility.yul\":126:175   */\n      tag_37\n      jump\t// in\n    tag_36:\n        /* \"#utility.yul\":110:176   */\n      tag_38\n      jump\t// in\n    tag_35:\n        /* \"#utility.yul\":101:176   */\n      swap1\n      pop\n        /* \"#utility.yul\":199:205   */\n      dup3\n        /* \"#utility.yul\":192:197   */\n      dup2\n        /* \"#utility.yul\":185:206   */\n      mstore\n        /* \"#utility.yul\":237:241   */\n      0x20\n        /* \"#utility.yul\":230:235   */\n      dup2\n        /* \"#utility.yul\":226:242   */\n      add\n        /* \"#utility.yul\":275:278   */\n      dup5\n        /* \"#utility.yul\":266:272   */\n      dup5\n        /* \"#utility.yul\":261:264   */\n      dup5\n        /* \"#utility.yul\":257:273   */\n      add\n        /* \"#utility.yul\":254:279   */\n      gt\n        /* \"#utility.yul\":251:253   */\n      iszero\n      tag_39\n      jumpi\n        /* \"#utility.yul\":292:293   */\n      0x00\n        /* \"#utility.yul\":289:290   */\n      dup1\n        /* \"#utility.yul\":282:294   */\n      revert\n        /* \"#utility.yul\":251:253   */\n    tag_39:\n        /* \"#utility.yul\":305:346   */\n      tag_40\n        /* \"#utility.yul\":339:345   */\n      dup5\n        /* \"#utility.yul\":334:337   */\n      dup3\n        /* \"#utility.yul\":329:332   */\n      dup6\n        /* \"#utility.yul\":305:346   */\n      tag_41\n      jump\t// in\n    tag_40:\n        /* \"#utility.yul\":91:352   */\n      pop\n      swap4\n      swap3\n      pop\n      pop\n      pop\n      jump\t// out\n        /* \"#utility.yul\":372:645   */\n    tag_42:\n        /* \"#utility.yul\":428:433   */\n      0x00\n        /* \"#utility.yul\":477:480   */\n      dup3\n        /* \"#utility.yul\":470:474   */\n      0x1f\n        /* \"#utility.yul\":462:468   */\n      dup4\n        /* \"#utility.yul\":458:475   */\n      add\n        /* \"#utility.yul\":454:481   */\n      slt\n        /* \"#utility.yul\":444:446   */\n      tag_44\n      jumpi\n        /* \"#utility.yul\":495:496   */\n      0x00\n        /* \"#utility.yul\":492:493   */\n      dup1\n        /* \"#utility.yul\":485:497   */\n      revert\n        /* \"#utility.yul\":444:446   */\n    tag_44:\n        /* \"#utility.yul\":535:541   */\n      dup2\n        /* \"#utility.yul\":522:542   */\n      calldataload\n        /* \"#utility.yul\":560:639   */\n      tag_45\n        /* \"#utility.yul\":635:638   */\n      dup5\n        /* \"#utility.yul\":627:633   */\n      dup3\n        /* \"#utility.yul\":620:624   */\n      0x20\n        /* \"#utility.yul\":612:618   */\n      dup7\n        /* \"#utility.yul\":608:625   */\n      add\n        /* \"#utility.yul\":560:639   */\n      tag_33\n      jump\t// in\n    tag_45:\n        /* \"#utility.yul\":551:639   */\n      swap2\n      pop\n        /* \"#utility.yul\":434:645   */\n      pop\n      swap3\n      swap2\n      pop\n      pop\n      jump\t// out\n        /* \"#utility.yul\":651:790   */\n    tag_46:\n        /* \"#utility.yul\":697:702   */\n      0x00\n        /* \"#utility.yul\":735:741   */\n      dup2\n        /* \"#utility.yul\":722:742   */\n      calldataload\n        /* \"#utility.yul\":713:742   */\n      swap1\n      pop\n        /* \"#utility.yul\":751:784   */\n      tag_48\n        /* \"#utility.yul\":778:783   */\n      dup2\n        /* \"#utility.yul\":751:784   */\n      tag_49\n      jump\t// in\n    tag_48:\n        /* \"#utility.yul\":703:790   */\n      swap3\n      swap2\n      pop\n      pop\n      jump\t// out\n        /* \"#utility.yul\":796:1171   */\n    tag_8:\n        /* \"#utility.yul\":865:871   */\n      0x00\n        /* \"#utility.yul\":914:916   */\n      0x20\n        /* \"#utility.yul\":902:911   */\n      dup3\n        /* \"#utility.yul\":893:900   */\n      dup5\n        /* \"#utility.yul\":889:912   */\n      sub\n        /* \"#utility.yul\":885:917   */\n      slt\n        /* \"#utility.yul\":882:884   */\n      iszero\n      tag_51\n      jumpi\n        /* \"#utility.yul\":930:931   */\n      0x00\n        /* \"#utility.yul\":927:928   */\n      dup1\n        /* \"#utility.yul\":920:932   */\n      revert\n        /* \"#utility.yul\":882:884   */\n    tag_51:\n        /* \"#utility.yul\":1001:1002   */\n      0x00\n        /* \"#utility.yul\":990:999   */\n      dup3\n        /* \"#utility.yul\":986:1003   */\n      add\n        /* \"#utility.yul\":973:1004   */\n      calldataload\n        /* \"#utility.yul\":1031:1049   */\n      0xffffffffffffffff\n        /* \"#utility.yul\":1023:1029   */\n      dup2\n        /* \"#utility.yul\":1020:1050   */\n      gt\n        /* \"#utility.yul\":1017:1019   */\n      iszero\n      tag_52\n      jumpi\n        /* \"#utility.yul\":1063:1064   */\n      0x00\n        /* \"#utility.yul\":1060:1061   */\n      dup1\n        /* \"#utility.yul\":1053:1065   */\n      revert\n        /* \"#utility.yul\":1017:1019   */\n    tag_52:\n        /* \"#utility.yul\":1091:1154   */\n      tag_53\n        /* \"#utility.yul\":1146:1153   */\n      dup5\n        /* \"#utility.yul\":1137:1143   */\n      dup3\n        /* \"#utility.yul\":1126:1135   */\n      dup6\n        /* \"#utility.yul\":1122:1144   */\n      add\n        /* \"#utility.yul\":1091:1154   */\n      tag_42\n      jump\t// in\n    tag_53:\n        /* \"#utility.yul\":1081:1154   */\n      swap2\n      pop\n        /* \"#utility.yul\":944:1164   */\n      pop\n        /* \"#utility.yul\":872:1171   */\n      swap3\n      swap2\n      pop\n      pop\n      jump\t// out\n        /* \"#utility.yul\":1177:1439   */\n    tag_12:\n        /* \"#utility.yul\":1236:1242   */\n      0x00\n        /* \"#utility.yul\":1285:1287   */\n      0x20\n        /* \"#utility.yul\":1273:1282   */\n      dup3\n        /* \"#utility.yul\":1264:1271   */\n      dup5\n        /* \"#utility.yul\":1260:1283   */\n      sub\n        /* \"#utility.yul\":1256:1288   */\n      slt\n        /* \"#utility.yul\":1253:1255   */\n      iszero\n      tag_55\n      jumpi\n        /* \"#utility.yul\":1301:1302   */\n      0x00\n        /* \"#utility.yul\":1298:1299   */\n      dup1\n        /* \"#utility.yul\":1291:1303   */\n      revert\n        /* \"#utility.yul\":1253:1255   */\n    tag_55:\n        /* \"#utility.yul\":1344:1345   */\n      0x00\n        /* \"#utility.yul\":1369:1422   */\n      tag_56\n        /* \"#utility.yul\":1414:1421   */\n      dup5\n        /* \"#utility.yul\":1405:1411   */\n      dup3\n        /* \"#utility.yul\":1394:1403   */\n      dup6\n        /* \"#utility.yul\":1390:1412   */\n      add\n        /* \"#utility.yul\":1369:1422   */\n      tag_46\n      jump\t// in\n    tag_56:\n        /* \"#utility.yul\":1359:1422   */\n      swap2\n      pop\n        /* \"#utility.yul\":1315:1432   */\n      pop\n        /* \"#utility.yul\":1243:1439   */\n      swap3\n      swap2\n      pop\n      pop\n      jump\t// out\n        /* \"#utility.yul\":1445:1624   */\n    tag_57:\n        /* \"#utility.yul\":1514:1524   */\n      0x00\n        /* \"#utility.yul\":1535:1581   */\n      tag_59\n        /* \"#utility.yul\":1577:1580   */\n      dup4\n        /* \"#utility.yul\":1569:1575   */\n      dup4\n        /* \"#utility.yul\":1535:1581   */\n      tag_60\n      jump\t// in\n    tag_59:\n        /* \"#utility.yul\":1613:1617   */\n      0x20\n        /* \"#utility.yul\":1608:1611   */\n      dup4\n        /* \"#utility.yul\":1604:1618   */\n      add\n        /* \"#utility.yul\":1590:1618   */\n      swap1\n      pop\n        /* \"#utility.yul\":1525:1624   */\n      swap3\n      swap2\n      pop\n      pop\n      jump\t// out\n        /* \"#utility.yul\":1630:1738   */\n    tag_60:\n        /* \"#utility.yul\":1707:1731   */\n      tag_62\n        /* \"#utility.yul\":1725:1730   */\n      dup2\n        /* \"#utility.yul\":1707:1731   */\n      tag_63\n      jump\t// in\n    tag_62:\n        /* \"#utility.yul\":1702:1705   */\n      dup3\n        /* \"#utility.yul\":1695:1732   */\n      mstore\n        /* \"#utility.yul\":1685:1738   */\n      pop\n      pop\n      jump\t// out\n        /* \"#utility.yul\":1744:1862   */\n    tag_64:\n        /* \"#utility.yul\":1831:1855   */\n      tag_66\n        /* \"#utility.yul\":1849:1854   */\n      dup2\n        /* \"#utility.yul\":1831:1855   */\n      tag_63\n      jump\t// in\n    tag_66:\n        /* \"#utility.yul\":1826:1829   */\n      dup3\n        /* \"#utility.yul\":1819:1856   */\n      mstore\n        /* \"#utility.yul\":1809:1862   */\n      pop\n      pop\n      jump\t// out\n        /* \"#utility.yul\":1898:2630   */\n    tag_67:\n        /* \"#utility.yul\":2017:2020   */\n      0x00\n        /* \"#utility.yul\":2046:2100   */\n      tag_69\n        /* \"#utility.yul\":2094:2099   */\n      dup3\n        /* \"#utility.yul\":2046:2100   */\n      tag_70\n      jump\t// in\n    tag_69:\n        /* \"#utility.yul\":2116:2202   */\n      tag_71\n        /* \"#utility.yul\":2195:2201   */\n      dup2\n        /* \"#utility.yul\":2190:2193   */\n      dup6\n        /* \"#utility.yul\":2116:2202   */\n      tag_72\n      jump\t// in\n    tag_71:\n        /* \"#utility.yul\":2109:2202   */\n      swap4\n      pop\n        /* \"#utility.yul\":2226:2282   */\n      tag_73\n        /* \"#utility.yul\":2276:2281   */\n      dup4\n        /* \"#utility.yul\":2226:2282   */\n      tag_74\n      jump\t// in\n    tag_73:\n        /* \"#utility.yul\":2305:2312   */\n      dup1\n        /* \"#utility.yul\":2336:2337   */\n      0x00\n        /* \"#utility.yul\":2321:2605   */\n    tag_75:\n        /* \"#utility.yul\":2346:2352   */\n      dup4\n        /* \"#utility.yul\":2343:2344   */\n      dup2\n        /* \"#utility.yul\":2340:2353   */\n      lt\n        /* \"#utility.yul\":2321:2605   */\n      iszero\n      tag_77\n      jumpi\n        /* \"#utility.yul\":2422:2428   */\n      dup2\n        /* \"#utility.yul\":2416:2429   */\n      mload\n        /* \"#utility.yul\":2449:2512   */\n      tag_78\n        /* \"#utility.yul\":2508:2511   */\n      dup9\n        /* \"#utility.yul\":2493:2506   */\n      dup3\n        /* \"#utility.yul\":2449:2512   */\n      tag_57\n      jump\t// in\n    tag_78:\n        /* \"#utility.yul\":2442:2512   */\n      swap8\n      pop\n        /* \"#utility.yul\":2535:2595   */\n      tag_79\n        /* \"#utility.yul\":2588:2594   */\n      dup4\n        /* \"#utility.yul\":2535:2595   */\n      tag_80\n      jump\t// in\n    tag_79:\n        /* \"#utility.yul\":2525:2595   */\n      swap3\n      pop\n        /* \"#utility.yul\":2381:2605   */\n      pop\n        /* \"#utility.yul\":2368:2369   */\n      0x01\n        /* \"#utility.yul\":2365:2366   */\n      dup2\n        /* \"#utility.yul\":2361:2370   */\n      add\n        /* \"#utility.yul\":2356:2370   */\n      swap1\n      pop\n        /* \"#utility.yul\":2321:2605   */\n      jump(tag_75)\n    tag_77:\n        /* \"#utility.yul\":2325:2339   */\n      pop\n        /* \"#utility.yul\":2621:2624   */\n      dup6\n        /* \"#utility.yul\":2614:2624   */\n      swap4\n      pop\n        /* \"#utility.yul\":2022:2630   */\n      pop\n      pop\n      pop\n      swap3\n      swap2\n      pop\n      pop\n      jump\t// out\n        /* \"#utility.yul\":2636:3000   */\n    tag_81:\n        /* \"#utility.yul\":2724:2727   */\n      0x00\n        /* \"#utility.yul\":2752:2791   */\n      tag_83\n        /* \"#utility.yul\":2785:2790   */\n      dup3\n        /* \"#utility.yul\":2752:2791   */\n      tag_84\n      jump\t// in\n    tag_83:\n        /* \"#utility.yul\":2807:2878   */\n      tag_85\n        /* \"#utility.yul\":2871:2877   */\n      dup2\n        /* \"#utility.yul\":2866:2869   */\n      dup6\n        /* \"#utility.yul\":2807:2878   */\n      tag_86\n      jump\t// in\n    tag_85:\n        /* \"#utility.yul\":2800:2878   */\n      swap4\n      pop\n        /* \"#utility.yul\":2887:2939   */\n      tag_87\n        /* \"#utility.yul\":2932:2938   */\n      dup2\n        /* \"#utility.yul\":2927:2930   */\n      dup6\n        /* \"#utility.yul\":2920:2924   */\n      0x20\n        /* \"#utility.yul\":2913:2918   */\n      dup7\n        /* \"#utility.yul\":2909:2925   */\n      add\n        /* \"#utility.yul\":2887:2939   */\n      tag_88\n      jump\t// in\n    tag_87:\n        /* \"#utility.yul\":2964:2993   */\n      tag_89\n        /* \"#utility.yul\":2986:2992   */\n      dup2\n        /* \"#utility.yul\":2964:2993   */\n      tag_90\n      jump\t// in\n    tag_89:\n        /* \"#utility.yul\":2959:2962   */\n      dup5\n        /* \"#utility.yul\":2955:2994   */\n      add\n        /* \"#utility.yul\":2948:2994   */\n      swap2\n      pop\n        /* \"#utility.yul\":2728:3000   */\n      pop\n      swap3\n      swap2\n      pop\n      pop\n      jump\t// out\n        /* \"#utility.yul\":3006:3228   */\n    tag_15:\n        /* \"#utility.yul\":3099:3103   */\n      0x00\n        /* \"#utility.yul\":3137:3139   */\n      0x20\n        /* \"#utility.yul\":3126:3135   */\n      dup3\n        /* \"#utility.yul\":3122:3140   */\n      add\n        /* \"#utility.yul\":3114:3140   */\n      swap1\n      pop\n        /* \"#utility.yul\":3150:3221   */\n      tag_92\n        /* \"#utility.yul\":3218:3219   */\n      0x00\n        /* \"#utility.yul\":3207:3216   */\n      dup4\n        /* \"#utility.yul\":3203:3220   */\n      add\n        /* \"#utility.yul\":3194:3200   */\n      dup5\n        /* \"#utility.yul\":3150:3221   */\n      tag_64\n      jump\t// in\n    tag_92:\n        /* \"#utility.yul\":3104:3228   */\n      swap3\n      swap2\n      pop\n      pop\n      jump\t// out\n        /* \"#utility.yul\":3234:3607   */\n    tag_19:\n        /* \"#utility.yul\":3377:3381   */\n      0x00\n        /* \"#utility.yul\":3415:3417   */\n      0x20\n        /* \"#utility.yul\":3404:3413   */\n      dup3\n        /* \"#utility.yul\":3400:3418   */\n      add\n        /* \"#utility.yul\":3392:3418   */\n      swap1\n      pop\n        /* \"#utility.yul\":3464:3473   */\n      dup2\n        /* \"#utility.yul\":3458:3462   */\n      dup2\n        /* \"#utility.yul\":3454:3474   */\n      sub\n        /* \"#utility.yul\":3450:3451   */\n      0x00\n        /* \"#utility.yul\":3439:3448   */\n      dup4\n        /* \"#utility.yul\":3435:3452   */\n      add\n        /* \"#utility.yul\":3428:3475   */\n      mstore\n        /* \"#utility.yul\":3492:3600   */\n      tag_94\n        /* \"#utility.yul\":3595:3599   */\n      dup2\n        /* \"#utility.yul\":3586:3592   */\n      dup5\n        /* \"#utility.yul\":3492:3600   */\n      tag_67\n      jump\t// in\n    tag_94:\n        /* \"#utility.yul\":3484:3600   */\n      swap1\n      pop\n        /* \"#utility.yul\":3382:3607   */\n      swap3\n      swap2\n      pop\n      pop\n      jump\t// out\n        /* \"#utility.yul\":3613:4036   */\n    tag_24:\n        /* \"#utility.yul\":3754:3758   */\n      0x00\n        /* \"#utility.yul\":3792:3794   */\n      0x40\n        /* \"#utility.yul\":3781:3790   */\n      dup3\n        /* \"#utility.yul\":3777:3795   */\n      add\n        /* \"#utility.yul\":3769:3795   */\n      swap1\n      pop\n        /* \"#utility.yul\":3841:3850   */\n      dup2\n        /* \"#utility.yul\":3835:3839   */\n      dup2\n        /* \"#utility.yul\":3831:3851   */\n      sub\n        /* \"#utility.yul\":3827:3828   */\n      0x00\n        /* \"#utility.yul\":3816:3825   */\n      dup4\n        /* \"#utility.yul\":3812:3829   */\n      add\n        /* \"#utility.yul\":3805:3852   */\n      mstore\n        /* \"#utility.yul\":3869:3947   */\n      tag_96\n        /* \"#utility.yul\":3942:3946   */\n      dup2\n        /* \"#utility.yul\":3933:3939   */\n      dup6\n        /* \"#utility.yul\":3869:3947   */\n      tag_81\n      jump\t// in\n    tag_96:\n        /* \"#utility.yul\":3861:3947   */\n      swap1\n      pop\n        /* \"#utility.yul\":3957:4029   */\n      tag_97\n        /* \"#utility.yul\":4025:4027   */\n      0x20\n        /* \"#utility.yul\":4014:4023   */\n      dup4\n        /* \"#utility.yul\":4010:4028   */\n      add\n        /* \"#utility.yul\":4001:4007   */\n      dup5\n        /* \"#utility.yul\":3957:4029   */\n      tag_64\n      jump\t// in\n    tag_97:\n        /* \"#utility.yul\":3759:4036   */\n      swap4\n      swap3\n      pop\n      pop\n      pop\n      jump\t// out\n        /* \"#utility.yul\":4042:4171   */\n    tag_38:\n        /* \"#utility.yul\":4076:4082   */\n      0x00\n        /* \"#utility.yul\":4103:4123   */\n      tag_99\n      tag_100\n      jump\t// in\n    tag_99:\n        /* \"#utility.yul\":4093:4123   */\n      swap1\n      pop\n        /* \"#utility.yul\":4132:4165   */\n      tag_101\n        /* \"#utility.yul\":4160:4164   */\n      dup3\n        /* \"#utility.yul\":4152:4158   */\n      dup3\n        /* \"#utility.yul\":4132:4165   */\n      tag_102\n      jump\t// in\n    tag_101:\n        /* \"#utility.yul\":4083:4171   */\n      swap2\n      swap1\n      pop\n      jump\t// out\n        /* \"#utility.yul\":4177:4252   */\n    tag_100:\n        /* \"#utility.yul\":4210:4216   */\n      0x00\n        /* \"#utility.yul\":4243:4245   */\n      0x40\n        /* \"#utility.yul\":4237:4246   */\n      mload\n        /* \"#utility.yul\":4227:4246   */\n      swap1\n      pop\n        /* \"#utility.yul\":4217:4252   */\n      swap1\n      jump\t// out\n        /* \"#utility.yul\":4258:4566   */\n    tag_37:\n        /* \"#utility.yul\":4320:4324   */\n      0x00\n        /* \"#utility.yul\":4410:4428   */\n      0xffffffffffffffff\n        /* \"#utility.yul\":4402:4408   */\n      dup3\n        /* \"#utility.yul\":4399:4429   */\n      gt\n        /* \"#utility.yul\":4396:4398   */\n      iszero\n      tag_105\n      jumpi\n        /* \"#utility.yul\":4432:4450   */\n      tag_106\n      tag_107\n      jump\t// in\n    tag_106:\n        /* \"#utility.yul\":4396:4398   */\n    tag_105:\n        /* \"#utility.yul\":4470:4499   */\n      tag_108\n        /* \"#utility.yul\":4492:4498   */\n      dup3\n        /* \"#utility.yul\":4470:4499   */\n      tag_90\n      jump\t// in\n    tag_108:\n        /* \"#utility.yul\":4462:4499   */\n      swap1\n      pop\n        /* \"#utility.yul\":4554:4558   */\n      0x20\n        /* \"#utility.yul\":4548:4552   */\n      dup2\n        /* \"#utility.yul\":4544:4559   */\n      add\n        /* \"#utility.yul\":4536:4559   */\n      swap1\n      pop\n        /* \"#utility.yul\":4325:4566   */\n      swap2\n      swap1\n      pop\n      jump\t// out\n        /* \"#utility.yul\":4572:4704   */\n    tag_74:\n        /* \"#utility.yul\":4639:4643   */\n      0x00\n        /* \"#utility.yul\":4662:4665   */\n      dup2\n        /* \"#utility.yul\":4654:4665   */\n      swap1\n      pop\n        /* \"#utility.yul\":4692:4696   */\n      0x20\n        /* \"#utility.yul\":4687:4690   */\n      dup3\n        /* \"#utility.yul\":4683:4697   */\n      add\n        /* \"#utility.yul\":4675:4697   */\n      swap1\n      pop\n        /* \"#utility.yul\":4644:4704   */\n      swap2\n      swap1\n      pop\n      jump\t// out\n        /* \"#utility.yul\":4710:4824   */\n    tag_70:\n        /* \"#utility.yul\":4777:4783   */\n      0x00\n        /* \"#utility.yul\":4811:4816   */\n      dup2\n        /* \"#utility.yul\":4805:4817   */\n      mload\n        /* \"#utility.yul\":4795:4817   */\n      swap1\n      pop\n        /* \"#utility.yul\":4784:4824   */\n      swap2\n      swap1\n      pop\n      jump\t// out\n        /* \"#utility.yul\":4830:4929   */\n    tag_84:\n        /* \"#utility.yul\":4882:4888   */\n      0x00\n        /* \"#utility.yul\":4916:4921   */\n      dup2\n        /* \"#utility.yul\":4910:4922   */\n      mload\n        /* \"#utility.yul\":4900:4922   */\n      swap1\n      pop\n        /* \"#utility.yul\":4889:4929   */\n      swap2\n      swap1\n      pop\n      jump\t// out\n        /* \"#utility.yul\":4935:5048   */\n    tag_80:\n        /* \"#utility.yul\":5005:5009   */\n      0x00\n        /* \"#utility.yul\":5037:5041   */\n      0x20\n        /* \"#utility.yul\":5032:5035   */\n      dup3\n        /* \"#utility.yul\":5028:5042   */\n      add\n        /* \"#utility.yul\":5020:5042   */\n      swap1\n      pop\n        /* \"#utility.yul\":5010:5048   */\n      swap2\n      swap1\n      pop\n      jump\t// out\n        /* \"#utility.yul\":5054:5238   */\n    tag_72:\n        /* \"#utility.yul\":5153:5164   */\n      0x00\n        /* \"#utility.yul\":5187:5193   */\n      dup3\n        /* \"#utility.yul\":5182:5185   */\n      dup3\n        /* \"#utility.yul\":5175:5194   */\n      mstore\n        /* \"#utility.yul\":5227:5231   */\n      0x20\n        /* \"#utility.yul\":5222:5225   */\n      dup3\n        /* \"#utility.yul\":5218:5232   */\n      add\n        /* \"#utility.yul\":5203:5232   */\n      swap1\n      pop\n        /* \"#utility.yul\":5165:5238   */\n      swap3\n      swap2\n      pop\n      pop\n      jump\t// out\n        /* \"#utility.yul\":5244:5413   */\n    tag_86:\n        /* \"#utility.yul\":5328:5339   */\n      0x00\n        /* \"#utility.yul\":5362:5368   */\n      dup3\n        /* \"#utility.yul\":5357:5360   */\n      dup3\n        /* \"#utility.yul\":5350:5369   */\n      mstore\n        /* \"#utility.yul\":5402:5406   */\n      0x20\n        /* \"#utility.yul\":5397:5400   */\n      dup3\n        /* \"#utility.yul\":5393:5407   */\n      add\n        /* \"#utility.yul\":5378:5407   */\n      swap1\n      pop\n        /* \"#utility.yul\":5340:5413   */\n      swap3\n      swap2\n      pop\n      pop\n      jump\t// out\n        /* \"#utility.yul\":5419:5515   */\n    tag_63:\n        /* \"#utility.yul\":5456:5463   */\n      0x00\n        /* \"#utility.yul\":5485:5509   */\n      tag_116\n        /* \"#utility.yul\":5503:5508   */\n      dup3\n        /* \"#utility.yul\":5485:5509   */\n      tag_117\n      jump\t// in\n    tag_116:\n        /* \"#utility.yul\":5474:5509   */\n      swap1\n      pop\n        /* \"#utility.yul\":5464:5515   */\n      swap2\n      swap1\n      pop\n      jump\t// out\n        /* \"#utility.yul\":5521:5647   */\n    tag_117:\n        /* \"#utility.yul\":5558:5565   */\n      0x00\n        /* \"#utility.yul\":5598:5640   */\n      0xffffffffffffffffffffffffffffffffffffffff\n        /* \"#utility.yul\":5591:5596   */\n      dup3\n        /* \"#utility.yul\":5587:5641   */\n      and\n        /* \"#utility.yul\":5576:5641   */\n      swap1\n      pop\n        /* \"#utility.yul\":5566:5647   */\n      swap2\n      swap1\n      pop\n      jump\t// out\n        /* \"#utility.yul\":5653:5730   */\n    tag_119:\n        /* \"#utility.yul\":5690:5697   */\n      0x00\n        /* \"#utility.yul\":5719:5724   */\n      dup2\n        /* \"#utility.yul\":5708:5724   */\n      swap1\n      pop\n        /* \"#utility.yul\":5698:5730   */\n      swap2\n      swap1\n      pop\n      jump\t// out\n        /* \"#utility.yul\":5736:5890   */\n    tag_41:\n        /* \"#utility.yul\":5820:5826   */\n      dup3\n        /* \"#utility.yul\":5815:5818   */\n      dup2\n        /* \"#utility.yul\":5810:5813   */\n      dup4\n        /* \"#utility.yul\":5797:5827   */\n      calldatacopy\n        /* \"#utility.yul\":5882:5883   */\n      0x00\n        /* \"#utility.yul\":5873:5879   */\n      dup4\n        /* \"#utility.yul\":5868:5871   */\n      dup4\n        /* \"#utility.yul\":5864:5880   */\n      add\n        /* \"#utility.yul\":5857:5884   */\n      mstore\n        /* \"#utility.yul\":5787:5890   */\n      pop\n      pop\n      pop\n      jump\t// out\n        /* \"#utility.yul\":5896:6203   */\n    tag_88:\n        /* \"#utility.yul\":5964:5965   */\n      0x00\n        /* \"#utility.yul\":5974:6087   */\n    tag_123:\n        /* \"#utility.yul\":5988:5994   */\n      dup4\n        /* \"#utility.yul\":5985:5986   */\n      dup2\n        /* \"#utility.yul\":5982:5995   */\n      lt\n        /* \"#utility.yul\":5974:6087   */\n      iszero\n      tag_125\n      jumpi\n        /* \"#utility.yul\":6073:6074   */\n      dup1\n        /* \"#utility.yul\":6068:6071   */\n      dup3\n        /* \"#utility.yul\":6064:6075   */\n      add\n        /* \"#utility.yul\":6058:6076   */\n      mload\n        /* \"#utility.yul\":6054:6055   */\n      dup2\n        /* \"#utility.yul\":6049:6052   */\n      dup5\n        /* \"#utility.yul\":6045:6056   */\n      add\n        /* \"#utility.yul\":6038:6077   */\n      mstore\n        /* \"#utility.yul\":6010:6012   */\n      0x20\n        /* \"#utility.yul\":6007:6008   */\n      dup2\n        /* \"#utility.yul\":6003:6013   */\n      add\n        /* \"#utility.yul\":5998:6013   */\n      swap1\n      pop\n        /* \"#utility.yul\":5974:6087   */\n      jump(tag_123)\n    tag_125:\n        /* \"#utility.yul\":6105:6111   */\n      dup4\n        /* \"#utility.yul\":6102:6103   */\n      dup2\n        /* \"#utility.yul\":6099:6112   */\n      gt\n        /* \"#utility.yul\":6096:6098   */\n      iszero\n      tag_126\n      jumpi\n        /* \"#utility.yul\":6185:6186   */\n      0x00\n        /* \"#utility.yul\":6176:6182   */\n      dup5\n        /* \"#utility.yul\":6171:6174   */\n      dup5\n        /* \"#utility.yul\":6167:6183   */\n      add\n        /* \"#utility.yul\":6160:6187   */\n      mstore\n        /* \"#utility.yul\":6096:6098   */\n    tag_126:\n        /* \"#utility.yul\":5945:6203   */\n      pop\n      pop\n      pop\n      pop\n      jump\t// out\n        /* \"#utility.yul\":6209:6490   */\n    tag_102:\n        /* \"#utility.yul\":6292:6319   */\n      tag_128\n        /* \"#utility.yul\":6314:6318   */\n      dup3\n        /* \"#utility.yul\":6292:6319   */\n      tag_90\n      jump\t// in\n    tag_128:\n        /* \"#utility.yul\":6284:6290   */\n      dup2\n        /* \"#utility.yul\":6280:6320   */\n      add\n        /* \"#utility.yul\":6422:6428   */\n      dup2\n        /* \"#utility.yul\":6410:6420   */\n      dup2\n        /* \"#utility.yul\":6407:6429   */\n      lt\n        /* \"#utility.yul\":6386:6404   */\n      0xffffffffffffffff\n        /* \"#utility.yul\":6374:6384   */\n      dup3\n        /* \"#utility.yul\":6371:6405   */\n      gt\n        /* \"#utility.yul\":6368:6430   */\n      or\n        /* \"#utility.yul\":6365:6367   */\n      iszero\n      tag_129\n      jumpi\n        /* \"#utility.yul\":6433:6451   */\n      tag_130\n      tag_107\n      jump\t// in\n    tag_130:\n        /* \"#utility.yul\":6365:6367   */\n    tag_129:\n        /* \"#utility.yul\":6473:6483   */\n      dup1\n        /* \"#utility.yul\":6469:6471   */\n      0x40\n        /* \"#utility.yul\":6462:6484   */\n      mstore\n        /* \"#utility.yul\":6252:6490   */\n      pop\n      pop\n      pop\n      jump\t// out\n        /* \"#utility.yul\":6496:6676   */\n    tag_107:\n        /* \"#utility.yul\":6544:6621   */\n      0x4e487b7100000000000000000000000000000000000000000000000000000000\n        /* \"#utility.yul\":6541:6542   */\n      0x00\n        /* \"#utility.yul\":6534:6622   */\n      mstore\n        /* \"#utility.yul\":6641:6645   */\n      0x41\n        /* \"#utility.yul\":6638:6639   */\n      0x04\n        /* \"#utility.yul\":6631:6646   */\n      mstore\n        /* \"#utility.yul\":6665:6669   */\n      0x24\n        /* \"#utility.yul\":6662:6663   */\n      0x00\n        /* \"#utility.yul\":6655:6670   */\n      revert\n        /* \"#utility.yul\":6682:6784   */\n    tag_90:\n        /* \"#utility.yul\":6723:6729   */\n      0x00\n        /* \"#utility.yul\":6774:6776   */\n      0x1f\n        /* \"#utility.yul\":6770:6777   */\n      not\n        /* \"#utility.yul\":6765:6767   */\n      0x1f\n        /* \"#utility.yul\":6758:6763   */\n      dup4\n        /* \"#utility.yul\":6754:6768   */\n      add\n        /* \"#utility.yul\":6750:6778   */\n      and\n        /* \"#utility.yul\":6740:6778   */\n      swap1\n      pop\n        /* \"#utility.yul\":6730:6784   */\n      swap2\n      swap1\n      pop\n      jump\t// out\n        /* \"#utility.yul\":6790:6912   */\n    tag_49:\n        /* \"#utility.yul\":6863:6887   */\n      tag_134\n        /* \"#utility.yul\":6881:6886   */\n      dup2\n        /* \"#utility.yul\":6863:6887   */\n      tag_119\n      jump\t// in\n    tag_134:\n        /* \"#utility.yul\":6856:6861   */\n      dup2\n        /* \"#utility.yul\":6853:6888   */\n      eq\n        /* \"#utility.yul\":6843:6845   */\n      tag_135\n      jumpi\n        /* \"#utility.yul\":6902:6903   */\n      0x00\n        /* \"#utility.yul\":6899:6900   */\n      dup1\n        /* \"#utility.yul\":6892:6904   */\n      revert\n        /* \"#utility.yul\":6843:6845   */\n    tag_135:\n        /* \"#utility.yul\":6833:6912   */\n      pop\n      jump\t// out\n    stop\n\n    sub_0: assembly {\n            /* \"Election.sol\":462:3023  contract Election{\r... */\n          mstore(0x40, 0x80)\n            /* \"Election.sol\":1090:1232  constructor(string memory _electionName, address  _sender) {\r... */\n          callvalue\n          dup1\n          iszero\n          tag_1\n          jumpi\n          0x00\n          dup1\n          revert\n        tag_1:\n          pop\n          mload(0x40)\n          sub(codesize, bytecodeSize)\n          dup1\n          bytecodeSize\n          dup4\n          codecopy\n          dup2\n          dup2\n          add\n          0x40\n          mstore\n          dup2\n          add\n          swap1\n          tag_2\n          swap2\n          swap1\n          tag_3\n          jump\t// in\n        tag_2:\n            /* \"Election.sol\":1178:1185  _sender */\n          dup1\n            /* \"Election.sol\":1160:1175  ownerOfElection */\n          0x05\n          0x00\n            /* \"Election.sol\":1160:1185  ownerOfElection = _sender */\n          0x0100\n          exp\n          dup2\n          sload\n          dup2\n          0xffffffffffffffffffffffffffffffffffffffff\n          mul\n          not\n          and\n          swap1\n          dup4\n          0xffffffffffffffffffffffffffffffffffffffff\n          and\n          mul\n          or\n          swap1\n          sstore\n          pop\n            /* \"Election.sol\":1211:1224  _electionName */\n          dup2\n            /* \"Election.sol\":1196:1208  electionName */\n          0x04\n            /* \"Election.sol\":1196:1224  electionName = _electionName */\n          swap1\n          dup1\n          mload\n          swap1\n          0x20\n          add\n          swap1\n          tag_6\n          swap3\n          swap2\n          swap1\n          tag_7\n          jump\t// in\n        tag_6:\n          pop\n            /* \"Election.sol\":1090:1232  constructor(string memory _electionName, address  _sender) {\r... */\n          pop\n          pop\n            /* \"Election.sol\":462:3023  contract Election{\r... */\n          jump(tag_8)\n        tag_7:\n          dup3\n          dup1\n          sload\n          tag_9\n          swap1\n          tag_10\n          jump\t// in\n        tag_9:\n          swap1\n          0x00\n          mstore\n          keccak256(0x00, 0x20)\n          swap1\n          0x1f\n          add\n          0x20\n          swap1\n          div\n          dup2\n          add\n          swap3\n          dup3\n          tag_12\n          jumpi\n          0x00\n          dup6\n          sstore\n          jump(tag_11)\n        tag_12:\n          dup3\n          0x1f\n          lt\n          tag_13\n          jumpi\n          dup1\n          mload\n          not(0xff)\n          and\n          dup4\n          dup1\n          add\n          or\n          dup6\n          sstore\n          jump(tag_11)\n        tag_13:\n          dup3\n          dup1\n          add\n          0x01\n          add\n          dup6\n          sstore\n          dup3\n          iszero\n          tag_11\n          jumpi\n          swap2\n          dup3\n          add\n        tag_14:\n          dup3\n          dup2\n          gt\n          iszero\n          tag_15\n          jumpi\n          dup3\n          mload\n          dup3\n          sstore\n          swap2\n          0x20\n          add\n          swap2\n          swap1\n          0x01\n          add\n          swap1\n          jump(tag_14)\n        tag_15:\n        tag_11:\n          pop\n          swap1\n          pop\n          tag_16\n          swap2\n          swap1\n          tag_17\n          jump\t// in\n        tag_16:\n          pop\n          swap1\n          jump\t// out\n        tag_17:\n        tag_18:\n          dup1\n          dup3\n          gt\n          iszero\n          tag_19\n          jumpi\n          0x00\n          dup2\n          0x00\n          swap1\n          sstore\n          pop\n          0x01\n          add\n          jump(tag_18)\n        tag_19:\n          pop\n          swap1\n          jump\t// out\n            /* \"#utility.yul\":7:361   */\n        tag_21:\n            /* \"#utility.yul\":96:101   */\n          0x00\n            /* \"#utility.yul\":121:187   */\n          tag_23\n            /* \"#utility.yul\":137:186   */\n          tag_24\n            /* \"#utility.yul\":179:185   */\n          dup5\n            /* \"#utility.yul\":137:186   */\n          tag_25\n          jump\t// in\n        tag_24:\n            /* \"#utility.yul\":121:187   */\n          tag_26\n          jump\t// in\n        tag_23:\n            /* \"#utility.yul\":112:187   */\n          swap1\n          pop\n            /* \"#utility.yul\":210:216   */\n          dup3\n            /* \"#utility.yul\":203:208   */\n          dup2\n            /* \"#utility.yul\":196:217   */\n          mstore\n            /* \"#utility.yul\":248:252   */\n          0x20\n            /* \"#utility.yul\":241:246   */\n          dup2\n            /* \"#utility.yul\":237:253   */\n          add\n            /* \"#utility.yul\":286:289   */\n          dup5\n            /* \"#utility.yul\":277:283   */\n          dup5\n            /* \"#utility.yul\":272:275   */\n          dup5\n            /* \"#utility.yul\":268:284   */\n          add\n            /* \"#utility.yul\":265:290   */\n          gt\n            /* \"#utility.yul\":262:264   */\n          iszero\n          tag_27\n          jumpi\n            /* \"#utility.yul\":303:304   */\n          0x00\n            /* \"#utility.yul\":300:301   */\n          dup1\n            /* \"#utility.yul\":293:305   */\n          revert\n            /* \"#utility.yul\":262:264   */\n        tag_27:\n            /* \"#utility.yul\":316:355   */\n          tag_28\n            /* \"#utility.yul\":348:354   */\n          dup5\n            /* \"#utility.yul\":343:346   */\n          dup3\n            /* \"#utility.yul\":338:341   */\n          dup6\n            /* \"#utility.yul\":316:355   */\n          tag_29\n          jump\t// in\n        tag_28:\n            /* \"#utility.yul\":102:361   */\n          pop\n          swap4\n          swap3\n          pop\n          pop\n          pop\n          jump\t// out\n            /* \"#utility.yul\":367:510   */\n        tag_30:\n            /* \"#utility.yul\":424:429   */\n          0x00\n            /* \"#utility.yul\":455:461   */\n          dup2\n            /* \"#utility.yul\":449:462   */\n          mload\n            /* \"#utility.yul\":440:462   */\n          swap1\n          pop\n            /* \"#utility.yul\":471:504   */\n          tag_32\n            /* \"#utility.yul\":498:503   */\n          dup2\n            /* \"#utility.yul\":471:504   */\n          tag_33\n          jump\t// in\n        tag_32:\n            /* \"#utility.yul\":430:510   */\n          swap3\n          swap2\n          pop\n          pop\n          jump\t// out\n            /* \"#utility.yul\":530:818   */\n        tag_34:\n            /* \"#utility.yul\":597:602   */\n          0x00\n            /* \"#utility.yul\":646:649   */\n          dup3\n            /* \"#utility.yul\":639:643   */\n          0x1f\n            /* \"#utility.yul\":631:637   */\n          dup4\n            /* \"#utility.yul\":627:644   */\n          add\n            /* \"#utility.yul\":623:650   */\n          slt\n            /* \"#utility.yul\":613:615   */\n          tag_36\n          jumpi\n            /* \"#utility.yul\":664:665   */\n          0x00\n            /* \"#utility.yul\":661:662   */\n          dup1\n            /* \"#utility.yul\":654:666   */\n          revert\n            /* \"#utility.yul\":613:615   */\n        tag_36:\n            /* \"#utility.yul\":697:703   */\n          dup2\n            /* \"#utility.yul\":691:704   */\n          mload\n            /* \"#utility.yul\":722:812   */\n          tag_37\n            /* \"#utility.yul\":808:811   */\n          dup5\n            /* \"#utility.yul\":800:806   */\n          dup3\n            /* \"#utility.yul\":793:797   */\n          0x20\n            /* \"#utility.yul\":785:791   */\n          dup7\n            /* \"#utility.yul\":781:798   */\n          add\n            /* \"#utility.yul\":722:812   */\n          tag_21\n          jump\t// in\n        tag_37:\n            /* \"#utility.yul\":713:812   */\n          swap2\n          pop\n            /* \"#utility.yul\":603:818   */\n          pop\n          swap3\n          swap2\n          pop\n          pop\n          jump\t// out\n            /* \"#utility.yul\":824:1370   */\n        tag_3:\n            /* \"#utility.yul\":913:919   */\n          0x00\n            /* \"#utility.yul\":921:927   */\n          dup1\n            /* \"#utility.yul\":970:972   */\n          0x40\n            /* \"#utility.yul\":958:967   */\n          dup4\n            /* \"#utility.yul\":949:956   */\n          dup6\n            /* \"#utility.yul\":945:968   */\n          sub\n            /* \"#utility.yul\":941:973   */\n          slt\n            /* \"#utility.yul\":938:940   */\n          iszero\n          tag_39\n          jumpi\n            /* \"#utility.yul\":986:987   */\n          0x00\n            /* \"#utility.yul\":983:984   */\n          dup1\n            /* \"#utility.yul\":976:988   */\n          revert\n            /* \"#utility.yul\":938:940   */\n        tag_39:\n            /* \"#utility.yul\":1050:1051   */\n          0x00\n            /* \"#utility.yul\":1039:1048   */\n          dup4\n            /* \"#utility.yul\":1035:1052   */\n          add\n            /* \"#utility.yul\":1029:1053   */\n          mload\n            /* \"#utility.yul\":1080:1098   */\n          0xffffffffffffffff\n            /* \"#utility.yul\":1072:1078   */\n          dup2\n            /* \"#utility.yul\":1069:1099   */\n          gt\n            /* \"#utility.yul\":1066:1068   */\n          iszero\n          tag_40\n          jumpi\n            /* \"#utility.yul\":1112:1113   */\n          0x00\n            /* \"#utility.yul\":1109:1110   */\n          dup1\n            /* \"#utility.yul\":1102:1114   */\n          revert\n            /* \"#utility.yul\":1066:1068   */\n        tag_40:\n            /* \"#utility.yul\":1140:1214   */\n          tag_41\n            /* \"#utility.yul\":1206:1213   */\n          dup6\n            /* \"#utility.yul\":1197:1203   */\n          dup3\n            /* \"#utility.yul\":1186:1195   */\n          dup7\n            /* \"#utility.yul\":1182:1204   */\n          add\n            /* \"#utility.yul\":1140:1214   */\n          tag_34\n          jump\t// in\n        tag_41:\n            /* \"#utility.yul\":1130:1214   */\n          swap3\n          pop\n            /* \"#utility.yul\":1000:1224   */\n          pop\n            /* \"#utility.yul\":1263:1265   */\n          0x20\n            /* \"#utility.yul\":1289:1353   */\n          tag_42\n            /* \"#utility.yul\":1345:1352   */\n          dup6\n            /* \"#utility.yul\":1336:1342   */\n          dup3\n            /* \"#utility.yul\":1325:1334   */\n          dup7\n            /* \"#utility.yul\":1321:1343   */\n          add\n            /* \"#utility.yul\":1289:1353   */\n          tag_30\n          jump\t// in\n        tag_42:\n            /* \"#utility.yul\":1279:1353   */\n          swap2\n          pop\n            /* \"#utility.yul\":1234:1363   */\n          pop\n            /* \"#utility.yul\":928:1370   */\n          swap3\n          pop\n          swap3\n          swap1\n          pop\n          jump\t// out\n            /* \"#utility.yul\":1376:1505   */\n        tag_26:\n            /* \"#utility.yul\":1410:1416   */\n          0x00\n            /* \"#utility.yul\":1437:1457   */\n          tag_44\n          tag_45\n          jump\t// in\n        tag_44:\n            /* \"#utility.yul\":1427:1457   */\n          swap1\n          pop\n            /* \"#utility.yul\":1466:1499   */\n          tag_46\n            /* \"#utility.yul\":1494:1498   */\n          dup3\n            /* \"#utility.yul\":1486:1492   */\n          dup3\n            /* \"#utility.yul\":1466:1499   */\n          tag_47\n          jump\t// in\n        tag_46:\n            /* \"#utility.yul\":1417:1505   */\n          swap2\n          swap1\n          pop\n          jump\t// out\n            /* \"#utility.yul\":1511:1586   */\n        tag_45:\n            /* \"#utility.yul\":1544:1550   */\n          0x00\n            /* \"#utility.yul\":1577:1579   */\n          0x40\n            /* \"#utility.yul\":1571:1580   */\n          mload\n            /* \"#utility.yul\":1561:1580   */\n          swap1\n          pop\n            /* \"#utility.yul\":1551:1586   */\n          swap1\n          jump\t// out\n            /* \"#utility.yul\":1592:1900   */\n        tag_25:\n            /* \"#utility.yul\":1654:1658   */\n          0x00\n            /* \"#utility.yul\":1744:1762   */\n          0xffffffffffffffff\n            /* \"#utility.yul\":1736:1742   */\n          dup3\n            /* \"#utility.yul\":1733:1763   */\n          gt\n            /* \"#utility.yul\":1730:1732   */\n          iszero\n          tag_50\n          jumpi\n            /* \"#utility.yul\":1766:1784   */\n          tag_51\n          tag_52\n          jump\t// in\n        tag_51:\n            /* \"#utility.yul\":1730:1732   */\n        tag_50:\n            /* \"#utility.yul\":1804:1833   */\n          tag_53\n            /* \"#utility.yul\":1826:1832   */\n          dup3\n            /* \"#utility.yul\":1804:1833   */\n          tag_54\n          jump\t// in\n        tag_53:\n            /* \"#utility.yul\":1796:1833   */\n          swap1\n          pop\n            /* \"#utility.yul\":1888:1892   */\n          0x20\n            /* \"#utility.yul\":1882:1886   */\n          dup2\n            /* \"#utility.yul\":1878:1893   */\n          add\n            /* \"#utility.yul\":1870:1893   */\n          swap1\n          pop\n            /* \"#utility.yul\":1659:1900   */\n          swap2\n          swap1\n          pop\n          jump\t// out\n            /* \"#utility.yul\":1906:2002   */\n        tag_55:\n            /* \"#utility.yul\":1943:1950   */\n          0x00\n            /* \"#utility.yul\":1972:1996   */\n          tag_57\n            /* \"#utility.yul\":1990:1995   */\n          dup3\n            /* \"#utility.yul\":1972:1996   */\n          tag_58\n          jump\t// in\n        tag_57:\n            /* \"#utility.yul\":1961:1996   */\n          swap1\n          pop\n            /* \"#utility.yul\":1951:2002   */\n          swap2\n          swap1\n          pop\n          jump\t// out\n            /* \"#utility.yul\":2008:2134   */\n        tag_58:\n            /* \"#utility.yul\":2045:2052   */\n          0x00\n            /* \"#utility.yul\":2085:2127   */\n          0xffffffffffffffffffffffffffffffffffffffff\n            /* \"#utility.yul\":2078:2083   */\n          dup3\n            /* \"#utility.yul\":2074:2128   */\n          and\n            /* \"#utility.yul\":2063:2128   */\n          swap1\n          pop\n            /* \"#utility.yul\":2053:2134   */\n          swap2\n          swap1\n          pop\n          jump\t// out\n            /* \"#utility.yul\":2140:2447   */\n        tag_29:\n            /* \"#utility.yul\":2208:2209   */\n          0x00\n            /* \"#utility.yul\":2218:2331   */\n        tag_61:\n            /* \"#utility.yul\":2232:2238   */\n          dup4\n            /* \"#utility.yul\":2229:2230   */\n          dup2\n            /* \"#utility.yul\":2226:2239   */\n          lt\n            /* \"#utility.yul\":2218:2331   */\n          iszero\n          tag_63\n          jumpi\n            /* \"#utility.yul\":2317:2318   */\n          dup1\n            /* \"#utility.yul\":2312:2315   */\n          dup3\n            /* \"#utility.yul\":2308:2319   */\n          add\n            /* \"#utility.yul\":2302:2320   */\n          mload\n            /* \"#utility.yul\":2298:2299   */\n          dup2\n            /* \"#utility.yul\":2293:2296   */\n          dup5\n            /* \"#utility.yul\":2289:2300   */\n          add\n            /* \"#utility.yul\":2282:2321   */\n          mstore\n            /* \"#utility.yul\":2254:2256   */\n          0x20\n            /* \"#utility.yul\":2251:2252   */\n          dup2\n            /* \"#utility.yul\":2247:2257   */\n          add\n            /* \"#utility.yul\":2242:2257   */\n          swap1\n          pop\n            /* \"#utility.yul\":2218:2331   */\n          jump(tag_61)\n        tag_63:\n            /* \"#utility.yul\":2349:2355   */\n          dup4\n            /* \"#utility.yul\":2346:2347   */\n          dup2\n            /* \"#utility.yul\":2343:2356   */\n          gt\n            /* \"#utility.yul\":2340:2342   */\n          iszero\n          tag_64\n          jumpi\n            /* \"#utility.yul\":2429:2430   */\n          0x00\n            /* \"#utility.yul\":2420:2426   */\n          dup5\n            /* \"#utility.yul\":2415:2418   */\n          dup5\n            /* \"#utility.yul\":2411:2427   */\n          add\n            /* \"#utility.yul\":2404:2431   */\n          mstore\n            /* \"#utility.yul\":2340:2342   */\n        tag_64:\n            /* \"#utility.yul\":2189:2447   */\n          pop\n          pop\n          pop\n          pop\n          jump\t// out\n            /* \"#utility.yul\":2453:2773   */\n        tag_10:\n            /* \"#utility.yul\":2497:2503   */\n          0x00\n            /* \"#utility.yul\":2534:2535   */\n          0x02\n            /* \"#utility.yul\":2528:2532   */\n          dup3\n            /* \"#utility.yul\":2524:2536   */\n          div\n            /* \"#utility.yul\":2514:2536   */\n          swap1\n          pop\n            /* \"#utility.yul\":2581:2582   */\n          0x01\n            /* \"#utility.yul\":2575:2579   */\n          dup3\n            /* \"#utility.yul\":2571:2583   */\n          and\n            /* \"#utility.yul\":2602:2620   */\n          dup1\n            /* \"#utility.yul\":2592:2594   */\n          tag_66\n          jumpi\n            /* \"#utility.yul\":2658:2662   */\n          0x7f\n            /* \"#utility.yul\":2650:2656   */\n          dup3\n            /* \"#utility.yul\":2646:2663   */\n          and\n            /* \"#utility.yul\":2636:2663   */\n          swap2\n          pop\n            /* \"#utility.yul\":2592:2594   */\n        tag_66:\n            /* \"#utility.yul\":2720:2722   */\n          0x20\n            /* \"#utility.yul\":2712:2718   */\n          dup3\n            /* \"#utility.yul\":2709:2723   */\n          lt\n            /* \"#utility.yul\":2689:2707   */\n          dup2\n            /* \"#utility.yul\":2686:2724   */\n          eq\n            /* \"#utility.yul\":2683:2685   */\n          iszero\n          tag_67\n          jumpi\n            /* \"#utility.yul\":2739:2757   */\n          tag_68\n          tag_69\n          jump\t// in\n        tag_68:\n            /* \"#utility.yul\":2683:2685   */\n        tag_67:\n            /* \"#utility.yul\":2504:2773   */\n          pop\n          swap2\n          swap1\n          pop\n          jump\t// out\n            /* \"#utility.yul\":2779:3060   */\n        tag_47:\n            /* \"#utility.yul\":2862:2889   */\n          tag_71\n            /* \"#utility.yul\":2884:2888   */\n          dup3\n            /* \"#utility.yul\":2862:2889   */\n          tag_54\n          jump\t// in\n        tag_71:\n            /* \"#utility.yul\":2854:2860   */\n          dup2\n            /* \"#utility.yul\":2850:2890   */\n          add\n            /* \"#utility.yul\":2992:2998   */\n          dup2\n            /* \"#utility.yul\":2980:2990   */\n          dup2\n            /* \"#utility.yul\":2977:2999   */\n          lt\n            /* \"#utility.yul\":2956:2974   */\n          0xffffffffffffffff\n            /* \"#utility.yul\":2944:2954   */\n          dup3\n            /* \"#utility.yul\":2941:2975   */\n          gt\n            /* \"#utility.yul\":2938:3000   */\n          or\n            /* \"#utility.yul\":2935:2937   */\n          iszero\n          tag_72\n          jumpi\n            /* \"#utility.yul\":3003:3021   */\n          tag_73\n          tag_52\n          jump\t// in\n        tag_73:\n            /* \"#utility.yul\":2935:2937   */\n        tag_72:\n            /* \"#utility.yul\":3043:3053   */\n          dup1\n            /* \"#utility.yul\":3039:3041   */\n          0x40\n            /* \"#utility.yul\":3032:3054   */\n          mstore\n            /* \"#utility.yul\":2822:3060   */\n          pop\n          pop\n          pop\n          jump\t// out\n            /* \"#utility.yul\":3066:3246   */\n        tag_69:\n            /* \"#utility.yul\":3114:3191   */\n          0x4e487b7100000000000000000000000000000000000000000000000000000000\n            /* \"#utility.yul\":3111:3112   */\n          0x00\n            /* \"#utility.yul\":3104:3192   */\n          mstore\n            /* \"#utility.yul\":3211:3215   */\n          0x22\n            /* \"#utility.yul\":3208:3209   */\n          0x04\n            /* \"#utility.yul\":3201:3216   */\n          mstore\n            /* \"#utility.yul\":3235:3239   */\n          0x24\n            /* \"#utility.yul\":3232:3233   */\n          0x00\n            /* \"#utility.yul\":3225:3240   */\n          revert\n            /* \"#utility.yul\":3252:3432   */\n        tag_52:\n            /* \"#utility.yul\":3300:3377   */\n          0x4e487b7100000000000000000000000000000000000000000000000000000000\n            /* \"#utility.yul\":3297:3298   */\n          0x00\n            /* \"#utility.yul\":3290:3378   */\n          mstore\n            /* \"#utility.yul\":3397:3401   */\n          0x41\n            /* \"#utility.yul\":3394:3395   */\n          0x04\n            /* \"#utility.yul\":3387:3402   */\n          mstore\n            /* \"#utility.yul\":3421:3425   */\n          0x24\n            /* \"#utility.yul\":3418:3419   */\n          0x00\n            /* \"#utility.yul\":3411:3426   */\n          revert\n            /* \"#utility.yul\":3438:3540   */\n        tag_54:\n            /* \"#utility.yul\":3479:3485   */\n          0x00\n            /* \"#utility.yul\":3530:3532   */\n          0x1f\n            /* \"#utility.yul\":3526:3533   */\n          not\n            /* \"#utility.yul\":3521:3523   */\n          0x1f\n            /* \"#utility.yul\":3514:3519   */\n          dup4\n            /* \"#utility.yul\":3510:3524   */\n          add\n            /* \"#utility.yul\":3506:3534   */\n          and\n            /* \"#utility.yul\":3496:3534   */\n          swap1\n          pop\n            /* \"#utility.yul\":3486:3540   */\n          swap2\n          swap1\n          pop\n          jump\t// out\n            /* \"#utility.yul\":3546:3668   */\n        tag_33:\n            /* \"#utility.yul\":3619:3643   */\n          tag_78\n            /* \"#utility.yul\":3637:3642   */\n          dup2\n            /* \"#utility.yul\":3619:3643   */\n          tag_55\n          jump\t// in\n        tag_78:\n            /* \"#utility.yul\":3612:3617   */\n          dup2\n            /* \"#utility.yul\":3609:3644   */\n          eq\n            /* \"#utility.yul\":3599:3601   */\n          tag_79\n          jumpi\n            /* \"#utility.yul\":3658:3659   */\n          0x00\n            /* \"#utility.yul\":3655:3656   */\n          dup1\n            /* \"#utility.yul\":3648:3660   */\n          revert\n            /* \"#utility.yul\":3599:3601   */\n        tag_79:\n            /* \"#utility.yul\":3589:3668   */\n          pop\n          jump\t// out\n            /* \"Election.sol\":462:3023  contract Election{\r... */\n        tag_8:\n          dataSize(sub_0)\n          dup1\n          dataOffset(sub_0)\n          0x00\n          codecopy\n          0x00\n          return\n        stop\n\n        sub_0: assembly {\n                /* \"Election.sol\":462:3023  contract Election{\r... */\n              mstore(0x40, 0x80)\n              callvalue\n              dup1\n              iszero\n              tag_1\n              jumpi\n              0x00\n              dup1\n              revert\n            tag_1:\n              pop\n              jumpi(tag_2, lt(calldatasize, 0x04))\n              shr(0xe0, calldataload(0x00))\n              dup1\n              0x5750af77\n              gt\n              tag_17\n              jumpi\n              dup1\n              0x85e8e7a7\n              gt\n              tag_18\n              jumpi\n              dup1\n              0x85e8e7a7\n              eq\n              tag_13\n              jumpi\n              dup1\n              0x8fd82076\n              eq\n              tag_14\n              jumpi\n              dup1\n              0xa3ec138d\n              eq\n              tag_15\n              jumpi\n              dup1\n              0xaa922556\n              eq\n              tag_16\n              jumpi\n              jump(tag_2)\n            tag_18:\n              dup1\n              0x5750af77\n              eq\n              tag_10\n              jumpi\n              dup1\n              0x68ac66dc\n              eq\n              tag_11\n              jumpi\n              dup1\n              0x7f178f2e\n              eq\n              tag_12\n              jumpi\n              jump(tag_2)\n            tag_17:\n              dup1\n              0x369a5b34\n              gt\n              tag_19\n              jumpi\n              dup1\n              0x369a5b34\n              eq\n              tag_6\n              jumpi\n              dup1\n              0x3ec2a019\n              eq\n              tag_7\n              jumpi\n              dup1\n              0x4051ddac\n              eq\n              tag_8\n              jumpi\n              dup1\n              0x42169e48\n              eq\n              tag_9\n              jumpi\n              jump(tag_2)\n            tag_19:\n              dup1\n              0x2260b98b\n              eq\n              tag_3\n              jumpi\n              dup1\n              0x2d35a8a2\n              eq\n              tag_4\n              jumpi\n              dup1\n              0x3477ee2e\n              eq\n              tag_5\n              jumpi\n            tag_2:\n              0x00\n              dup1\n              revert\n                /* \"Election.sol\":2562:2652  function finalizeVoting() public {\r... */\n            tag_3:\n              tag_20\n              tag_21\n              jump\t// in\n            tag_20:\n              stop\n                /* \"Election.sol\":905:932  uint public candidatesCount */\n            tag_4:\n              tag_22\n              tag_23\n              jump\t// in\n            tag_22:\n              mload(0x40)\n              tag_24\n              swap2\n              swap1\n              tag_25\n              jump\t// in\n            tag_24:\n              mload(0x40)\n              dup1\n              swap2\n              sub\n              swap1\n              return\n                /* \"Election.sol\":824:869  mapping(uint => Candidates) public candidates */\n            tag_5:\n              tag_26\n              0x04\n              dup1\n              calldatasize\n              sub\n              dup2\n              add\n              swap1\n              tag_27\n              swap2\n              swap1\n              tag_28\n              jump\t// in\n            tag_27:\n              tag_29\n              jump\t// in\n            tag_26:\n              mload(0x40)\n              tag_30\n              swap4\n              swap3\n              swap2\n              swap1\n              tag_31\n              jump\t// in\n            tag_30:\n              mload(0x40)\n              dup1\n              swap2\n              sub\n              swap1\n              return\n                /* \"Election.sol\":2670:2784  function votedCandidatesAddress()  public view returns (address[] memory){\r... */\n            tag_6:\n              tag_32\n              tag_33\n              jump\t// in\n            tag_32:\n              mload(0x40)\n              tag_34\n              swap2\n              swap1\n              tag_35\n              jump\t// in\n            tag_34:\n              mload(0x40)\n              dup1\n              swap2\n              sub\n              swap1\n              return\n                /* \"Election.sol\":2189:2550  function addVoter(string memory _name, string memory _voterId, string memory _imageHash) public {\r... */\n            tag_7:\n              tag_36\n              0x04\n              dup1\n              calldatasize\n              sub\n              dup2\n              add\n              swap1\n              tag_37\n              swap2\n              swap1\n              tag_38\n              jump\t// in\n            tag_37:\n              tag_39\n              jump\t// in\n            tag_36:\n              stop\n                /* \"Election.sol\":2794:2984  function getSummary() public view returns ( string memory, address, uint, uint, bool){\r... */\n            tag_8:\n              tag_40\n              tag_41\n              jump\t// in\n            tag_40:\n              mload(0x40)\n              tag_42\n              swap6\n              swap5\n              swap4\n              swap3\n              swap2\n              swap1\n              tag_43\n              jump\t// in\n            tag_42:\n              mload(0x40)\n              dup1\n              swap2\n              sub\n              swap1\n              return\n                /* \"Election.sol\":876:898  uint public voterCount */\n            tag_9:\n              tag_44\n              tag_45\n              jump\t// in\n            tag_44:\n              mload(0x40)\n              tag_46\n              swap2\n              swap1\n              tag_25\n              jump\t// in\n            tag_46:\n              mload(0x40)\n              dup1\n              swap2\n              sub\n              swap1\n              return\n                /* \"Election.sol\":1045:1077  address[] public votedCandidates */\n            tag_10:\n              tag_47\n              0x04\n              dup1\n              calldatasize\n              sub\n              dup2\n              add\n              swap1\n              tag_48\n              swap2\n              swap1\n              tag_28\n              jump\t// in\n            tag_48:\n              tag_49\n              jump\t// in\n            tag_47:\n              mload(0x40)\n              tag_50\n              swap2\n              swap1\n              tag_51\n              jump\t// in\n            tag_50:\n              mload(0x40)\n              dup1\n              swap2\n              sub\n              swap1\n              return\n                /* \"Election.sol\":1009:1038  bool public electionCompleted */\n            tag_11:\n              tag_52\n              tag_53\n              jump\t// in\n            tag_52:\n              mload(0x40)\n              tag_54\n              swap2\n              swap1\n              tag_55\n              jump\t// in\n            tag_54:\n              mload(0x40)\n              dup1\n              swap2\n              sub\n              swap1\n              return\n                /* \"Election.sol\":1703:2171  function giveVote(uint _candidateIndexNumber) public {\r... */\n            tag_12:\n              tag_56\n              0x04\n              dup1\n              calldatasize\n              sub\n              dup2\n              add\n              swap1\n              tag_57\n              swap2\n              swap1\n              tag_28\n              jump\t// in\n            tag_57:\n              tag_58\n              jump\t// in\n            tag_56:\n              stop\n                /* \"Election.sol\":939:965  string public electionName */\n            tag_13:\n              tag_59\n              tag_60\n              jump\t// in\n            tag_59:\n              mload(0x40)\n              tag_61\n              swap2\n              swap1\n              tag_62\n              jump\t// in\n            tag_61:\n              mload(0x40)\n              dup1\n              swap2\n              sub\n              swap1\n              return\n                /* \"Election.sol\":972:1002  address public ownerOfElection */\n            tag_14:\n              tag_63\n              tag_64\n              jump\t// in\n            tag_63:\n              mload(0x40)\n              tag_65\n              swap2\n              swap1\n              tag_51\n              jump\t// in\n            tag_65:\n              mload(0x40)\n              dup1\n              swap2\n              sub\n              swap1\n              return\n                /* \"Election.sol\":776:817  mapping(address => Voters ) public voters */\n            tag_15:\n              tag_66\n              0x04\n              dup1\n              calldatasize\n              sub\n              dup2\n              add\n              swap1\n              tag_67\n              swap2\n              swap1\n              tag_68\n              jump\t// in\n            tag_67:\n              tag_69\n              jump\t// in\n            tag_66:\n              mload(0x40)\n              tag_70\n              swap5\n              swap4\n              swap3\n              swap2\n              swap1\n              tag_71\n              jump\t// in\n            tag_70:\n              mload(0x40)\n              dup1\n              swap2\n              sub\n              swap1\n              return\n                /* \"Election.sol\":1389:1691  function addCandidates(string memory _candidateName, string memory _candidateImageHash) ownerOnly public {\r... */\n            tag_16:\n              tag_72\n              0x04\n              dup1\n              calldatasize\n              sub\n              dup2\n              add\n              swap1\n              tag_73\n              swap2\n              swap1\n              tag_74\n              jump\t// in\n            tag_73:\n              tag_75\n              jump\t// in\n            tag_72:\n              stop\n                /* \"Election.sol\":2562:2652  function finalizeVoting() public {\r... */\n            tag_21:\n                /* \"Election.sol\":2627:2644  electionCompleted */\n              0x05\n              0x14\n              swap1\n              sload\n              swap1\n              0x0100\n              exp\n              swap1\n              div\n              0xff\n              and\n                /* \"Election.sol\":2626:2644  !electionCompleted */\n              iszero\n                /* \"Election.sol\":2606:2623  electionCompleted */\n              0x05\n              0x14\n                /* \"Election.sol\":2606:2644  electionCompleted = !electionCompleted */\n              0x0100\n              exp\n              dup2\n              sload\n              dup2\n              0xff\n              mul\n              not\n              and\n              swap1\n              dup4\n              iszero\n              iszero\n              mul\n              or\n              swap1\n              sstore\n              pop\n                /* \"Election.sol\":2562:2652  function finalizeVoting() public {\r... */\n              jump\t// out\n                /* \"Election.sol\":905:932  uint public candidatesCount */\n            tag_23:\n              sload(0x03)\n              dup2\n              jump\t// out\n                /* \"Election.sol\":824:869  mapping(uint => Candidates) public candidates */\n            tag_29:\n              mstore(0x20, 0x01)\n              dup1\n              0x00\n              mstore\n              keccak256(0x00, 0x40)\n              0x00\n              swap2\n              pop\n              swap1\n              pop\n              dup1\n              0x00\n              add\n              dup1\n              sload\n              tag_77\n              swap1\n              tag_78\n              jump\t// in\n            tag_77:\n              dup1\n              0x1f\n              add\n              0x20\n              dup1\n              swap2\n              div\n              mul\n              0x20\n              add\n              mload(0x40)\n              swap1\n              dup2\n              add\n              0x40\n              mstore\n              dup1\n              swap3\n              swap2\n              swap1\n              dup2\n              dup2\n              mstore\n              0x20\n              add\n              dup3\n              dup1\n              sload\n              tag_79\n              swap1\n              tag_78\n              jump\t// in\n            tag_79:\n              dup1\n              iszero\n              tag_80\n              jumpi\n              dup1\n              0x1f\n              lt\n              tag_81\n              jumpi\n              0x0100\n              dup1\n              dup4\n              sload\n              div\n              mul\n              dup4\n              mstore\n              swap2\n              0x20\n              add\n              swap2\n              jump(tag_80)\n            tag_81:\n              dup3\n              add\n              swap2\n              swap1\n              0x00\n              mstore\n              keccak256(0x00, 0x20)\n              swap1\n            tag_82:\n              dup2\n              sload\n              dup2\n              mstore\n              swap1\n              0x01\n              add\n              swap1\n              0x20\n              add\n              dup1\n              dup4\n              gt\n              tag_82\n              jumpi\n              dup3\n              swap1\n              sub\n              0x1f\n              and\n              dup3\n              add\n              swap2\n            tag_80:\n              pop\n              pop\n              pop\n              pop\n              pop\n              swap1\n              dup1\n              0x01\n              add\n              dup1\n              sload\n              tag_83\n              swap1\n              tag_78\n              jump\t// in\n            tag_83:\n              dup1\n              0x1f\n              add\n              0x20\n              dup1\n              swap2\n              div\n              mul\n              0x20\n              add\n              mload(0x40)\n              swap1\n              dup2\n              add\n              0x40\n              mstore\n              dup1\n              swap3\n              swap2\n              swap1\n              dup2\n              dup2\n              mstore\n              0x20\n              add\n              dup3\n              dup1\n              sload\n              tag_84\n              swap1\n              tag_78\n              jump\t// in\n            tag_84:\n              dup1\n              iszero\n              tag_85\n              jumpi\n              dup1\n              0x1f\n              lt\n              tag_86\n              jumpi\n              0x0100\n              dup1\n              dup4\n              sload\n              div\n              mul\n              dup4\n              mstore\n              swap2\n              0x20\n              add\n              swap2\n              jump(tag_85)\n            tag_86:\n              dup3\n              add\n              swap2\n              swap1\n              0x00\n              mstore\n              keccak256(0x00, 0x20)\n              swap1\n            tag_87:\n              dup2\n              sload\n              dup2\n              mstore\n              swap1\n              0x01\n              add\n              swap1\n              0x20\n              add\n              dup1\n              dup4\n              gt\n              tag_87\n              jumpi\n              dup3\n              swap1\n              sub\n              0x1f\n              and\n              dup3\n              add\n              swap2\n            tag_85:\n              pop\n              pop\n              pop\n              pop\n              pop\n              swap1\n              dup1\n              0x02\n              add\n              sload\n              swap1\n              pop\n              dup4\n              jump\t// out\n                /* \"Election.sol\":2670:2784  function votedCandidatesAddress()  public view returns (address[] memory){\r... */\n            tag_33:\n                /* \"Election.sol\":2726:2742  address[] memory */\n              0x60\n                /* \"Election.sol\":2761:2776  votedCandidates */\n              0x06\n                /* \"Election.sol\":2754:2776  return votedCandidates */\n              dup1\n              sload\n              dup1\n              0x20\n              mul\n              0x20\n              add\n              mload(0x40)\n              swap1\n              dup2\n              add\n              0x40\n              mstore\n              dup1\n              swap3\n              swap2\n              swap1\n              dup2\n              dup2\n              mstore\n              0x20\n              add\n              dup3\n              dup1\n              sload\n              dup1\n              iszero\n              tag_89\n              jumpi\n              0x20\n              mul\n              dup3\n              add\n              swap2\n              swap1\n              0x00\n              mstore\n              keccak256(0x00, 0x20)\n              swap1\n            tag_90:\n              dup2\n              0x00\n              swap1\n              sload\n              swap1\n              0x0100\n              exp\n              swap1\n              div\n              0xffffffffffffffffffffffffffffffffffffffff\n              and\n              0xffffffffffffffffffffffffffffffffffffffff\n              and\n              dup2\n              mstore\n              0x20\n              add\n              swap1\n              0x01\n              add\n              swap1\n              dup1\n              dup4\n              gt\n              tag_90\n              jumpi\n            tag_89:\n              pop\n              pop\n              pop\n              pop\n              pop\n              swap1\n              pop\n                /* \"Election.sol\":2670:2784  function votedCandidatesAddress()  public view returns (address[] memory){\r... */\n              swap1\n              jump\t// out\n                /* \"Election.sol\":2189:2550  function addVoter(string memory _name, string memory _voterId, string memory _imageHash) public {\r... */\n            tag_39:\n                /* \"Election.sol\":2295:2314  string memory empty */\n              0x00\n                /* \"Election.sol\":2295:2319  string memory empty = \"\" */\n              mload(0x40)\n              dup1\n              0x20\n              add\n              0x40\n              mstore\n              dup1\n              0x00\n              dup2\n              mstore\n              pop\n              swap1\n              pop\n                /* \"Election.sol\":2402:2407  empty */\n              dup1\n                /* \"Election.sol\":2386:2409  keccak256(bytes(empty)) */\n              dup1\n              mload\n              swap1\n              0x20\n              add\n              keccak256\n                /* \"Election.sol\":2354:2360  voters */\n              0x00\n                /* \"Election.sol\":2354:2372  voters[msg.sender] */\n              dup1\n                /* \"Election.sol\":2361:2371  msg.sender */\n              caller\n                /* \"Election.sol\":2354:2372  voters[msg.sender] */\n              0xffffffffffffffffffffffffffffffffffffffff\n              and\n              0xffffffffffffffffffffffffffffffffffffffff\n              and\n              dup2\n              mstore\n              0x20\n              add\n              swap1\n              dup2\n              mstore\n              0x20\n              add\n              0x00\n              keccak256\n                /* \"Election.sol\":2354:2380  voters[msg.sender].voterId */\n              0x01\n              add\n                /* \"Election.sol\":2338:2382  keccak256(bytes(voters[msg.sender].voterId)) */\n              mload(0x40)\n              tag_92\n              swap2\n              swap1\n              tag_93\n              jump\t// in\n            tag_92:\n              mload(0x40)\n              dup1\n              swap2\n              sub\n              swap1\n              keccak256\n                /* \"Election.sol\":2338:2409  keccak256(bytes(voters[msg.sender].voterId)) == keccak256(bytes(empty)) */\n              eq\n                /* \"Election.sol\":2330:2410  require(keccak256(bytes(voters[msg.sender].voterId)) == keccak256(bytes(empty))) */\n              tag_94\n              jumpi\n              0x00\n              dup1\n              revert\n            tag_94:\n                /* \"Election.sol\":2442:2519  Voters({name: _name, voterId: _voterId, imageHash: _imageHash, voted: false}) */\n              mload(0x40)\n              dup1\n              0x80\n              add\n              0x40\n              mstore\n              dup1\n                /* \"Election.sol\":2456:2461  _name */\n              dup6\n                /* \"Election.sol\":2442:2519  Voters({name: _name, voterId: _voterId, imageHash: _imageHash, voted: false}) */\n              dup2\n              mstore\n              0x20\n              add\n                /* \"Election.sol\":2472:2480  _voterId */\n              dup5\n                /* \"Election.sol\":2442:2519  Voters({name: _name, voterId: _voterId, imageHash: _imageHash, voted: false}) */\n              dup2\n              mstore\n              0x20\n              add\n                /* \"Election.sol\":2493:2503  _imageHash */\n              dup4\n                /* \"Election.sol\":2442:2519  Voters({name: _name, voterId: _voterId, imageHash: _imageHash, voted: false}) */\n              dup2\n              mstore\n              0x20\n              add\n                /* \"Election.sol\":2512:2517  false */\n              0x00\n                /* \"Election.sol\":2442:2519  Voters({name: _name, voterId: _voterId, imageHash: _imageHash, voted: false}) */\n              iszero\n              iszero\n              dup2\n              mstore\n              pop\n                /* \"Election.sol\":2421:2427  voters */\n              0x00\n                /* \"Election.sol\":2421:2439  voters[msg.sender] */\n              dup1\n                /* \"Election.sol\":2428:2438  msg.sender */\n              caller\n                /* \"Election.sol\":2421:2439  voters[msg.sender] */\n              0xffffffffffffffffffffffffffffffffffffffff\n              and\n              0xffffffffffffffffffffffffffffffffffffffff\n              and\n              dup2\n              mstore\n              0x20\n              add\n              swap1\n              dup2\n              mstore\n              0x20\n              add\n              0x00\n              keccak256\n                /* \"Election.sol\":2421:2519  voters[msg.sender] = Voters({name: _name, voterId: _voterId, imageHash: _imageHash, voted: false}) */\n              0x00\n              dup3\n              add\n              mload\n              dup2\n              0x00\n              add\n              swap1\n              dup1\n              mload\n              swap1\n              0x20\n              add\n              swap1\n              tag_95\n              swap3\n              swap2\n              swap1\n              tag_96\n              jump\t// in\n            tag_95:\n              pop\n              0x20\n              dup3\n              add\n              mload\n              dup2\n              0x01\n              add\n              swap1\n              dup1\n              mload\n              swap1\n              0x20\n              add\n              swap1\n              tag_97\n              swap3\n              swap2\n              swap1\n              tag_96\n              jump\t// in\n            tag_97:\n              pop\n              0x40\n              dup3\n              add\n              mload\n              dup2\n              0x02\n              add\n              swap1\n              dup1\n              mload\n              swap1\n              0x20\n              add\n              swap1\n              tag_98\n              swap3\n              swap2\n              swap1\n              tag_96\n              jump\t// in\n            tag_98:\n              pop\n              0x60\n              dup3\n              add\n              mload\n              dup2\n              0x03\n              add\n              exp(0x0100, 0x00)\n              dup2\n              sload\n              dup2\n              0xff\n              mul\n              not\n              and\n              swap1\n              dup4\n              iszero\n              iszero\n              mul\n              or\n              swap1\n              sstore\n              pop\n              swap1\n              pop\n              pop\n                /* \"Election.sol\":2530:2540  voterCount */\n              0x02\n              0x00\n                /* \"Election.sol\":2530:2542  voterCount++ */\n              dup2\n              sload\n              dup1\n              swap3\n              swap2\n              swap1\n              tag_99\n              swap1\n              tag_100\n              jump\t// in\n            tag_99:\n              swap2\n              swap1\n              pop\n              sstore\n              pop\n                /* \"Election.sol\":2189:2550  function addVoter(string memory _name, string memory _voterId, string memory _imageHash) public {\r... */\n              pop\n              pop\n              pop\n              pop\n              jump\t// out\n                /* \"Election.sol\":2794:2984  function getSummary() public view returns ( string memory, address, uint, uint, bool){\r... */\n            tag_41:\n                /* \"Election.sol\":2838:2851  string memory */\n              0x60\n                /* \"Election.sol\":2853:2860  address */\n              0x00\n                /* \"Election.sol\":2862:2866  uint */\n              dup1\n                /* \"Election.sol\":2868:2872  uint */\n              0x00\n                /* \"Election.sol\":2874:2878  bool */\n              dup1\n                /* \"Election.sol\":2898:2910  electionName */\n              0x04\n                /* \"Election.sol\":2912:2927  ownerOfElection */\n              0x05\n              0x00\n              swap1\n              sload\n              swap1\n              0x0100\n              exp\n              swap1\n              div\n              0xffffffffffffffffffffffffffffffffffffffff\n              and\n                /* \"Election.sol\":2929:2944  candidatesCount */\n              sload(0x03)\n                /* \"Election.sol\":2946:2956  voterCount */\n              sload(0x02)\n                /* \"Election.sol\":2958:2975  electionCompleted */\n              0x05\n              0x14\n              swap1\n              sload\n              swap1\n              0x0100\n              exp\n              swap1\n              div\n              0xff\n              and\n                /* \"Election.sol\":2890:2976  return (electionName, ownerOfElection, candidatesCount, voterCount, electionCompleted) */\n              dup5\n              dup1\n              sload\n              tag_102\n              swap1\n              tag_78\n              jump\t// in\n            tag_102:\n              dup1\n              0x1f\n              add\n              0x20\n              dup1\n              swap2\n              div\n              mul\n              0x20\n              add\n              mload(0x40)\n              swap1\n              dup2\n              add\n              0x40\n              mstore\n              dup1\n              swap3\n              swap2\n              swap1\n              dup2\n              dup2\n              mstore\n              0x20\n              add\n              dup3\n              dup1\n              sload\n              tag_103\n              swap1\n              tag_78\n              jump\t// in\n            tag_103:\n              dup1\n              iszero\n              tag_104\n              jumpi\n              dup1\n              0x1f\n              lt\n              tag_105\n              jumpi\n              0x0100\n              dup1\n              dup4\n              sload\n              div\n              mul\n              dup4\n              mstore\n              swap2\n              0x20\n              add\n              swap2\n              jump(tag_104)\n            tag_105:\n              dup3\n              add\n              swap2\n              swap1\n              0x00\n              mstore\n              keccak256(0x00, 0x20)\n              swap1\n            tag_106:\n              dup2\n              sload\n              dup2\n              mstore\n              swap1\n              0x01\n              add\n              swap1\n              0x20\n              add\n              dup1\n              dup4\n              gt\n              tag_106\n              jumpi\n              dup3\n              swap1\n              sub\n              0x1f\n              and\n              dup3\n              add\n              swap2\n            tag_104:\n              pop\n              pop\n              pop\n              pop\n              pop\n              swap5\n              pop\n              swap5\n              pop\n              swap5\n              pop\n              swap5\n              pop\n              swap5\n              pop\n              swap5\n              pop\n                /* \"Election.sol\":2794:2984  function getSummary() public view returns ( string memory, address, uint, uint, bool){\r... */\n              swap1\n              swap2\n              swap3\n              swap4\n              swap5\n              jump\t// out\n                /* \"Election.sol\":876:898  uint public voterCount */\n            tag_45:\n              sload(0x02)\n              dup2\n              jump\t// out\n                /* \"Election.sol\":1045:1077  address[] public votedCandidates */\n            tag_49:\n              0x06\n              dup2\n              dup2\n              sload\n              dup2\n              lt\n              tag_107\n              jumpi\n              0x00\n              dup1\n              revert\n            tag_107:\n              swap1\n              0x00\n              mstore\n              keccak256(0x00, 0x20)\n              add\n              0x00\n              swap2\n              pop\n              sload\n              swap1\n              0x0100\n              exp\n              swap1\n              div\n              0xffffffffffffffffffffffffffffffffffffffff\n              and\n              dup2\n              jump\t// out\n                /* \"Election.sol\":1009:1038  bool public electionCompleted */\n            tag_53:\n              0x05\n              0x14\n              swap1\n              sload\n              swap1\n              0x0100\n              exp\n              swap1\n              div\n              0xff\n              and\n              dup2\n              jump\t// out\n                /* \"Election.sol\":1703:2171  function giveVote(uint _candidateIndexNumber) public {\r... */\n            tag_58:\n                /* \"Election.sol\":1776:1793  electionCompleted */\n              0x05\n              0x14\n              swap1\n              sload\n              swap1\n              0x0100\n              exp\n              swap1\n              div\n              0xff\n              and\n                /* \"Election.sol\":1775:1793  !electionCompleted */\n              iszero\n                /* \"Election.sol\":1767:1794  require(!electionCompleted) */\n              tag_110\n              jumpi\n              0x00\n              dup1\n              revert\n            tag_110:\n                /* \"Election.sol\":1805:1824  string memory empty */\n              0x00\n                /* \"Election.sol\":1805:1829  string memory empty = \"\" */\n              mload(0x40)\n              dup1\n              0x20\n              add\n              0x40\n              mstore\n              dup1\n              0x00\n              dup2\n              mstore\n              pop\n              swap1\n              pop\n                /* \"Election.sol\":1911:1916  empty */\n              dup1\n                /* \"Election.sol\":1895:1918  keccak256(bytes(empty)) */\n              dup1\n              mload\n              swap1\n              0x20\n              add\n              keccak256\n                /* \"Election.sol\":1866:1872  voters */\n              0x00\n                /* \"Election.sol\":1866:1884  voters[msg.sender] */\n              dup1\n                /* \"Election.sol\":1873:1883  msg.sender */\n              caller\n                /* \"Election.sol\":1866:1884  voters[msg.sender] */\n              0xffffffffffffffffffffffffffffffffffffffff\n              and\n              0xffffffffffffffffffffffffffffffffffffffff\n              and\n              dup2\n              mstore\n              0x20\n              add\n              swap1\n              dup2\n              mstore\n              0x20\n              add\n              0x00\n              keccak256\n                /* \"Election.sol\":1866:1889  voters[msg.sender].name */\n              0x00\n              add\n                /* \"Election.sol\":1850:1891  keccak256(bytes(voters[msg.sender].name)) */\n              mload(0x40)\n              tag_111\n              swap2\n              swap1\n              tag_93\n              jump\t// in\n            tag_111:\n              mload(0x40)\n              dup1\n              swap2\n              sub\n              swap1\n              keccak256\n                /* \"Election.sol\":1850:1918  keccak256(bytes(voters[msg.sender].name)) == keccak256(bytes(empty)) */\n              eq\n                /* \"Election.sol\":1848:1919  !(keccak256(bytes(voters[msg.sender].name)) == keccak256(bytes(empty))) */\n              iszero\n                /* \"Election.sol\":1840:1920  require(!(keccak256(bytes(voters[msg.sender].name)) == keccak256(bytes(empty)))) */\n              tag_112\n              jumpi\n              0x00\n              dup1\n              revert\n            tag_112:\n                /* \"Election.sol\":1976:1981  false */\n              0x00\n                /* \"Election.sol\":1948:1981  voters[msg.sender].voted == false */\n              iszero\n              iszero\n                /* \"Election.sol\":1948:1954  voters */\n              0x00\n                /* \"Election.sol\":1948:1966  voters[msg.sender] */\n              dup1\n                /* \"Election.sol\":1955:1965  msg.sender */\n              caller\n                /* \"Election.sol\":1948:1966  voters[msg.sender] */\n              0xffffffffffffffffffffffffffffffffffffffff\n              and\n              0xffffffffffffffffffffffffffffffffffffffff\n              and\n              dup2\n              mstore\n              0x20\n              add\n              swap1\n              dup2\n              mstore\n              0x20\n              add\n              0x00\n              keccak256\n                /* \"Election.sol\":1948:1972  voters[msg.sender].voted */\n              0x03\n              add\n              0x00\n              swap1\n              sload\n              swap1\n              0x0100\n              exp\n              swap1\n              div\n              0xff\n              and\n                /* \"Election.sol\":1948:1981  voters[msg.sender].voted == false */\n              iszero\n              iszero\n              eq\n                /* \"Election.sol\":1940:1982  require(voters[msg.sender].voted == false) */\n              tag_113\n              jumpi\n              0x00\n              dup1\n              revert\n            tag_113:\n                /* \"Election.sol\":2003:2013  candidates */\n              0x01\n                /* \"Election.sol\":2003:2036  candidates[_candidateIndexNumber] */\n              0x00\n                /* \"Election.sol\":2014:2035  _candidateIndexNumber */\n              dup4\n                /* \"Election.sol\":2003:2036  candidates[_candidateIndexNumber] */\n              dup2\n              mstore\n              0x20\n              add\n              swap1\n              dup2\n              mstore\n              0x20\n              add\n              0x00\n              keccak256\n                /* \"Election.sol\":2003:2046  candidates[_candidateIndexNumber].voteCount */\n              0x02\n              add\n              0x00\n                /* \"Election.sol\":2003:2048  candidates[_candidateIndexNumber].voteCount++ */\n              dup2\n              sload\n              dup1\n              swap3\n              swap2\n              swap1\n              tag_114\n              swap1\n              tag_100\n              jump\t// in\n            tag_114:\n              swap2\n              swap1\n              pop\n              sstore\n              pop\n                /* \"Election.sol\":2096:2100  true */\n              0x01\n                /* \"Election.sol\":2069:2075  voters */\n              0x00\n                /* \"Election.sol\":2069:2087  voters[msg.sender] */\n              dup1\n                /* \"Election.sol\":2076:2086  msg.sender */\n              caller\n                /* \"Election.sol\":2069:2087  voters[msg.sender] */\n              0xffffffffffffffffffffffffffffffffffffffff\n              and\n              0xffffffffffffffffffffffffffffffffffffffff\n              and\n              dup2\n              mstore\n              0x20\n              add\n              swap1\n              dup2\n              mstore\n              0x20\n              add\n              0x00\n              keccak256\n                /* \"Election.sol\":2069:2093  voters[msg.sender].voted */\n              0x03\n              add\n              0x00\n                /* \"Election.sol\":2069:2100  voters[msg.sender].voted = true */\n              0x0100\n              exp\n              dup2\n              sload\n              dup2\n              0xff\n              mul\n              not\n              and\n              swap1\n              dup4\n              iszero\n              iszero\n              mul\n              or\n              swap1\n              sstore\n              pop\n                /* \"Election.sol\":2121:2136  votedCandidates */\n              0x06\n                /* \"Election.sol\":2142:2152  msg.sender */\n              caller\n                /* \"Election.sol\":2121:2153  votedCandidates.push(msg.sender) */\n              swap1\n              dup1\n              0x01\n              dup2\n              sload\n              add\n              dup1\n              dup3\n              sstore\n              dup1\n              swap2\n              pop\n              pop\n              0x01\n              swap1\n              sub\n              swap1\n              0x00\n              mstore\n              keccak256(0x00, 0x20)\n              add\n              0x00\n              swap1\n              swap2\n              swap1\n              swap2\n              swap1\n              swap2\n              0x0100\n              exp\n              dup2\n              sload\n              dup2\n              0xffffffffffffffffffffffffffffffffffffffff\n              mul\n              not\n              and\n              swap1\n              dup4\n              0xffffffffffffffffffffffffffffffffffffffff\n              and\n              mul\n              or\n              swap1\n              sstore\n              pop\n                /* \"Election.sol\":1703:2171  function giveVote(uint _candidateIndexNumber) public {\r... */\n              pop\n              pop\n              jump\t// out\n                /* \"Election.sol\":939:965  string public electionName */\n            tag_60:\n              0x04\n              dup1\n              sload\n              tag_116\n              swap1\n              tag_78\n              jump\t// in\n            tag_116:\n              dup1\n              0x1f\n              add\n              0x20\n              dup1\n              swap2\n              div\n              mul\n              0x20\n              add\n              mload(0x40)\n              swap1\n              dup2\n              add\n              0x40\n              mstore\n              dup1\n              swap3\n              swap2\n              swap1\n              dup2\n              dup2\n              mstore\n              0x20\n              add\n              dup3\n              dup1\n              sload\n              tag_117\n              swap1\n              tag_78\n              jump\t// in\n            tag_117:\n              dup1\n              iszero\n              tag_118\n              jumpi\n              dup1\n              0x1f\n              lt\n              tag_119\n              jumpi\n              0x0100\n              dup1\n              dup4\n              sload\n              div\n              mul\n              dup4\n              mstore\n              swap2\n              0x20\n              add\n              swap2\n              jump(tag_118)\n            tag_119:\n              dup3\n              add\n              swap2\n              swap1\n              0x00\n              mstore\n              keccak256(0x00, 0x20)\n              swap1\n            tag_120:\n              dup2\n              sload\n              dup2\n              mstore\n              swap1\n              0x01\n              add\n              swap1\n              0x20\n              add\n              dup1\n              dup4\n              gt\n              tag_120\n              jumpi\n              dup3\n              swap1\n              sub\n              0x1f\n              and\n              dup3\n              add\n              swap2\n            tag_118:\n              pop\n              pop\n              pop\n              pop\n              pop\n              dup2\n              jump\t// out\n                /* \"Election.sol\":972:1002  address public ownerOfElection */\n            tag_64:\n              0x05\n              0x00\n              swap1\n              sload\n              swap1\n              0x0100\n              exp\n              swap1\n              div\n              0xffffffffffffffffffffffffffffffffffffffff\n              and\n              dup2\n              jump\t// out\n                /* \"Election.sol\":776:817  mapping(address => Voters ) public voters */\n            tag_69:\n              mstore(0x20, 0x00)\n              dup1\n              0x00\n              mstore\n              keccak256(0x00, 0x40)\n              0x00\n              swap2\n              pop\n              swap1\n              pop\n              dup1\n              0x00\n              add\n              dup1\n              sload\n              tag_121\n              swap1\n              tag_78\n              jump\t// in\n            tag_121:\n              dup1\n              0x1f\n              add\n              0x20\n              dup1\n              swap2\n              div\n              mul\n              0x20\n              add\n              mload(0x40)\n              swap1\n              dup2\n              add\n              0x40\n              mstore\n              dup1\n              swap3\n              swap2\n              swap1\n              dup2\n              dup2\n              mstore\n              0x20\n              add\n              dup3\n              dup1\n              sload\n              tag_122\n              swap1\n              tag_78\n              jump\t// in\n            tag_122:\n              dup1\n              iszero\n              tag_123\n              jumpi\n              dup1\n              0x1f\n              lt\n              tag_124\n              jumpi\n              0x0100\n              dup1\n              dup4\n              sload\n              div\n              mul\n              dup4\n              mstore\n              swap2\n              0x20\n              add\n              swap2\n              jump(tag_123)\n            tag_124:\n              dup3\n              add\n              swap2\n              swap1\n              0x00\n              mstore\n              keccak256(0x00, 0x20)\n              swap1\n            tag_125:\n              dup2\n              sload\n              dup2\n              mstore\n              swap1\n              0x01\n              add\n              swap1\n              0x20\n              add\n              dup1\n              dup4\n              gt\n              tag_125\n              jumpi\n              dup3\n              swap1\n              sub\n              0x1f\n              and\n              dup3\n              add\n              swap2\n            tag_123:\n              pop\n              pop\n              pop\n              pop\n              pop\n              swap1\n              dup1\n              0x01\n              add\n              dup1\n              sload\n              tag_126\n              swap1\n              tag_78\n              jump\t// in\n            tag_126:\n              dup1\n              0x1f\n              add\n              0x20\n              dup1\n              swap2\n              div\n              mul\n              0x20\n              add\n              mload(0x40)\n              swap1\n              dup2\n              add\n              0x40\n              mstore\n              dup1\n              swap3\n              swap2\n              swap1\n              dup2\n              dup2\n              mstore\n              0x20\n              add\n              dup3\n              dup1\n              sload\n              tag_127\n              swap1\n              tag_78\n              jump\t// in\n            tag_127:\n              dup1\n              iszero\n              tag_128\n              jumpi\n              dup1\n              0x1f\n              lt\n              tag_129\n              jumpi\n              0x0100\n              dup1\n              dup4\n              sload\n              div\n              mul\n              dup4\n              mstore\n              swap2\n              0x20\n              add\n              swap2\n              jump(tag_128)\n            tag_129:\n              dup3\n              add\n              swap2\n              swap1\n              0x00\n              mstore\n              keccak256(0x00, 0x20)\n              swap1\n            tag_130:\n              dup2\n              sload\n              dup2\n              mstore\n              swap1\n              0x01\n              add\n              swap1\n              0x20\n              add\n              dup1\n              dup4\n              gt\n              tag_130\n              jumpi\n              dup3\n              swap1\n              sub\n              0x1f\n              and\n              dup3\n              add\n              swap2\n            tag_128:\n              pop\n              pop\n              pop\n              pop\n              pop\n              swap1\n              dup1\n              0x02\n              add\n              dup1\n              sload\n              tag_131\n              swap1\n              tag_78\n              jump\t// in\n            tag_131:\n              dup1\n              0x1f\n              add\n              0x20\n              dup1\n              swap2\n              div\n              mul\n              0x20\n              add\n              mload(0x40)\n              swap1\n              dup2\n              add\n              0x40\n              mstore\n              dup1\n              swap3\n              swap2\n              swap1\n              dup2\n              dup2\n              mstore\n              0x20\n              add\n              dup3\n              dup1\n              sload\n              tag_132\n              swap1\n              tag_78\n              jump\t// in\n            tag_132:\n              dup1\n              iszero\n              tag_133\n              jumpi\n              dup1\n              0x1f\n              lt\n              tag_134\n              jumpi\n              0x0100\n              dup1\n              dup4\n              sload\n              div\n              mul\n              dup4\n              mstore\n              swap2\n              0x20\n              add\n              swap2\n              jump(tag_133)\n            tag_134:\n              dup3\n              add\n              swap2\n              swap1\n              0x00\n              mstore\n              keccak256(0x00, 0x20)\n              swap1\n            tag_135:\n              dup2\n              sload\n              dup2\n              mstore\n              swap1\n              0x01\n              add\n              swap1\n              0x20\n              add\n              dup1\n              dup4\n              gt\n              tag_135\n              jumpi\n              dup3\n              swap1\n              sub\n              0x1f\n              and\n              dup3\n              add\n              swap2\n            tag_133:\n              pop\n              pop\n              pop\n              pop\n              pop\n              swap1\n              dup1\n              0x03\n              add\n              0x00\n              swap1\n              sload\n              swap1\n              0x0100\n              exp\n              swap1\n              div\n              0xff\n              and\n              swap1\n              pop\n              dup5\n              jump\t// out\n                /* \"Election.sol\":1389:1691  function addCandidates(string memory _candidateName, string memory _candidateImageHash) ownerOnly public {\r... */\n            tag_75:\n                /* \"Election.sol\":1297:1312  ownerOfElection */\n              0x05\n              0x00\n              swap1\n              sload\n              swap1\n              0x0100\n              exp\n              swap1\n              div\n              0xffffffffffffffffffffffffffffffffffffffff\n              and\n                /* \"Election.sol\":1283:1312  msg.sender == ownerOfElection */\n              0xffffffffffffffffffffffffffffffffffffffff\n              and\n                /* \"Election.sol\":1283:1293  msg.sender */\n              caller\n                /* \"Election.sol\":1283:1312  msg.sender == ownerOfElection */\n              0xffffffffffffffffffffffffffffffffffffffff\n              and\n              eq\n                /* \"Election.sol\":1275:1313  require(msg.sender == ownerOfElection) */\n              tag_137\n              jumpi\n              0x00\n              dup1\n              revert\n            tag_137:\n                /* \"Election.sol\":1333:1350  electionCompleted */\n              0x05\n              0x14\n              swap1\n              sload\n              swap1\n              0x0100\n              exp\n              swap1\n              div\n              0xff\n              and\n                /* \"Election.sol\":1332:1350  !electionCompleted */\n              iszero\n                /* \"Election.sol\":1324:1351  require(!electionCompleted) */\n              tag_138\n              jumpi\n              0x00\n              dup1\n              revert\n            tag_138:\n                /* \"Election.sol\":1515:1530  candidatesCount */\n              0x03\n              0x00\n                /* \"Election.sol\":1515:1532  candidatesCount++ */\n              dup2\n              sload\n              dup1\n              swap3\n              swap2\n              swap1\n              tag_140\n              swap1\n              tag_100\n              jump\t// in\n            tag_140:\n              swap2\n              swap1\n              pop\n              sstore\n              pop\n                /* \"Election.sol\":1573:1663  Candidates({name: _candidateName, voteCount: 0, candidateImageHash: _candidateImageHash }) */\n              mload(0x40)\n              dup1\n              0x60\n              add\n              0x40\n              mstore\n              dup1\n                /* \"Election.sol\":1591:1605  _candidateName */\n              dup4\n                /* \"Election.sol\":1573:1663  Candidates({name: _candidateName, voteCount: 0, candidateImageHash: _candidateImageHash }) */\n              dup2\n              mstore\n              0x20\n              add\n                /* \"Election.sol\":1641:1660  _candidateImageHash */\n              dup3\n                /* \"Election.sol\":1573:1663  Candidates({name: _candidateName, voteCount: 0, candidateImageHash: _candidateImageHash }) */\n              dup2\n              mstore\n              0x20\n              add\n                /* \"Election.sol\":1618:1619  0 */\n              0x00\n                /* \"Election.sol\":1573:1663  Candidates({name: _candidateName, voteCount: 0, candidateImageHash: _candidateImageHash }) */\n              dup2\n              mstore\n              pop\n                /* \"Election.sol\":1543:1553  candidates */\n              0x01\n                /* \"Election.sol\":1543:1570  candidates[candidatesCount] */\n              0x00\n                /* \"Election.sol\":1554:1569  candidatesCount */\n              sload(0x03)\n                /* \"Election.sol\":1543:1570  candidates[candidatesCount] */\n              dup2\n              mstore\n              0x20\n              add\n              swap1\n              dup2\n              mstore\n              0x20\n              add\n              0x00\n              keccak256\n                /* \"Election.sol\":1543:1663  candidates[candidatesCount] = Candidates({name: _candidateName, voteCount: 0, candidateImageHash: _candidateImageHash }) */\n              0x00\n              dup3\n              add\n              mload\n              dup2\n              0x00\n              add\n              swap1\n              dup1\n              mload\n              swap1\n              0x20\n              add\n              swap1\n              tag_141\n              swap3\n              swap2\n              swap1\n              tag_96\n              jump\t// in\n            tag_141:\n              pop\n              0x20\n              dup3\n              add\n              mload\n              dup2\n              0x01\n              add\n              swap1\n              dup1\n              mload\n              swap1\n              0x20\n              add\n              swap1\n              tag_142\n              swap3\n              swap2\n              swap1\n              tag_96\n              jump\t// in\n            tag_142:\n              pop\n              0x40\n              dup3\n              add\n              mload\n              dup2\n              0x02\n              add\n              sstore\n              swap1\n              pop\n              pop\n                /* \"Election.sol\":1389:1691  function addCandidates(string memory _candidateName, string memory _candidateImageHash) ownerOnly public {\r... */\n              pop\n              pop\n              jump\t// out\n            tag_96:\n              dup3\n              dup1\n              sload\n              tag_143\n              swap1\n              tag_78\n              jump\t// in\n            tag_143:\n              swap1\n              0x00\n              mstore\n              keccak256(0x00, 0x20)\n              swap1\n              0x1f\n              add\n              0x20\n              swap1\n              div\n              dup2\n              add\n              swap3\n              dup3\n              tag_145\n              jumpi\n              0x00\n              dup6\n              sstore\n              jump(tag_144)\n            tag_145:\n              dup3\n              0x1f\n              lt\n              tag_146\n              jumpi\n              dup1\n              mload\n              not(0xff)\n              and\n              dup4\n              dup1\n              add\n              or\n              dup6\n              sstore\n              jump(tag_144)\n            tag_146:\n              dup3\n              dup1\n              add\n              0x01\n              add\n              dup6\n              sstore\n              dup3\n              iszero\n              tag_144\n              jumpi\n              swap2\n              dup3\n              add\n            tag_147:\n              dup3\n              dup2\n              gt\n              iszero\n              tag_148\n              jumpi\n              dup3\n              mload\n              dup3\n              sstore\n              swap2\n              0x20\n              add\n              swap2\n              swap1\n              0x01\n              add\n              swap1\n              jump(tag_147)\n            tag_148:\n            tag_144:\n              pop\n              swap1\n              pop\n              tag_149\n              swap2\n              swap1\n              tag_150\n              jump\t// in\n            tag_149:\n              pop\n              swap1\n              jump\t// out\n            tag_150:\n            tag_151:\n              dup1\n              dup3\n              gt\n              iszero\n              tag_152\n              jumpi\n              0x00\n              dup2\n              0x00\n              swap1\n              sstore\n              pop\n              0x01\n              add\n              jump(tag_151)\n            tag_152:\n              pop\n              swap1\n              jump\t// out\n                /* \"#utility.yul\":7:352   */\n            tag_154:\n                /* \"#utility.yul\":85:90   */\n              0x00\n                /* \"#utility.yul\":110:176   */\n              tag_156\n                /* \"#utility.yul\":126:175   */\n              tag_157\n                /* \"#utility.yul\":168:174   */\n              dup5\n                /* \"#utility.yul\":126:175   */\n              tag_158\n              jump\t// in\n            tag_157:\n                /* \"#utility.yul\":110:176   */\n              tag_159\n              jump\t// in\n            tag_156:\n                /* \"#utility.yul\":101:176   */\n              swap1\n              pop\n                /* \"#utility.yul\":199:205   */\n              dup3\n                /* \"#utility.yul\":192:197   */\n              dup2\n                /* \"#utility.yul\":185:206   */\n              mstore\n                /* \"#utility.yul\":237:241   */\n              0x20\n                /* \"#utility.yul\":230:235   */\n              dup2\n                /* \"#utility.yul\":226:242   */\n              add\n                /* \"#utility.yul\":275:278   */\n              dup5\n                /* \"#utility.yul\":266:272   */\n              dup5\n                /* \"#utility.yul\":261:264   */\n              dup5\n                /* \"#utility.yul\":257:273   */\n              add\n                /* \"#utility.yul\":254:279   */\n              gt\n                /* \"#utility.yul\":251:253   */\n              iszero\n              tag_160\n              jumpi\n                /* \"#utility.yul\":292:293   */\n              0x00\n                /* \"#utility.yul\":289:290   */\n              dup1\n                /* \"#utility.yul\":282:294   */\n              revert\n                /* \"#utility.yul\":251:253   */\n            tag_160:\n                /* \"#utility.yul\":305:346   */\n              tag_161\n                /* \"#utility.yul\":339:345   */\n              dup5\n                /* \"#utility.yul\":334:337   */\n              dup3\n                /* \"#utility.yul\":329:332   */\n              dup6\n                /* \"#utility.yul\":305:346   */\n              tag_162\n              jump\t// in\n            tag_161:\n                /* \"#utility.yul\":91:352   */\n              pop\n              swap4\n              swap3\n              pop\n              pop\n              pop\n              jump\t// out\n                /* \"#utility.yul\":358:497   */\n            tag_163:\n                /* \"#utility.yul\":404:409   */\n              0x00\n                /* \"#utility.yul\":442:448   */\n              dup2\n                /* \"#utility.yul\":429:449   */\n              calldataload\n                /* \"#utility.yul\":420:449   */\n              swap1\n              pop\n                /* \"#utility.yul\":458:491   */\n              tag_165\n                /* \"#utility.yul\":485:490   */\n              dup2\n                /* \"#utility.yul\":458:491   */\n              tag_166\n              jump\t// in\n            tag_165:\n                /* \"#utility.yul\":410:497   */\n              swap3\n              swap2\n              pop\n              pop\n              jump\t// out\n                /* \"#utility.yul\":517:790   */\n            tag_167:\n                /* \"#utility.yul\":573:578   */\n              0x00\n                /* \"#utility.yul\":622:625   */\n              dup3\n                /* \"#utility.yul\":615:619   */\n              0x1f\n                /* \"#utility.yul\":607:613   */\n              dup4\n                /* \"#utility.yul\":603:620   */\n              add\n                /* \"#utility.yul\":599:626   */\n              slt\n                /* \"#utility.yul\":589:591   */\n              tag_169\n              jumpi\n                /* \"#utility.yul\":640:641   */\n              0x00\n                /* \"#utility.yul\":637:638   */\n              dup1\n                /* \"#utility.yul\":630:642   */\n              revert\n                /* \"#utility.yul\":589:591   */\n            tag_169:\n                /* \"#utility.yul\":680:686   */\n              dup2\n                /* \"#utility.yul\":667:687   */\n              calldataload\n                /* \"#utility.yul\":705:784   */\n              tag_170\n                /* \"#utility.yul\":780:783   */\n              dup5\n                /* \"#utility.yul\":772:778   */\n              dup3\n                /* \"#utility.yul\":765:769   */\n              0x20\n                /* \"#utility.yul\":757:763   */\n              dup7\n                /* \"#utility.yul\":753:770   */\n              add\n                /* \"#utility.yul\":705:784   */\n              tag_154\n              jump\t// in\n            tag_170:\n                /* \"#utility.yul\":696:784   */\n              swap2\n              pop\n                /* \"#utility.yul\":579:790   */\n              pop\n              swap3\n              swap2\n              pop\n              pop\n              jump\t// out\n                /* \"#utility.yul\":796:935   */\n            tag_171:\n                /* \"#utility.yul\":842:847   */\n              0x00\n                /* \"#utility.yul\":880:886   */\n              dup2\n                /* \"#utility.yul\":867:887   */\n              calldataload\n                /* \"#utility.yul\":858:887   */\n              swap1\n              pop\n                /* \"#utility.yul\":896:929   */\n              tag_173\n                /* \"#utility.yul\":923:928   */\n              dup2\n                /* \"#utility.yul\":896:929   */\n              tag_174\n              jump\t// in\n            tag_173:\n                /* \"#utility.yul\":848:935   */\n              swap3\n              swap2\n              pop\n              pop\n              jump\t// out\n                /* \"#utility.yul\":941:1203   */\n            tag_68:\n                /* \"#utility.yul\":1000:1006   */\n              0x00\n                /* \"#utility.yul\":1049:1051   */\n              0x20\n                /* \"#utility.yul\":1037:1046   */\n              dup3\n                /* \"#utility.yul\":1028:1035   */\n              dup5\n                /* \"#utility.yul\":1024:1047   */\n              sub\n                /* \"#utility.yul\":1020:1052   */\n              slt\n                /* \"#utility.yul\":1017:1019   */\n              iszero\n              tag_176\n              jumpi\n                /* \"#utility.yul\":1065:1066   */\n              0x00\n                /* \"#utility.yul\":1062:1063   */\n              dup1\n                /* \"#utility.yul\":1055:1067   */\n              revert\n                /* \"#utility.yul\":1017:1019   */\n            tag_176:\n                /* \"#utility.yul\":1108:1109   */\n              0x00\n                /* \"#utility.yul\":1133:1186   */\n              tag_177\n                /* \"#utility.yul\":1178:1185   */\n              dup5\n                /* \"#utility.yul\":1169:1175   */\n              dup3\n                /* \"#utility.yul\":1158:1167   */\n              dup6\n                /* \"#utility.yul\":1154:1176   */\n              add\n                /* \"#utility.yul\":1133:1186   */\n              tag_163\n              jump\t// in\n            tag_177:\n                /* \"#utility.yul\":1123:1186   */\n              swap2\n              pop\n                /* \"#utility.yul\":1079:1196   */\n              pop\n                /* \"#utility.yul\":1007:1203   */\n              swap3\n              swap2\n              pop\n              pop\n              jump\t// out\n                /* \"#utility.yul\":1209:1842   */\n            tag_74:\n                /* \"#utility.yul\":1297:1303   */\n              0x00\n                /* \"#utility.yul\":1305:1311   */\n              dup1\n                /* \"#utility.yul\":1354:1356   */\n              0x40\n                /* \"#utility.yul\":1342:1351   */\n              dup4\n                /* \"#utility.yul\":1333:1340   */\n              dup6\n                /* \"#utility.yul\":1329:1352   */\n              sub\n                /* \"#utility.yul\":1325:1357   */\n              slt\n                /* \"#utility.yul\":1322:1324   */\n              iszero\n              tag_179\n              jumpi\n                /* \"#utility.yul\":1370:1371   */\n              0x00\n                /* \"#utility.yul\":1367:1368   */\n              dup1\n                /* \"#utility.yul\":1360:1372   */\n              revert\n                /* \"#utility.yul\":1322:1324   */\n            tag_179:\n                /* \"#utility.yul\":1441:1442   */\n              0x00\n                /* \"#utility.yul\":1430:1439   */\n              dup4\n                /* \"#utility.yul\":1426:1443   */\n              add\n                /* \"#utility.yul\":1413:1444   */\n              calldataload\n                /* \"#utility.yul\":1471:1489   */\n              0xffffffffffffffff\n                /* \"#utility.yul\":1463:1469   */\n              dup2\n                /* \"#utility.yul\":1460:1490   */\n              gt\n                /* \"#utility.yul\":1457:1459   */\n              iszero\n              tag_180\n              jumpi\n                /* \"#utility.yul\":1503:1504   */\n              0x00\n                /* \"#utility.yul\":1500:1501   */\n              dup1\n                /* \"#utility.yul\":1493:1505   */\n              revert\n                /* \"#utility.yul\":1457:1459   */\n            tag_180:\n                /* \"#utility.yul\":1531:1594   */\n              tag_181\n                /* \"#utility.yul\":1586:1593   */\n              dup6\n                /* \"#utility.yul\":1577:1583   */\n              dup3\n                /* \"#utility.yul\":1566:1575   */\n              dup7\n                /* \"#utility.yul\":1562:1584   */\n              add\n                /* \"#utility.yul\":1531:1594   */\n              tag_167\n              jump\t// in\n            tag_181:\n                /* \"#utility.yul\":1521:1594   */\n              swap3\n              pop\n                /* \"#utility.yul\":1384:1604   */\n              pop\n                /* \"#utility.yul\":1671:1673   */\n              0x20\n                /* \"#utility.yul\":1660:1669   */\n              dup4\n                /* \"#utility.yul\":1656:1674   */\n              add\n                /* \"#utility.yul\":1643:1675   */\n              calldataload\n                /* \"#utility.yul\":1702:1720   */\n              0xffffffffffffffff\n                /* \"#utility.yul\":1694:1700   */\n              dup2\n                /* \"#utility.yul\":1691:1721   */\n              gt\n                /* \"#utility.yul\":1688:1690   */\n              iszero\n              tag_182\n              jumpi\n                /* \"#utility.yul\":1734:1735   */\n              0x00\n                /* \"#utility.yul\":1731:1732   */\n              dup1\n                /* \"#utility.yul\":1724:1736   */\n              revert\n                /* \"#utility.yul\":1688:1690   */\n            tag_182:\n                /* \"#utility.yul\":1762:1825   */\n              tag_183\n                /* \"#utility.yul\":1817:1824   */\n              dup6\n                /* \"#utility.yul\":1808:1814   */\n              dup3\n                /* \"#utility.yul\":1797:1806   */\n              dup7\n                /* \"#utility.yul\":1793:1815   */\n              add\n                /* \"#utility.yul\":1762:1825   */\n              tag_167\n              jump\t// in\n            tag_183:\n                /* \"#utility.yul\":1752:1825   */\n              swap2\n              pop\n                /* \"#utility.yul\":1614:1835   */\n              pop\n                /* \"#utility.yul\":1312:1842   */\n              swap3\n              pop\n              swap3\n              swap1\n              pop\n              jump\t// out\n                /* \"#utility.yul\":1848:2739   */\n            tag_38:\n                /* \"#utility.yul\":1955:1961   */\n              0x00\n                /* \"#utility.yul\":1963:1969   */\n              dup1\n                /* \"#utility.yul\":1971:1977   */\n              0x00\n                /* \"#utility.yul\":2020:2022   */\n              0x60\n                /* \"#utility.yul\":2008:2017   */\n              dup5\n                /* \"#utility.yul\":1999:2006   */\n              dup7\n                /* \"#utility.yul\":1995:2018   */\n              sub\n                /* \"#utility.yul\":1991:2023   */\n              slt\n                /* \"#utility.yul\":1988:1990   */\n              iszero\n              tag_185\n              jumpi\n                /* \"#utility.yul\":2036:2037   */\n              0x00\n                /* \"#utility.yul\":2033:2034   */\n              dup1\n                /* \"#utility.yul\":2026:2038   */\n              revert\n                /* \"#utility.yul\":1988:1990   */\n            tag_185:\n                /* \"#utility.yul\":2107:2108   */\n              0x00\n                /* \"#utility.yul\":2096:2105   */\n              dup5\n                /* \"#utility.yul\":2092:2109   */\n              add\n                /* \"#utility.yul\":2079:2110   */\n              calldataload\n                /* \"#utility.yul\":2137:2155   */\n              0xffffffffffffffff\n                /* \"#utility.yul\":2129:2135   */\n              dup2\n                /* \"#utility.yul\":2126:2156   */\n              gt\n                /* \"#utility.yul\":2123:2125   */\n              iszero\n              tag_186\n              jumpi\n                /* \"#utility.yul\":2169:2170   */\n              0x00\n                /* \"#utility.yul\":2166:2167   */\n              dup1\n                /* \"#utility.yul\":2159:2171   */\n              revert\n                /* \"#utility.yul\":2123:2125   */\n            tag_186:\n                /* \"#utility.yul\":2197:2260   */\n              tag_187\n                /* \"#utility.yul\":2252:2259   */\n              dup7\n                /* \"#utility.yul\":2243:2249   */\n              dup3\n                /* \"#utility.yul\":2232:2241   */\n              dup8\n                /* \"#utility.yul\":2228:2250   */\n              add\n                /* \"#utility.yul\":2197:2260   */\n              tag_167\n              jump\t// in\n            tag_187:\n                /* \"#utility.yul\":2187:2260   */\n              swap4\n              pop\n                /* \"#utility.yul\":2050:2270   */\n              pop\n                /* \"#utility.yul\":2337:2339   */\n              0x20\n                /* \"#utility.yul\":2326:2335   */\n              dup5\n                /* \"#utility.yul\":2322:2340   */\n              add\n                /* \"#utility.yul\":2309:2341   */\n              calldataload\n                /* \"#utility.yul\":2368:2386   */\n              0xffffffffffffffff\n                /* \"#utility.yul\":2360:2366   */\n              dup2\n                /* \"#utility.yul\":2357:2387   */\n              gt\n                /* \"#utility.yul\":2354:2356   */\n              iszero\n              tag_188\n              jumpi\n                /* \"#utility.yul\":2400:2401   */\n              0x00\n                /* \"#utility.yul\":2397:2398   */\n              dup1\n                /* \"#utility.yul\":2390:2402   */\n              revert\n                /* \"#utility.yul\":2354:2356   */\n            tag_188:\n                /* \"#utility.yul\":2428:2491   */\n              tag_189\n                /* \"#utility.yul\":2483:2490   */\n              dup7\n                /* \"#utility.yul\":2474:2480   */\n              dup3\n                /* \"#utility.yul\":2463:2472   */\n              dup8\n                /* \"#utility.yul\":2459:2481   */\n              add\n                /* \"#utility.yul\":2428:2491   */\n              tag_167\n              jump\t// in\n            tag_189:\n                /* \"#utility.yul\":2418:2491   */\n              swap3\n              pop\n                /* \"#utility.yul\":2280:2501   */\n              pop\n                /* \"#utility.yul\":2568:2570   */\n              0x40\n                /* \"#utility.yul\":2557:2566   */\n              dup5\n                /* \"#utility.yul\":2553:2571   */\n              add\n                /* \"#utility.yul\":2540:2572   */\n              calldataload\n                /* \"#utility.yul\":2599:2617   */\n              0xffffffffffffffff\n                /* \"#utility.yul\":2591:2597   */\n              dup2\n                /* \"#utility.yul\":2588:2618   */\n              gt\n                /* \"#utility.yul\":2585:2587   */\n              iszero\n              tag_190\n              jumpi\n                /* \"#utility.yul\":2631:2632   */\n              0x00\n                /* \"#utility.yul\":2628:2629   */\n              dup1\n                /* \"#utility.yul\":2621:2633   */\n              revert\n                /* \"#utility.yul\":2585:2587   */\n            tag_190:\n                /* \"#utility.yul\":2659:2722   */\n              tag_191\n                /* \"#utility.yul\":2714:2721   */\n              dup7\n                /* \"#utility.yul\":2705:2711   */\n              dup3\n                /* \"#utility.yul\":2694:2703   */\n              dup8\n                /* \"#utility.yul\":2690:2712   */\n              add\n                /* \"#utility.yul\":2659:2722   */\n              tag_167\n              jump\t// in\n            tag_191:\n                /* \"#utility.yul\":2649:2722   */\n              swap2\n              pop\n                /* \"#utility.yul\":2511:2732   */\n              pop\n                /* \"#utility.yul\":1978:2739   */\n              swap3\n              pop\n              swap3\n              pop\n              swap3\n              jump\t// out\n                /* \"#utility.yul\":2745:3007   */\n            tag_28:\n                /* \"#utility.yul\":2804:2810   */\n              0x00\n                /* \"#utility.yul\":2853:2855   */\n              0x20\n                /* \"#utility.yul\":2841:2850   */\n              dup3\n                /* \"#utility.yul\":2832:2839   */\n              dup5\n                /* \"#utility.yul\":2828:2851   */\n              sub\n                /* \"#utility.yul\":2824:2856   */\n              slt\n                /* \"#utility.yul\":2821:2823   */\n              iszero\n              tag_193\n              jumpi\n                /* \"#utility.yul\":2869:2870   */\n              0x00\n                /* \"#utility.yul\":2866:2867   */\n              dup1\n                /* \"#utility.yul\":2859:2871   */\n              revert\n                /* \"#utility.yul\":2821:2823   */\n            tag_193:\n                /* \"#utility.yul\":2912:2913   */\n              0x00\n                /* \"#utility.yul\":2937:2990   */\n              tag_194\n                /* \"#utility.yul\":2982:2989   */\n              dup5\n                /* \"#utility.yul\":2973:2979   */\n              dup3\n                /* \"#utility.yul\":2962:2971   */\n              dup6\n                /* \"#utility.yul\":2958:2980   */\n              add\n                /* \"#utility.yul\":2937:2990   */\n              tag_171\n              jump\t// in\n            tag_194:\n                /* \"#utility.yul\":2927:2990   */\n              swap2\n              pop\n                /* \"#utility.yul\":2883:3000   */\n              pop\n                /* \"#utility.yul\":2811:3007   */\n              swap3\n              swap2\n              pop\n              pop\n              jump\t// out\n                /* \"#utility.yul\":3013:3192   */\n            tag_195:\n                /* \"#utility.yul\":3082:3092   */\n              0x00\n                /* \"#utility.yul\":3103:3149   */\n              tag_197\n                /* \"#utility.yul\":3145:3148   */\n              dup4\n                /* \"#utility.yul\":3137:3143   */\n              dup4\n                /* \"#utility.yul\":3103:3149   */\n              tag_198\n              jump\t// in\n            tag_197:\n                /* \"#utility.yul\":3181:3185   */\n              0x20\n                /* \"#utility.yul\":3176:3179   */\n              dup4\n                /* \"#utility.yul\":3172:3186   */\n              add\n                /* \"#utility.yul\":3158:3186   */\n              swap1\n              pop\n                /* \"#utility.yul\":3093:3192   */\n              swap3\n              swap2\n              pop\n              pop\n              jump\t// out\n                /* \"#utility.yul\":3198:3306   */\n            tag_198:\n                /* \"#utility.yul\":3275:3299   */\n              tag_200\n                /* \"#utility.yul\":3293:3298   */\n              dup2\n                /* \"#utility.yul\":3275:3299   */\n              tag_201\n              jump\t// in\n            tag_200:\n                /* \"#utility.yul\":3270:3273   */\n              dup3\n                /* \"#utility.yul\":3263:3300   */\n              mstore\n                /* \"#utility.yul\":3253:3306   */\n              pop\n              pop\n              jump\t// out\n                /* \"#utility.yul\":3312:3430   */\n            tag_202:\n                /* \"#utility.yul\":3399:3423   */\n              tag_204\n                /* \"#utility.yul\":3417:3422   */\n              dup2\n                /* \"#utility.yul\":3399:3423   */\n              tag_201\n              jump\t// in\n            tag_204:\n                /* \"#utility.yul\":3394:3397   */\n              dup3\n                /* \"#utility.yul\":3387:3424   */\n              mstore\n                /* \"#utility.yul\":3377:3430   */\n              pop\n              pop\n              jump\t// out\n                /* \"#utility.yul\":3466:4198   */\n            tag_205:\n                /* \"#utility.yul\":3585:3588   */\n              0x00\n                /* \"#utility.yul\":3614:3668   */\n              tag_207\n                /* \"#utility.yul\":3662:3667   */\n              dup3\n                /* \"#utility.yul\":3614:3668   */\n              tag_208\n              jump\t// in\n            tag_207:\n                /* \"#utility.yul\":3684:3770   */\n              tag_209\n                /* \"#utility.yul\":3763:3769   */\n              dup2\n                /* \"#utility.yul\":3758:3761   */\n              dup6\n                /* \"#utility.yul\":3684:3770   */\n              tag_210\n              jump\t// in\n            tag_209:\n                /* \"#utility.yul\":3677:3770   */\n              swap4\n              pop\n                /* \"#utility.yul\":3794:3850   */\n              tag_211\n                /* \"#utility.yul\":3844:3849   */\n              dup4\n                /* \"#utility.yul\":3794:3850   */\n              tag_212\n              jump\t// in\n            tag_211:\n                /* \"#utility.yul\":3873:3880   */\n              dup1\n                /* \"#utility.yul\":3904:3905   */\n              0x00\n                /* \"#utility.yul\":3889:4173   */\n            tag_213:\n                /* \"#utility.yul\":3914:3920   */\n              dup4\n                /* \"#utility.yul\":3911:3912   */\n              dup2\n                /* \"#utility.yul\":3908:3921   */\n              lt\n                /* \"#utility.yul\":3889:4173   */\n              iszero\n              tag_215\n              jumpi\n                /* \"#utility.yul\":3990:3996   */\n              dup2\n                /* \"#utility.yul\":3984:3997   */\n              mload\n                /* \"#utility.yul\":4017:4080   */\n              tag_216\n                /* \"#utility.yul\":4076:4079   */\n              dup9\n                /* \"#utility.yul\":4061:4074   */\n              dup3\n                /* \"#utility.yul\":4017:4080   */\n              tag_195\n              jump\t// in\n            tag_216:\n                /* \"#utility.yul\":4010:4080   */\n              swap8\n              pop\n                /* \"#utility.yul\":4103:4163   */\n              tag_217\n                /* \"#utility.yul\":4156:4162   */\n              dup4\n                /* \"#utility.yul\":4103:4163   */\n              tag_218\n              jump\t// in\n            tag_217:\n                /* \"#utility.yul\":4093:4163   */\n              swap3\n              pop\n                /* \"#utility.yul\":3949:4173   */\n              pop\n                /* \"#utility.yul\":3936:3937   */\n              0x01\n                /* \"#utility.yul\":3933:3934   */\n              dup2\n                /* \"#utility.yul\":3929:3938   */\n              add\n                /* \"#utility.yul\":3924:3938   */\n              swap1\n              pop\n                /* \"#utility.yul\":3889:4173   */\n              jump(tag_213)\n            tag_215:\n                /* \"#utility.yul\":3893:3907   */\n              pop\n                /* \"#utility.yul\":4189:4192   */\n              dup6\n                /* \"#utility.yul\":4182:4192   */\n              swap4\n              pop\n                /* \"#utility.yul\":3590:4198   */\n              pop\n              pop\n              pop\n              swap3\n              swap2\n              pop\n              pop\n              jump\t// out\n                /* \"#utility.yul\":4204:4313   */\n            tag_219:\n                /* \"#utility.yul\":4285:4306   */\n              tag_221\n                /* \"#utility.yul\":4300:4305   */\n              dup2\n                /* \"#utility.yul\":4285:4306   */\n              tag_222\n              jump\t// in\n            tag_221:\n                /* \"#utility.yul\":4280:4283   */\n              dup3\n                /* \"#utility.yul\":4273:4307   */\n              mstore\n                /* \"#utility.yul\":4263:4313   */\n              pop\n              pop\n              jump\t// out\n                /* \"#utility.yul\":4341:5190   */\n            tag_223:\n                /* \"#utility.yul\":4446:4449   */\n              0x00\n                /* \"#utility.yul\":4483:4488   */\n              dup2\n                /* \"#utility.yul\":4477:4489   */\n              sload\n                /* \"#utility.yul\":4512:4548   */\n              tag_225\n                /* \"#utility.yul\":4538:4547   */\n              dup2\n                /* \"#utility.yul\":4512:4548   */\n              tag_78\n              jump\t// in\n            tag_225:\n                /* \"#utility.yul\":4564:4652   */\n              tag_226\n                /* \"#utility.yul\":4645:4651   */\n              dup2\n                /* \"#utility.yul\":4640:4643   */\n              dup7\n                /* \"#utility.yul\":4564:4652   */\n              tag_227\n              jump\t// in\n            tag_226:\n                /* \"#utility.yul\":4557:4652   */\n              swap5\n              pop\n                /* \"#utility.yul\":4683:4684   */\n              0x01\n                /* \"#utility.yul\":4672:4681   */\n              dup3\n                /* \"#utility.yul\":4668:4685   */\n              and\n                /* \"#utility.yul\":4699:4700   */\n              0x00\n                /* \"#utility.yul\":4694:4831   */\n              dup2\n              eq\n              tag_229\n              jumpi\n                /* \"#utility.yul\":4845:4846   */\n              0x01\n                /* \"#utility.yul\":4840:5184   */\n              dup2\n              eq\n              tag_230\n              jumpi\n                /* \"#utility.yul\":4661:5184   */\n              jump(tag_228)\n                /* \"#utility.yul\":4694:4831   */\n            tag_229:\n                /* \"#utility.yul\":4778:4782   */\n              0xff\n                /* \"#utility.yul\":4774:4783   */\n              not\n                /* \"#utility.yul\":4763:4772   */\n              dup4\n                /* \"#utility.yul\":4759:4784   */\n              and\n                /* \"#utility.yul\":4754:4757   */\n              dup7\n                /* \"#utility.yul\":4747:4785   */\n              mstore\n                /* \"#utility.yul\":4814:4820   */\n              dup2\n                /* \"#utility.yul\":4809:4812   */\n              dup7\n                /* \"#utility.yul\":4805:4821   */\n              add\n                /* \"#utility.yul\":4798:4821   */\n              swap4\n              pop\n                /* \"#utility.yul\":4694:4831   */\n              jump(tag_228)\n                /* \"#utility.yul\":4840:5184   */\n            tag_230:\n                /* \"#utility.yul\":4907:4948   */\n              tag_231\n                /* \"#utility.yul\":4942:4947   */\n              dup6\n                /* \"#utility.yul\":4907:4948   */\n              tag_232\n              jump\t// in\n            tag_231:\n                /* \"#utility.yul\":4970:4971   */\n              0x00\n                /* \"#utility.yul\":4984:5138   */\n            tag_233:\n                /* \"#utility.yul\":4998:5004   */\n              dup4\n                /* \"#utility.yul\":4995:4996   */\n              dup2\n                /* \"#utility.yul\":4992:5005   */\n              lt\n                /* \"#utility.yul\":4984:5138   */\n              iszero\n              tag_235\n              jumpi\n                /* \"#utility.yul\":5072:5079   */\n              dup2\n                /* \"#utility.yul\":5066:5080   */\n              sload\n                /* \"#utility.yul\":5062:5063   */\n              dup2\n                /* \"#utility.yul\":5057:5060   */\n              dup10\n                /* \"#utility.yul\":5053:5064   */\n              add\n                /* \"#utility.yul\":5046:5081   */\n              mstore\n                /* \"#utility.yul\":5122:5123   */\n              0x01\n                /* \"#utility.yul\":5113:5120   */\n              dup3\n                /* \"#utility.yul\":5109:5124   */\n              add\n                /* \"#utility.yul\":5098:5124   */\n              swap2\n              pop\n                /* \"#utility.yul\":5020:5024   */\n              0x20\n                /* \"#utility.yul\":5017:5018   */\n              dup2\n                /* \"#utility.yul\":5013:5025   */\n              add\n                /* \"#utility.yul\":5008:5025   */\n              swap1\n              pop\n                /* \"#utility.yul\":4984:5138   */\n              jump(tag_233)\n            tag_235:\n                /* \"#utility.yul\":5167:5173   */\n              dup4\n                /* \"#utility.yul\":5162:5165   */\n              dup9\n                /* \"#utility.yul\":5158:5174   */\n              add\n                /* \"#utility.yul\":5151:5174   */\n              swap6\n              pop\n                /* \"#utility.yul\":4847:5184   */\n              pop\n              pop\n                /* \"#utility.yul\":4661:5184   */\n            tag_228:\n              pop\n                /* \"#utility.yul\":4450:5190   */\n              pop\n              pop\n              swap3\n              swap2\n              pop\n              pop\n              jump\t// out\n                /* \"#utility.yul\":5196:5560   */\n            tag_236:\n                /* \"#utility.yul\":5284:5287   */\n              0x00\n                /* \"#utility.yul\":5312:5351   */\n              tag_238\n                /* \"#utility.yul\":5345:5350   */\n              dup3\n                /* \"#utility.yul\":5312:5351   */\n              tag_239\n              jump\t// in\n            tag_238:\n                /* \"#utility.yul\":5367:5438   */\n              tag_240\n                /* \"#utility.yul\":5431:5437   */\n              dup2\n                /* \"#utility.yul\":5426:5429   */\n              dup6\n                /* \"#utility.yul\":5367:5438   */\n              tag_241\n              jump\t// in\n            tag_240:\n                /* \"#utility.yul\":5360:5438   */\n              swap4\n              pop\n                /* \"#utility.yul\":5447:5499   */\n              tag_242\n                /* \"#utility.yul\":5492:5498   */\n              dup2\n                /* \"#utility.yul\":5487:5490   */\n              dup6\n                /* \"#utility.yul\":5480:5484   */\n              0x20\n                /* \"#utility.yul\":5473:5478   */\n              dup7\n                /* \"#utility.yul\":5469:5485   */\n              add\n                /* \"#utility.yul\":5447:5499   */\n              tag_243\n              jump\t// in\n            tag_242:\n                /* \"#utility.yul\":5524:5553   */\n              tag_244\n                /* \"#utility.yul\":5546:5552   */\n              dup2\n                /* \"#utility.yul\":5524:5553   */\n              tag_245\n              jump\t// in\n            tag_244:\n                /* \"#utility.yul\":5519:5522   */\n              dup5\n                /* \"#utility.yul\":5515:5554   */\n              add\n                /* \"#utility.yul\":5508:5554   */\n              swap2\n              pop\n                /* \"#utility.yul\":5288:5560   */\n              pop\n              swap3\n              swap2\n              pop\n              pop\n              jump\t// out\n                /* \"#utility.yul\":5566:5684   */\n            tag_246:\n                /* \"#utility.yul\":5653:5677   */\n              tag_248\n                /* \"#utility.yul\":5671:5676   */\n              dup2\n                /* \"#utility.yul\":5653:5677   */\n              tag_249\n              jump\t// in\n            tag_248:\n                /* \"#utility.yul\":5648:5651   */\n              dup3\n                /* \"#utility.yul\":5641:5678   */\n              mstore\n                /* \"#utility.yul\":5631:5684   */\n              pop\n              pop\n              jump\t// out\n                /* \"#utility.yul\":5690:5963   */\n            tag_93:\n                /* \"#utility.yul\":5821:5824   */\n              0x00\n                /* \"#utility.yul\":5843:5937   */\n              tag_251\n                /* \"#utility.yul\":5933:5936   */\n              dup3\n                /* \"#utility.yul\":5924:5930   */\n              dup5\n                /* \"#utility.yul\":5843:5937   */\n              tag_223\n              jump\t// in\n            tag_251:\n                /* \"#utility.yul\":5836:5937   */\n              swap2\n              pop\n                /* \"#utility.yul\":5954:5957   */\n              dup2\n                /* \"#utility.yul\":5947:5957   */\n              swap1\n              pop\n                /* \"#utility.yul\":5825:5963   */\n              swap3\n              swap2\n              pop\n              pop\n              jump\t// out\n                /* \"#utility.yul\":5969:6191   */\n            tag_51:\n                /* \"#utility.yul\":6062:6066   */\n              0x00\n                /* \"#utility.yul\":6100:6102   */\n              0x20\n                /* \"#utility.yul\":6089:6098   */\n              dup3\n                /* \"#utility.yul\":6085:6103   */\n              add\n                /* \"#utility.yul\":6077:6103   */\n              swap1\n              pop\n                /* \"#utility.yul\":6113:6184   */\n              tag_253\n                /* \"#utility.yul\":6181:6182   */\n              0x00\n                /* \"#utility.yul\":6170:6179   */\n              dup4\n                /* \"#utility.yul\":6166:6183   */\n              add\n                /* \"#utility.yul\":6157:6163   */\n              dup5\n                /* \"#utility.yul\":6113:6184   */\n              tag_202\n              jump\t// in\n            tag_253:\n                /* \"#utility.yul\":6067:6191   */\n              swap3\n              swap2\n              pop\n              pop\n              jump\t// out\n                /* \"#utility.yul\":6197:6570   */\n            tag_35:\n                /* \"#utility.yul\":6340:6344   */\n              0x00\n                /* \"#utility.yul\":6378:6380   */\n              0x20\n                /* \"#utility.yul\":6367:6376   */\n              dup3\n                /* \"#utility.yul\":6363:6381   */\n              add\n                /* \"#utility.yul\":6355:6381   */\n              swap1\n              pop\n                /* \"#utility.yul\":6427:6436   */\n              dup2\n                /* \"#utility.yul\":6421:6425   */\n              dup2\n                /* \"#utility.yul\":6417:6437   */\n              sub\n                /* \"#utility.yul\":6413:6414   */\n              0x00\n                /* \"#utility.yul\":6402:6411   */\n              dup4\n                /* \"#utility.yul\":6398:6415   */\n              add\n                /* \"#utility.yul\":6391:6438   */\n              mstore\n                /* \"#utility.yul\":6455:6563   */\n              tag_255\n                /* \"#utility.yul\":6558:6562   */\n              dup2\n                /* \"#utility.yul\":6549:6555   */\n              dup5\n                /* \"#utility.yul\":6455:6563   */\n              tag_205\n              jump\t// in\n            tag_255:\n                /* \"#utility.yul\":6447:6563   */\n              swap1\n              pop\n                /* \"#utility.yul\":6345:6570   */\n              swap3\n              swap2\n              pop\n              pop\n              jump\t// out\n                /* \"#utility.yul\":6576:6786   */\n            tag_55:\n                /* \"#utility.yul\":6663:6667   */\n              0x00\n                /* \"#utility.yul\":6701:6703   */\n              0x20\n                /* \"#utility.yul\":6690:6699   */\n              dup3\n                /* \"#utility.yul\":6686:6704   */\n              add\n                /* \"#utility.yul\":6678:6704   */\n              swap1\n              pop\n                /* \"#utility.yul\":6714:6779   */\n              tag_257\n                /* \"#utility.yul\":6776:6777   */\n              0x00\n                /* \"#utility.yul\":6765:6774   */\n              dup4\n                /* \"#utility.yul\":6761:6778   */\n              add\n                /* \"#utility.yul\":6752:6758   */\n              dup5\n                /* \"#utility.yul\":6714:6779   */\n              tag_219\n              jump\t// in\n            tag_257:\n                /* \"#utility.yul\":6668:6786   */\n              swap3\n              swap2\n              pop\n              pop\n              jump\t// out\n                /* \"#utility.yul\":6792:7105   */\n            tag_62:\n                /* \"#utility.yul\":6905:6909   */\n              0x00\n                /* \"#utility.yul\":6943:6945   */\n              0x20\n                /* \"#utility.yul\":6932:6941   */\n              dup3\n                /* \"#utility.yul\":6928:6946   */\n              add\n                /* \"#utility.yul\":6920:6946   */\n              swap1\n              pop\n                /* \"#utility.yul\":6992:7001   */\n              dup2\n                /* \"#utility.yul\":6986:6990   */\n              dup2\n                /* \"#utility.yul\":6982:7002   */\n              sub\n                /* \"#utility.yul\":6978:6979   */\n              0x00\n                /* \"#utility.yul\":6967:6976   */\n              dup4\n                /* \"#utility.yul\":6963:6980   */\n              add\n                /* \"#utility.yul\":6956:7003   */\n              mstore\n                /* \"#utility.yul\":7020:7098   */\n              tag_259\n                /* \"#utility.yul\":7093:7097   */\n              dup2\n                /* \"#utility.yul\":7084:7090   */\n              dup5\n                /* \"#utility.yul\":7020:7098   */\n              tag_236\n              jump\t// in\n            tag_259:\n                /* \"#utility.yul\":7012:7098   */\n              swap1\n              pop\n                /* \"#utility.yul\":6910:7105   */\n              swap3\n              swap2\n              pop\n              pop\n              jump\t// out\n                /* \"#utility.yul\":7111:7854   */\n            tag_43:\n                /* \"#utility.yul\":7330:7334   */\n              0x00\n                /* \"#utility.yul\":7368:7371   */\n              0xa0\n                /* \"#utility.yul\":7357:7366   */\n              dup3\n                /* \"#utility.yul\":7353:7372   */\n              add\n                /* \"#utility.yul\":7345:7372   */\n              swap1\n              pop\n                /* \"#utility.yul\":7418:7427   */\n              dup2\n                /* \"#utility.yul\":7412:7416   */\n              dup2\n                /* \"#utility.yul\":7408:7428   */\n              sub\n                /* \"#utility.yul\":7404:7405   */\n              0x00\n                /* \"#utility.yul\":7393:7402   */\n              dup4\n                /* \"#utility.yul\":7389:7406   */\n              add\n                /* \"#utility.yul\":7382:7429   */\n              mstore\n                /* \"#utility.yul\":7446:7524   */\n              tag_261\n                /* \"#utility.yul\":7519:7523   */\n              dup2\n                /* \"#utility.yul\":7510:7516   */\n              dup9\n                /* \"#utility.yul\":7446:7524   */\n              tag_236\n              jump\t// in\n            tag_261:\n                /* \"#utility.yul\":7438:7524   */\n              swap1\n              pop\n                /* \"#utility.yul\":7534:7606   */\n              tag_262\n                /* \"#utility.yul\":7602:7604   */\n              0x20\n                /* \"#utility.yul\":7591:7600   */\n              dup4\n                /* \"#utility.yul\":7587:7605   */\n              add\n                /* \"#utility.yul\":7578:7584   */\n              dup8\n                /* \"#utility.yul\":7534:7606   */\n              tag_202\n              jump\t// in\n            tag_262:\n                /* \"#utility.yul\":7616:7688   */\n              tag_263\n                /* \"#utility.yul\":7684:7686   */\n              0x40\n                /* \"#utility.yul\":7673:7682   */\n              dup4\n                /* \"#utility.yul\":7669:7687   */\n              add\n                /* \"#utility.yul\":7660:7666   */\n              dup7\n                /* \"#utility.yul\":7616:7688   */\n              tag_246\n              jump\t// in\n            tag_263:\n                /* \"#utility.yul\":7698:7770   */\n              tag_264\n                /* \"#utility.yul\":7766:7768   */\n              0x60\n                /* \"#utility.yul\":7755:7764   */\n              dup4\n                /* \"#utility.yul\":7751:7769   */\n              add\n                /* \"#utility.yul\":7742:7748   */\n              dup6\n                /* \"#utility.yul\":7698:7770   */\n              tag_246\n              jump\t// in\n            tag_264:\n                /* \"#utility.yul\":7780:7847   */\n              tag_265\n                /* \"#utility.yul\":7842:7845   */\n              0x80\n                /* \"#utility.yul\":7831:7840   */\n              dup4\n                /* \"#utility.yul\":7827:7846   */\n              add\n                /* \"#utility.yul\":7818:7824   */\n              dup5\n                /* \"#utility.yul\":7780:7847   */\n              tag_219\n              jump\t// in\n            tag_265:\n                /* \"#utility.yul\":7335:7854   */\n              swap7\n              swap6\n              pop\n              pop\n              pop\n              pop\n              pop\n              pop\n              jump\t// out\n                /* \"#utility.yul\":7860:8674   */\n            tag_71:\n                /* \"#utility.yul\":8091:8095   */\n              0x00\n                /* \"#utility.yul\":8129:8132   */\n              0x80\n                /* \"#utility.yul\":8118:8127   */\n              dup3\n                /* \"#utility.yul\":8114:8133   */\n              add\n                /* \"#utility.yul\":8106:8133   */\n              swap1\n              pop\n                /* \"#utility.yul\":8179:8188   */\n              dup2\n                /* \"#utility.yul\":8173:8177   */\n              dup2\n                /* \"#utility.yul\":8169:8189   */\n              sub\n                /* \"#utility.yul\":8165:8166   */\n              0x00\n                /* \"#utility.yul\":8154:8163   */\n              dup4\n                /* \"#utility.yul\":8150:8167   */\n              add\n                /* \"#utility.yul\":8143:8190   */\n              mstore\n                /* \"#utility.yul\":8207:8285   */\n              tag_267\n                /* \"#utility.yul\":8280:8284   */\n              dup2\n                /* \"#utility.yul\":8271:8277   */\n              dup8\n                /* \"#utility.yul\":8207:8285   */\n              tag_236\n              jump\t// in\n            tag_267:\n                /* \"#utility.yul\":8199:8285   */\n              swap1\n              pop\n                /* \"#utility.yul\":8332:8341   */\n              dup2\n                /* \"#utility.yul\":8326:8330   */\n              dup2\n                /* \"#utility.yul\":8322:8342   */\n              sub\n                /* \"#utility.yul\":8317:8319   */\n              0x20\n                /* \"#utility.yul\":8306:8315   */\n              dup4\n                /* \"#utility.yul\":8302:8320   */\n              add\n                /* \"#utility.yul\":8295:8343   */\n              mstore\n                /* \"#utility.yul\":8360:8438   */\n              tag_268\n                /* \"#utility.yul\":8433:8437   */\n              dup2\n                /* \"#utility.yul\":8424:8430   */\n              dup7\n                /* \"#utility.yul\":8360:8438   */\n              tag_236\n              jump\t// in\n            tag_268:\n                /* \"#utility.yul\":8352:8438   */\n              swap1\n              pop\n                /* \"#utility.yul\":8485:8494   */\n              dup2\n                /* \"#utility.yul\":8479:8483   */\n              dup2\n                /* \"#utility.yul\":8475:8495   */\n              sub\n                /* \"#utility.yul\":8470:8472   */\n              0x40\n                /* \"#utility.yul\":8459:8468   */\n              dup4\n                /* \"#utility.yul\":8455:8473   */\n              add\n                /* \"#utility.yul\":8448:8496   */\n              mstore\n                /* \"#utility.yul\":8513:8591   */\n              tag_269\n                /* \"#utility.yul\":8586:8590   */\n              dup2\n                /* \"#utility.yul\":8577:8583   */\n              dup6\n                /* \"#utility.yul\":8513:8591   */\n              tag_236\n              jump\t// in\n            tag_269:\n                /* \"#utility.yul\":8505:8591   */\n              swap1\n              pop\n                /* \"#utility.yul\":8601:8667   */\n              tag_270\n                /* \"#utility.yul\":8663:8665   */\n              0x60\n                /* \"#utility.yul\":8652:8661   */\n              dup4\n                /* \"#utility.yul\":8648:8666   */\n              add\n                /* \"#utility.yul\":8639:8645   */\n              dup5\n                /* \"#utility.yul\":8601:8667   */\n              tag_219\n              jump\t// in\n            tag_270:\n                /* \"#utility.yul\":8096:8674   */\n              swap6\n              swap5\n              pop\n              pop\n              pop\n              pop\n              pop\n              jump\t// out\n                /* \"#utility.yul\":8680:9304   */\n            tag_31:\n                /* \"#utility.yul\":8869:8873   */\n              0x00\n                /* \"#utility.yul\":8907:8909   */\n              0x60\n                /* \"#utility.yul\":8896:8905   */\n              dup3\n                /* \"#utility.yul\":8892:8910   */\n              add\n                /* \"#utility.yul\":8884:8910   */\n              swap1\n              pop\n                /* \"#utility.yul\":8956:8965   */\n              dup2\n                /* \"#utility.yul\":8950:8954   */\n              dup2\n                /* \"#utility.yul\":8946:8966   */\n              sub\n                /* \"#utility.yul\":8942:8943   */\n              0x00\n                /* \"#utility.yul\":8931:8940   */\n              dup4\n                /* \"#utility.yul\":8927:8944   */\n              add\n                /* \"#utility.yul\":8920:8967   */\n              mstore\n                /* \"#utility.yul\":8984:9062   */\n              tag_272\n                /* \"#utility.yul\":9057:9061   */\n              dup2\n                /* \"#utility.yul\":9048:9054   */\n              dup7\n                /* \"#utility.yul\":8984:9062   */\n              tag_236\n              jump\t// in\n            tag_272:\n                /* \"#utility.yul\":8976:9062   */\n              swap1\n              pop\n                /* \"#utility.yul\":9109:9118   */\n              dup2\n                /* \"#utility.yul\":9103:9107   */\n              dup2\n                /* \"#utility.yul\":9099:9119   */\n              sub\n                /* \"#utility.yul\":9094:9096   */\n              0x20\n                /* \"#utility.yul\":9083:9092   */\n              dup4\n                /* \"#utility.yul\":9079:9097   */\n              add\n                /* \"#utility.yul\":9072:9120   */\n              mstore\n                /* \"#utility.yul\":9137:9215   */\n              tag_273\n                /* \"#utility.yul\":9210:9214   */\n              dup2\n                /* \"#utility.yul\":9201:9207   */\n              dup6\n                /* \"#utility.yul\":9137:9215   */\n              tag_236\n              jump\t// in\n            tag_273:\n                /* \"#utility.yul\":9129:9215   */\n              swap1\n              pop\n                /* \"#utility.yul\":9225:9297   */\n              tag_274\n                /* \"#utility.yul\":9293:9295   */\n              0x40\n                /* \"#utility.yul\":9282:9291   */\n              dup4\n                /* \"#utility.yul\":9278:9296   */\n              add\n                /* \"#utility.yul\":9269:9275   */\n              dup5\n                /* \"#utility.yul\":9225:9297   */\n              tag_246\n              jump\t// in\n            tag_274:\n                /* \"#utility.yul\":8874:9304   */\n              swap5\n              swap4\n              pop\n              pop\n              pop\n              pop\n              jump\t// out\n                /* \"#utility.yul\":9310:9532   */\n            tag_25:\n                /* \"#utility.yul\":9403:9407   */\n              0x00\n                /* \"#utility.yul\":9441:9443   */\n              0x20\n                /* \"#utility.yul\":9430:9439   */\n              dup3\n                /* \"#utility.yul\":9426:9444   */\n              add\n                /* \"#utility.yul\":9418:9444   */\n              swap1\n              pop\n                /* \"#utility.yul\":9454:9525   */\n              tag_276\n                /* \"#utility.yul\":9522:9523   */\n              0x00\n                /* \"#utility.yul\":9511:9520   */\n              dup4\n                /* \"#utility.yul\":9507:9524   */\n              add\n                /* \"#utility.yul\":9498:9504   */\n              dup5\n                /* \"#utility.yul\":9454:9525   */\n              tag_246\n              jump\t// in\n            tag_276:\n                /* \"#utility.yul\":9408:9532   */\n              swap3\n              swap2\n              pop\n              pop\n              jump\t// out\n                /* \"#utility.yul\":9538:9667   */\n            tag_159:\n                /* \"#utility.yul\":9572:9578   */\n              0x00\n                /* \"#utility.yul\":9599:9619   */\n              tag_278\n              tag_279\n              jump\t// in\n            tag_278:\n                /* \"#utility.yul\":9589:9619   */\n              swap1\n              pop\n                /* \"#utility.yul\":9628:9661   */\n              tag_280\n                /* \"#utility.yul\":9656:9660   */\n              dup3\n                /* \"#utility.yul\":9648:9654   */\n              dup3\n                /* \"#utility.yul\":9628:9661   */\n              tag_281\n              jump\t// in\n            tag_280:\n                /* \"#utility.yul\":9579:9667   */\n              swap2\n              swap1\n              pop\n              jump\t// out\n                /* \"#utility.yul\":9673:9748   */\n            tag_279:\n                /* \"#utility.yul\":9706:9712   */\n              0x00\n                /* \"#utility.yul\":9739:9741   */\n              0x40\n                /* \"#utility.yul\":9733:9742   */\n              mload\n                /* \"#utility.yul\":9723:9742   */\n              swap1\n              pop\n                /* \"#utility.yul\":9713:9748   */\n              swap1\n              jump\t// out\n                /* \"#utility.yul\":9754:10062   */\n            tag_158:\n                /* \"#utility.yul\":9816:9820   */\n              0x00\n                /* \"#utility.yul\":9906:9924   */\n              0xffffffffffffffff\n                /* \"#utility.yul\":9898:9904   */\n              dup3\n                /* \"#utility.yul\":9895:9925   */\n              gt\n                /* \"#utility.yul\":9892:9894   */\n              iszero\n              tag_284\n              jumpi\n                /* \"#utility.yul\":9928:9946   */\n              tag_285\n              tag_286\n              jump\t// in\n            tag_285:\n                /* \"#utility.yul\":9892:9894   */\n            tag_284:\n                /* \"#utility.yul\":9966:9995   */\n              tag_287\n                /* \"#utility.yul\":9988:9994   */\n              dup3\n                /* \"#utility.yul\":9966:9995   */\n              tag_245\n              jump\t// in\n            tag_287:\n                /* \"#utility.yul\":9958:9995   */\n              swap1\n              pop\n                /* \"#utility.yul\":10050:10054   */\n              0x20\n                /* \"#utility.yul\":10044:10048   */\n              dup2\n                /* \"#utility.yul\":10040:10055   */\n              add\n                /* \"#utility.yul\":10032:10055   */\n              swap1\n              pop\n                /* \"#utility.yul\":9821:10062   */\n              swap2\n              swap1\n              pop\n              jump\t// out\n                /* \"#utility.yul\":10068:10200   */\n            tag_212:\n                /* \"#utility.yul\":10135:10139   */\n              0x00\n                /* \"#utility.yul\":10158:10161   */\n              dup2\n                /* \"#utility.yul\":10150:10161   */\n              swap1\n              pop\n                /* \"#utility.yul\":10188:10192   */\n              0x20\n                /* \"#utility.yul\":10183:10186   */\n              dup3\n                /* \"#utility.yul\":10179:10193   */\n              add\n                /* \"#utility.yul\":10171:10193   */\n              swap1\n              pop\n                /* \"#utility.yul\":10140:10200   */\n              swap2\n              swap1\n              pop\n              jump\t// out\n                /* \"#utility.yul\":10206:10350   */\n            tag_232:\n                /* \"#utility.yul\":10258:10262   */\n              0x00\n                /* \"#utility.yul\":10281:10284   */\n              dup2\n                /* \"#utility.yul\":10273:10284   */\n              swap1\n              pop\n                /* \"#utility.yul\":10304:10307   */\n              dup2\n                /* \"#utility.yul\":10301:10302   */\n              0x00\n                /* \"#utility.yul\":10294:10308   */\n              mstore\n                /* \"#utility.yul\":10338:10342   */\n              0x20\n                /* \"#utility.yul\":10335:10336   */\n              0x00\n                /* \"#utility.yul\":10325:10343   */\n              keccak256\n                /* \"#utility.yul\":10317:10343   */\n              swap1\n              pop\n                /* \"#utility.yul\":10263:10350   */\n              swap2\n              swap1\n              pop\n              jump\t// out\n                /* \"#utility.yul\":10356:10470   */\n            tag_208:\n                /* \"#utility.yul\":10423:10429   */\n              0x00\n                /* \"#utility.yul\":10457:10462   */\n              dup2\n                /* \"#utility.yul\":10451:10463   */\n              mload\n                /* \"#utility.yul\":10441:10463   */\n              swap1\n              pop\n                /* \"#utility.yul\":10430:10470   */\n              swap2\n              swap1\n              pop\n              jump\t// out\n                /* \"#utility.yul\":10476:10575   */\n            tag_239:\n                /* \"#utility.yul\":10528:10534   */\n              0x00\n                /* \"#utility.yul\":10562:10567   */\n              dup2\n                /* \"#utility.yul\":10556:10568   */\n              mload\n                /* \"#utility.yul\":10546:10568   */\n              swap1\n              pop\n                /* \"#utility.yul\":10535:10575   */\n              swap2\n              swap1\n              pop\n              jump\t// out\n                /* \"#utility.yul\":10581:10694   */\n            tag_218:\n                /* \"#utility.yul\":10651:10655   */\n              0x00\n                /* \"#utility.yul\":10683:10687   */\n              0x20\n                /* \"#utility.yul\":10678:10681   */\n              dup3\n                /* \"#utility.yul\":10674:10688   */\n              add\n                /* \"#utility.yul\":10666:10688   */\n              swap1\n              pop\n                /* \"#utility.yul\":10656:10694   */\n              swap2\n              swap1\n              pop\n              jump\t// out\n                /* \"#utility.yul\":10700:10884   */\n            tag_210:\n                /* \"#utility.yul\":10799:10810   */\n              0x00\n                /* \"#utility.yul\":10833:10839   */\n              dup3\n                /* \"#utility.yul\":10828:10831   */\n              dup3\n                /* \"#utility.yul\":10821:10840   */\n              mstore\n                /* \"#utility.yul\":10873:10877   */\n              0x20\n                /* \"#utility.yul\":10868:10871   */\n              dup3\n                /* \"#utility.yul\":10864:10878   */\n              add\n                /* \"#utility.yul\":10849:10878   */\n              swap1\n              pop\n                /* \"#utility.yul\":10811:10884   */\n              swap3\n              swap2\n              pop\n              pop\n              jump\t// out\n                /* \"#utility.yul\":10890:11037   */\n            tag_227:\n                /* \"#utility.yul\":10991:11002   */\n              0x00\n                /* \"#utility.yul\":11028:11031   */\n              dup2\n                /* \"#utility.yul\":11013:11031   */\n              swap1\n              pop\n                /* \"#utility.yul\":11003:11037   */\n              swap3\n              swap2\n              pop\n              pop\n              jump\t// out\n                /* \"#utility.yul\":11043:11212   */\n            tag_241:\n                /* \"#utility.yul\":11127:11138   */\n              0x00\n                /* \"#utility.yul\":11161:11167   */\n              dup3\n                /* \"#utility.yul\":11156:11159   */\n              dup3\n                /* \"#utility.yul\":11149:11168   */\n              mstore\n                /* \"#utility.yul\":11201:11205   */\n              0x20\n                /* \"#utility.yul\":11196:11199   */\n              dup3\n                /* \"#utility.yul\":11192:11206   */\n              add\n                /* \"#utility.yul\":11177:11206   */\n              swap1\n              pop\n                /* \"#utility.yul\":11139:11212   */\n              swap3\n              swap2\n              pop\n              pop\n              jump\t// out\n                /* \"#utility.yul\":11218:11314   */\n            tag_201:\n                /* \"#utility.yul\":11255:11262   */\n              0x00\n                /* \"#utility.yul\":11284:11308   */\n              tag_297\n                /* \"#utility.yul\":11302:11307   */\n              dup3\n                /* \"#utility.yul\":11284:11308   */\n              tag_298\n              jump\t// in\n            tag_297:\n                /* \"#utility.yul\":11273:11308   */\n              swap1\n              pop\n                /* \"#utility.yul\":11263:11314   */\n              swap2\n              swap1\n              pop\n              jump\t// out\n                /* \"#utility.yul\":11320:11410   */\n            tag_222:\n                /* \"#utility.yul\":11354:11361   */\n              0x00\n                /* \"#utility.yul\":11397:11402   */\n              dup2\n                /* \"#utility.yul\":11390:11403   */\n              iszero\n                /* \"#utility.yul\":11383:11404   */\n              iszero\n                /* \"#utility.yul\":11372:11404   */\n              swap1\n              pop\n                /* \"#utility.yul\":11362:11410   */\n              swap2\n              swap1\n              pop\n              jump\t// out\n                /* \"#utility.yul\":11416:11542   */\n            tag_298:\n                /* \"#utility.yul\":11453:11460   */\n              0x00\n                /* \"#utility.yul\":11493:11535   */\n              0xffffffffffffffffffffffffffffffffffffffff\n                /* \"#utility.yul\":11486:11491   */\n              dup3\n                /* \"#utility.yul\":11482:11536   */\n              and\n                /* \"#utility.yul\":11471:11536   */\n              swap1\n              pop\n                /* \"#utility.yul\":11461:11542   */\n              swap2\n              swap1\n              pop\n              jump\t// out\n                /* \"#utility.yul\":11548:11625   */\n            tag_249:\n                /* \"#utility.yul\":11585:11592   */\n              0x00\n                /* \"#utility.yul\":11614:11619   */\n              dup2\n                /* \"#utility.yul\":11603:11619   */\n              swap1\n              pop\n                /* \"#utility.yul\":11593:11625   */\n              swap2\n              swap1\n              pop\n              jump\t// out\n                /* \"#utility.yul\":11631:11785   */\n            tag_162:\n                /* \"#utility.yul\":11715:11721   */\n              dup3\n                /* \"#utility.yul\":11710:11713   */\n              dup2\n                /* \"#utility.yul\":11705:11708   */\n              dup4\n                /* \"#utility.yul\":11692:11722   */\n              calldatacopy\n                /* \"#utility.yul\":11777:11778   */\n              0x00\n                /* \"#utility.yul\":11768:11774   */\n              dup4\n                /* \"#utility.yul\":11763:11766   */\n              dup4\n                /* \"#utility.yul\":11759:11775   */\n              add\n                /* \"#utility.yul\":11752:11779   */\n              mstore\n                /* \"#utility.yul\":11682:11785   */\n              pop\n              pop\n              pop\n              jump\t// out\n                /* \"#utility.yul\":11791:12098   */\n            tag_243:\n                /* \"#utility.yul\":11859:11860   */\n              0x00\n                /* \"#utility.yul\":11869:11982   */\n            tag_304:\n                /* \"#utility.yul\":11883:11889   */\n              dup4\n                /* \"#utility.yul\":11880:11881   */\n              dup2\n                /* \"#utility.yul\":11877:11890   */\n              lt\n                /* \"#utility.yul\":11869:11982   */\n              iszero\n              tag_306\n              jumpi\n                /* \"#utility.yul\":11968:11969   */\n              dup1\n                /* \"#utility.yul\":11963:11966   */\n              dup3\n                /* \"#utility.yul\":11959:11970   */\n              add\n                /* \"#utility.yul\":11953:11971   */\n              mload\n                /* \"#utility.yul\":11949:11950   */\n              dup2\n                /* \"#utility.yul\":11944:11947   */\n              dup5\n                /* \"#utility.yul\":11940:11951   */\n              add\n                /* \"#utility.yul\":11933:11972   */\n              mstore\n                /* \"#utility.yul\":11905:11907   */\n              0x20\n                /* \"#utility.yul\":11902:11903   */\n              dup2\n                /* \"#utility.yul\":11898:11908   */\n              add\n                /* \"#utility.yul\":11893:11908   */\n              swap1\n              pop\n                /* \"#utility.yul\":11869:11982   */\n              jump(tag_304)\n            tag_306:\n                /* \"#utility.yul\":12000:12006   */\n              dup4\n                /* \"#utility.yul\":11997:11998   */\n              dup2\n                /* \"#utility.yul\":11994:12007   */\n              gt\n                /* \"#utility.yul\":11991:11993   */\n              iszero\n              tag_307\n              jumpi\n                /* \"#utility.yul\":12080:12081   */\n              0x00\n                /* \"#utility.yul\":12071:12077   */\n              dup5\n                /* \"#utility.yul\":12066:12069   */\n              dup5\n                /* \"#utility.yul\":12062:12078   */\n              add\n                /* \"#utility.yul\":12055:12082   */\n              mstore\n                /* \"#utility.yul\":11991:11993   */\n            tag_307:\n                /* \"#utility.yul\":11840:12098   */\n              pop\n              pop\n              pop\n              pop\n              jump\t// out\n                /* \"#utility.yul\":12104:12424   */\n            tag_78:\n                /* \"#utility.yul\":12148:12154   */\n              0x00\n                /* \"#utility.yul\":12185:12186   */\n              0x02\n                /* \"#utility.yul\":12179:12183   */\n              dup3\n                /* \"#utility.yul\":12175:12187   */\n              div\n                /* \"#utility.yul\":12165:12187   */\n              swap1\n              pop\n                /* \"#utility.yul\":12232:12233   */\n              0x01\n                /* \"#utility.yul\":12226:12230   */\n              dup3\n                /* \"#utility.yul\":12222:12234   */\n              and\n                /* \"#utility.yul\":12253:12271   */\n              dup1\n                /* \"#utility.yul\":12243:12245   */\n              tag_309\n              jumpi\n                /* \"#utility.yul\":12309:12313   */\n              0x7f\n                /* \"#utility.yul\":12301:12307   */\n              dup3\n                /* \"#utility.yul\":12297:12314   */\n              and\n                /* \"#utility.yul\":12287:12314   */\n              swap2\n              pop\n                /* \"#utility.yul\":12243:12245   */\n            tag_309:\n                /* \"#utility.yul\":12371:12373   */\n              0x20\n                /* \"#utility.yul\":12363:12369   */\n              dup3\n                /* \"#utility.yul\":12360:12374   */\n              lt\n                /* \"#utility.yul\":12340:12358   */\n              dup2\n                /* \"#utility.yul\":12337:12375   */\n              eq\n                /* \"#utility.yul\":12334:12336   */\n              iszero\n              tag_310\n              jumpi\n                /* \"#utility.yul\":12390:12408   */\n              tag_311\n              tag_312\n              jump\t// in\n            tag_311:\n                /* \"#utility.yul\":12334:12336   */\n            tag_310:\n                /* \"#utility.yul\":12155:12424   */\n              pop\n              swap2\n              swap1\n              pop\n              jump\t// out\n                /* \"#utility.yul\":12430:12711   */\n            tag_281:\n                /* \"#utility.yul\":12513:12540   */\n              tag_314\n                /* \"#utility.yul\":12535:12539   */\n              dup3\n                /* \"#utility.yul\":12513:12540   */\n              tag_245\n              jump\t// in\n            tag_314:\n                /* \"#utility.yul\":12505:12511   */\n              dup2\n                /* \"#utility.yul\":12501:12541   */\n              add\n                /* \"#utility.yul\":12643:12649   */\n              dup2\n                /* \"#utility.yul\":12631:12641   */\n              dup2\n                /* \"#utility.yul\":12628:12650   */\n              lt\n                /* \"#utility.yul\":12607:12625   */\n              0xffffffffffffffff\n                /* \"#utility.yul\":12595:12605   */\n              dup3\n                /* \"#utility.yul\":12592:12626   */\n              gt\n                /* \"#utility.yul\":12589:12651   */\n              or\n                /* \"#utility.yul\":12586:12588   */\n              iszero\n              tag_315\n              jumpi\n                /* \"#utility.yul\":12654:12672   */\n              tag_316\n              tag_286\n              jump\t// in\n            tag_316:\n                /* \"#utility.yul\":12586:12588   */\n            tag_315:\n                /* \"#utility.yul\":12694:12704   */\n              dup1\n                /* \"#utility.yul\":12690:12692   */\n              0x40\n                /* \"#utility.yul\":12683:12705   */\n              mstore\n                /* \"#utility.yul\":12473:12711   */\n              pop\n              pop\n              pop\n              jump\t// out\n                /* \"#utility.yul\":12717:12950   */\n            tag_100:\n                /* \"#utility.yul\":12756:12759   */\n              0x00\n                /* \"#utility.yul\":12779:12803   */\n              tag_318\n                /* \"#utility.yul\":12797:12802   */\n              dup3\n                /* \"#utility.yul\":12779:12803   */\n              tag_249\n              jump\t// in\n            tag_318:\n                /* \"#utility.yul\":12770:12803   */\n              swap2\n              pop\n                /* \"#utility.yul\":12825:12891   */\n              0xffffffffffffffffffffffffffffffffffffffffffffffffffffffffffffffff\n                /* \"#utility.yul\":12818:12823   */\n              dup3\n                /* \"#utility.yul\":12815:12892   */\n              eq\n                /* \"#utility.yul\":12812:12814   */\n              iszero\n              tag_319\n              jumpi\n                /* \"#utility.yul\":12895:12913   */\n              tag_320\n              tag_321\n              jump\t// in\n            tag_320:\n                /* \"#utility.yul\":12812:12814   */\n            tag_319:\n                /* \"#utility.yul\":12942:12943   */\n              0x01\n                /* \"#utility.yul\":12935:12940   */\n              dup3\n                /* \"#utility.yul\":12931:12944   */\n              add\n                /* \"#utility.yul\":12924:12944   */\n              swap1\n              pop\n                /* \"#utility.yul\":12760:12950   */\n              swap2\n              swap1\n              pop\n              jump\t// out\n                /* \"#utility.yul\":12956:13136   */\n            tag_321:\n                /* \"#utility.yul\":13004:13081   */\n              0x4e487b7100000000000000000000000000000000000000000000000000000000\n                /* \"#utility.yul\":13001:13002   */\n              0x00\n                /* \"#utility.yul\":12994:13082   */\n              mstore\n                /* \"#utility.yul\":13101:13105   */\n              0x11\n                /* \"#utility.yul\":13098:13099   */\n              0x04\n                /* \"#utility.yul\":13091:13106   */\n              mstore\n                /* \"#utility.yul\":13125:13129   */\n              0x24\n                /* \"#utility.yul\":13122:13123   */\n              0x00\n                /* \"#utility.yul\":13115:13130   */\n              revert\n                /* \"#utility.yul\":13142:13322   */\n            tag_312:\n                /* \"#utility.yul\":13190:13267   */\n              0x4e487b7100000000000000000000000000000000000000000000000000000000\n                /* \"#utility.yul\":13187:13188   */\n              0x00\n                /* \"#utility.yul\":13180:13268   */\n              mstore\n                /* \"#utility.yul\":13287:13291   */\n              0x22\n                /* \"#utility.yul\":13284:13285   */\n              0x04\n                /* \"#utility.yul\":13277:13292   */\n              mstore\n                /* \"#utility.yul\":13311:13315   */\n              0x24\n                /* \"#utility.yul\":13308:13309   */\n              0x00\n                /* \"#utility.yul\":13301:13316   */\n              revert\n                /* \"#utility.yul\":13328:13508   */\n            tag_286:\n                /* \"#utility.yul\":13376:13453   */\n              0x4e487b7100000000000000000000000000000000000000000000000000000000\n                /* \"#utility.yul\":13373:13374   */\n              0x00\n                /* \"#utility.yul\":13366:13454   */\n              mstore\n                /* \"#utility.yul\":13473:13477   */\n              0x41\n                /* \"#utility.yul\":13470:13471   */\n              0x04\n                /* \"#utility.yul\":13463:13478   */\n              mstore\n                /* \"#utility.yul\":13497:13501   */\n              0x24\n                /* \"#utility.yul\":13494:13495   */\n              0x00\n                /* \"#utility.yul\":13487:13502   */\n              revert\n                /* \"#utility.yul\":13514:13616   */\n            tag_245:\n                /* \"#utility.yul\":13555:13561   */\n              0x00\n                /* \"#utility.yul\":13606:13608   */\n              0x1f\n                /* \"#utility.yul\":13602:13609   */\n              not\n                /* \"#utility.yul\":13597:13599   */\n              0x1f\n                /* \"#utility.yul\":13590:13595   */\n              dup4\n                /* \"#utility.yul\":13586:13600   */\n              add\n                /* \"#utility.yul\":13582:13610   */\n              and\n                /* \"#utility.yul\":13572:13610   */\n              swap1\n              pop\n                /* \"#utility.yul\":13562:13616   */\n              swap2\n              swap1\n              pop\n              jump\t// out\n                /* \"#utility.yul\":13622:13744   */\n            tag_166:\n                /* \"#utility.yul\":13695:13719   */\n              tag_327\n                /* \"#utility.yul\":13713:13718   */\n              dup2\n                /* \"#utility.yul\":13695:13719   */\n              tag_201\n              jump\t// in\n            tag_327:\n                /* \"#utility.yul\":13688:13693   */\n              dup2\n                /* \"#utility.yul\":13685:13720   */\n              eq\n                /* \"#utility.yul\":13675:13677   */\n              tag_328\n              jumpi\n                /* \"#utility.yul\":13734:13735   */\n              0x00\n                /* \"#utility.yul\":13731:13732   */\n              dup1\n                /* \"#utility.yul\":13724:13736   */\n              revert\n                /* \"#utility.yul\":13675:13677   */\n            tag_328:\n                /* \"#utility.yul\":13665:13744   */\n              pop\n              jump\t// out\n                /* \"#utility.yul\":13750:13872   */\n            tag_174:\n                /* \"#utility.yul\":13823:13847   */\n              tag_330\n                /* \"#utility.yul\":13841:13846   */\n              dup2\n                /* \"#utility.yul\":13823:13847   */\n              tag_249\n              jump\t// in\n            tag_330:\n                /* \"#utility.yul\":13816:13821   */\n              dup2\n                /* \"#utility.yul\":13813:13848   */\n              eq\n                /* \"#utility.yul\":13803:13805   */\n              tag_331\n              jumpi\n                /* \"#utility.yul\":13862:13863   */\n              0x00\n                /* \"#utility.yul\":13859:13860   */\n              dup1\n                /* \"#utility.yul\":13852:13864   */\n              revert\n                /* \"#utility.yul\":13803:13805   */\n            tag_331:\n                /* \"#utility.yul\":13793:13872   */\n              pop\n              jump\t// out\n\n            auxdata: 0xa26469706673582212206ec0cd62fdc7ae20225cd6957e20485f306240761dc823acd1ef75e0619c86da64736f6c63430008040033\n        }\n    }\n\n    auxdata: 0xa264697066735822122080b77b09f3610b1f6bd1f08090ca0e5862b022f72b786906bb51710a3ab3399a64736f6c63430008040033\n}\n","bytecode":{"linkReferences":{},"object":"608060405234801561001057600080fd5b50612004806100206000396000f3fe60806040523480156200001157600080fd5b5060043610620000465760003560e01c806326755cb9146200004b5780635e6fef01146200006b578063ca30659414620000a1575b600080fd5b620000696004803603810190620000639190620002d0565b620000c3565b005b62000089600480360381019062000083919062000315565b62000169565b60405162000098919062000428565b60405180910390f35b620000ab620001a9565b604051620000ba919062000445565b60405180910390f35b60008133604051620000d59062000239565b620000e292919062000469565b604051809103906000f080158015620000ff573d6000803e3d6000fd5b5090506000819080600181540180825580915050600190039060005260206000200160009091909190916101000a81548173ffffffffffffffffffffffffffffffffffffffff021916908373ffffffffffffffffffffffffffffffffffffffff1602179055505050565b600081815481106200017a57600080fd5b906000526020600020016000915054906101000a900473ffffffffffffffffffffffffffffffffffffffff1681565b606060008054806020026020016040519081016040528092919081815260200182805480156200022f57602002820191906000526020600020905b8160009054906101000a900473ffffffffffffffffffffffffffffffffffffffff1673ffffffffffffffffffffffffffffffffffffffff1681526020019060010190808311620001e4575b5050505050905090565b61196a806200066583390190565b60006200025e6200025884620004c6565b6200049d565b9050828152602081018484840111156200027757600080fd5b620002848482856200058f565b509392505050565b600082601f8301126200029e57600080fd5b8135620002b084826020860162000247565b91505092915050565b600081359050620002ca816200064a565b92915050565b600060208284031215620002e357600080fd5b600082013567ffffffffffffffff811115620002fe57600080fd5b6200030c848285016200028c565b91505092915050565b6000602082840312156200032857600080fd5b60006200033884828501620002b9565b91505092915050565b60006200034f83836200035b565b60208301905092915050565b620003668162000551565b82525050565b620003778162000551565b82525050565b60006200038a826200050c565b6200039681856200052f565b9350620003a383620004fc565b8060005b83811015620003da578151620003be888262000341565b9750620003cb8362000522565b925050600181019050620003a7565b5085935050505092915050565b6000620003f48262000517565b62000400818562000540565b9350620004128185602086016200059e565b6200041d8162000639565b840191505092915050565b60006020820190506200043f60008301846200036c565b92915050565b600060208201905081810360008301526200046181846200037d565b905092915050565b60006040820190508181036000830152620004858185620003e7565b90506200049660208301846200036c565b9392505050565b6000620004a9620004bc565b9050620004b78282620005d4565b919050565b6000604051905090565b600067ffffffffffffffff821115620004e457620004e36200060a565b5b620004ef8262000639565b9050602081019050919050565b6000819050602082019050919050565b600081519050919050565b600081519050919050565b6000602082019050919050565b600082825260208201905092915050565b600082825260208201905092915050565b60006200055e8262000565565b9050919050565b600073ffffffffffffffffffffffffffffffffffffffff82169050919050565b6000819050919050565b82818337600083830152505050565b60005b83811015620005be578082015181840152602081019050620005a1565b83811115620005ce576000848401525b50505050565b620005df8262000639565b810181811067ffffffffffffffff821117156200060157620006006200060a565b5b80604052505050565b7f4e487b7100000000000000000000000000000000000000000000000000000000600052604160045260246000fd5b6000601f19601f8301169050919050565b620006558162000585565b81146200066157600080fd5b5056fe60806040523480156200001157600080fd5b506040516200196a3803806200196a8339818101604052810190620000379190620001d2565b80600560006101000a81548173ffffffffffffffffffffffffffffffffffffffff021916908373ffffffffffffffffffffffffffffffffffffffff16021790555081600490805190602001906200009092919062000099565b505050620003ea565b828054620000a790620002f5565b90600052602060002090601f016020900481019282620000cb576000855562000117565b82601f10620000e657805160ff191683800117855562000117565b8280016001018555821562000117579182015b8281111562000116578251825591602001919060010190620000f9565b5b5090506200012691906200012a565b5090565b5b80821115620001455760008160009055506001016200012b565b5090565b6000620001606200015a8462000255565b6200022c565b9050828152602081018484840111156200017957600080fd5b62000186848285620002bf565b509392505050565b6000815190506200019f81620003d0565b92915050565b600082601f830112620001b757600080fd5b8151620001c984826020860162000149565b91505092915050565b60008060408385031215620001e657600080fd5b600083015167ffffffffffffffff8111156200020157600080fd5b6200020f85828601620001a5565b925050602062000222858286016200018e565b9150509250929050565b6000620002386200024b565b90506200024682826200032b565b919050565b6000604051905090565b600067ffffffffffffffff82111562000273576200027262000390565b5b6200027e82620003bf565b9050602081019050919050565b600062000298826200029f565b9050919050565b600073ffffffffffffffffffffffffffffffffffffffff82169050919050565b60005b83811015620002df578082015181840152602081019050620002c2565b83811115620002ef576000848401525b50505050565b600060028204905060018216806200030e57607f821691505b6020821081141562000325576200032462000361565b5b50919050565b6200033682620003bf565b810181811067ffffffffffffffff8211171562000358576200035762000390565b5b80604052505050565b7f4e487b7100000000000000000000000000000000000000000000000000000000600052602260045260246000fd5b7f4e487b7100000000000000000000000000000000000000000000000000000000600052604160045260246000fd5b6000601f19601f8301169050919050565b620003db816200028b565b8114620003e757600080fd5b50565b61157080620003fa6000396000f3fe608060405234801561001057600080fd5b50600436106100ea5760003560e01c80635750af771161008c57806385e8e7a71161006657806385e8e7a71461022d5780638fd820761461024b578063a3ec138d14610269578063aa9225561461029c576100ea565b80635750af77146101c357806368ac66dc146101f35780637f178f2e14610211576100ea565b8063369a5b34116100c8578063369a5b34146101495780633ec2a019146101675780634051ddac1461018357806342169e48146101a5576100ea565b80632260b98b146100ef5780632d35a8a2146100f95780633477ee2e14610117575b600080fd5b6100f76102b8565b005b6101016102e4565b60405161010e9190611252565b60405180910390f35b610131600480360381019061012c9190610f35565b6102ea565b6040516101409392919061120d565b60405180910390f35b610151610424565b60405161015e91906110fa565b60405180910390f35b610181600480360381019061017c9190610e9e565b6104b2565b005b61018b610628565b60405161019c959493929190611159565b60405180910390f35b6101ad610708565b6040516101ba9190611252565b60405180910390f35b6101dd60048036038101906101d89190610f35565b61070e565b6040516101ea91906110df565b60405180910390f35b6101fb61074d565b604051610208919061111c565b60405180910390f35b61022b60048036038101906102269190610f35565b610760565b005b610235610943565b6040516102429190611137565b60405180910390f35b6102536109d1565b60405161026091906110df565b60405180910390f35b610283600480360381019061027e9190610e09565b6109f7565b60405161029394939291906111b3565b60405180910390f35b6102b660048036038101906102b19190610e32565b610bcc565b005b600560149054906101000a900460ff1615600560146101000a81548160ff021916908315150217905550565b60035481565b600160205280600052604060002060009150905080600001805461030d906113c2565b80601f0160208091040260200160405190810160405280929190818152602001828054610339906113c2565b80156103865780601f1061035b57610100808354040283529160200191610386565b820191906000526020600020905b81548152906001019060200180831161036957829003601f168201915b50505050509080600101805461039b906113c2565b80601f01602080910402602001604051908101604052809291908181526020018280546103c7906113c2565b80156104145780601f106103e957610100808354040283529160200191610414565b820191906000526020600020905b8154815290600101906020018083116103f757829003601f168201915b5050505050908060020154905083565b606060068054806020026020016040519081016040528092919081815260200182805480156104a857602002820191906000526020600020905b8160009054906101000a900473ffffffffffffffffffffffffffffffffffffffff1673ffffffffffffffffffffffffffffffffffffffff168152602001906001019080831161045e575b5050505050905090565b600060405180602001604052806000815250905080805190602001206000803373ffffffffffffffffffffffffffffffffffffffff1673ffffffffffffffffffffffffffffffffffffffff16815260200190815260200160002060010160405161051c91906110c8565b60405180910390201461052e57600080fd5b6040518060800160405280858152602001848152602001838152602001600015158152506000803373ffffffffffffffffffffffffffffffffffffffff1673ffffffffffffffffffffffffffffffffffffffff16815260200190815260200160002060008201518160000190805190602001906105ac929190610cd4565b5060208201518160010190805190602001906105c9929190610cd4565b5060408201518160020190805190602001906105e6929190610cd4565b5060608201518160030160006101000a81548160ff0219169083151502179055509050506002600081548092919061061d90611425565b919050555050505050565b60606000806000806004600560009054906101000a900473ffffffffffffffffffffffffffffffffffffffff16600354600254600560149054906101000a900460ff16848054610677906113c2565b80601f01602080910402602001604051908101604052809291908181526020018280546106a3906113c2565b80156106f05780601f106106c5576101008083540402835291602001916106f0565b820191906000526020600020905b8154815290600101906020018083116106d357829003601f168201915b50505050509450945094509450945094509091929394565b60025481565b6006818154811061071e57600080fd5b906000526020600020016000915054906101000a900473ffffffffffffffffffffffffffffffffffffffff1681565b600560149054906101000a900460ff1681565b600560149054906101000a900460ff161561077a57600080fd5b600060405180602001604052806000815250905080805190602001206000803373ffffffffffffffffffffffffffffffffffffffff1673ffffffffffffffffffffffffffffffffffffffff1681526020019081526020016000206000016040516107e491906110c8565b604051809103902014156107f757600080fd5b600015156000803373ffffffffffffffffffffffffffffffffffffffff1673ffffffffffffffffffffffffffffffffffffffff16815260200190815260200160002060030160009054906101000a900460ff1615151461085657600080fd5b60016000838152602001908152602001600020600201600081548092919061087d90611425565b919050555060016000803373ffffffffffffffffffffffffffffffffffffffff1673ffffffffffffffffffffffffffffffffffffffff16815260200190815260200160002060030160006101000a81548160ff0219169083151502179055506006339080600181540180825580915050600190039060005260206000200160009091909190916101000a81548173ffffffffffffffffffffffffffffffffffffffff021916908373ffffffffffffffffffffffffffffffffffffffff1602179055505050565b60048054610950906113c2565b80601f016020809104026020016040519081016040528092919081815260200182805461097c906113c2565b80156109c95780601f1061099e576101008083540402835291602001916109c9565b820191906000526020600020905b8154815290600101906020018083116109ac57829003601f168201915b505050505081565b600560009054906101000a900473ffffffffffffffffffffffffffffffffffffffff1681565b6000602052806000526040600020600091509050806000018054610a1a906113c2565b80601f0160208091040260200160405190810160405280929190818152602001828054610a46906113c2565b8015610a935780601f10610a6857610100808354040283529160200191610a93565b820191906000526020600020905b815481529060010190602001808311610a7657829003601f168201915b505050505090806001018054610aa8906113c2565b80601f0160208091040260200160405190810160405280929190818152602001828054610ad4906113c2565b8015610b215780601f10610af657610100808354040283529160200191610b21565b820191906000526020600020905b815481529060010190602001808311610b0457829003601f168201915b505050505090806002018054610b36906113c2565b80601f0160208091040260200160405190810160405280929190818152602001828054610b62906113c2565b8015610baf5780601f10610b8457610100808354040283529160200191610baf565b820191906000526020600020905b815481529060010190602001808311610b9257829003601f168201915b5050505050908060030160009054906101000a900460ff16905084565b600560009054906101000a900473ffffffffffffffffffffffffffffffffffffffff1673ffffffffffffffffffffffffffffffffffffffff163373ffffffffffffffffffffffffffffffffffffffff1614610c2657600080fd5b600560149054906101000a900460ff1615610c4057600080fd5b60036000815480929190610c5390611425565b9190505550604051806060016040528083815260200182815260200160008152506001600060035481526020019081526020016000206000820151816000019080519060200190610ca5929190610cd4565b506020820151816001019080519060200190610cc2929190610cd4565b50604082015181600201559050505050565b828054610ce0906113c2565b90600052602060002090601f016020900481019282610d025760008555610d49565b82601f10610d1b57805160ff1916838001178555610d49565b82800160010185558215610d49579182015b82811115610d48578251825591602001919060010190610d2d565b5b509050610d569190610d5a565b5090565b5b80821115610d73576000816000905550600101610d5b565b5090565b6000610d8a610d8584611292565b61126d565b905082815260208101848484011115610da257600080fd5b610dad848285611380565b509392505050565b600081359050610dc48161150c565b92915050565b600082601f830112610ddb57600080fd5b8135610deb848260208601610d77565b91505092915050565b600081359050610e0381611523565b92915050565b600060208284031215610e1b57600080fd5b6000610e2984828501610db5565b91505092915050565b60008060408385031215610e4557600080fd5b600083013567ffffffffffffffff811115610e5f57600080fd5b610e6b85828601610dca565b925050602083013567ffffffffffffffff811115610e8857600080fd5b610e9485828601610dca565b9150509250929050565b600080600060608486031215610eb357600080fd5b600084013567ffffffffffffffff811115610ecd57600080fd5b610ed986828701610dca565b935050602084013567ffffffffffffffff811115610ef657600080fd5b610f0286828701610dca565b925050604084013567ffffffffffffffff811115610f1f57600080fd5b610f2b86828701610dca565b9150509250925092565b600060208284031215610f4757600080fd5b6000610f5584828501610df4565b91505092915050565b6000610f6a8383610f76565b60208301905092915050565b610f7f81611338565b82525050565b610f8e81611338565b82525050565b6000610f9f826112e8565b610fa9818561130b565b9350610fb4836112c3565b8060005b83811015610fe5578151610fcc8882610f5e565b9750610fd7836112fe565b925050600181019050610fb8565b5085935050505092915050565b610ffb8161134a565b82525050565b6000815461100e816113c2565b611018818661131c565b94506001821660008114611033576001811461104457611077565b60ff19831686528186019350611077565b61104d856112d3565b60005b8381101561106f57815481890152600182019150602081019050611050565b838801955050505b50505092915050565b600061108b826112f3565b6110958185611327565b93506110a581856020860161138f565b6110ae816114fb565b840191505092915050565b6110c281611376565b82525050565b60006110d48284611001565b915081905092915050565b60006020820190506110f46000830184610f85565b92915050565b600060208201905081810360008301526111148184610f94565b905092915050565b60006020820190506111316000830184610ff2565b92915050565b600060208201905081810360008301526111518184611080565b905092915050565b600060a08201905081810360008301526111738188611080565b90506111826020830187610f85565b61118f60408301866110b9565b61119c60608301856110b9565b6111a96080830184610ff2565b9695505050505050565b600060808201905081810360008301526111cd8187611080565b905081810360208301526111e18186611080565b905081810360408301526111f58185611080565b90506112046060830184610ff2565b95945050505050565b600060608201905081810360008301526112278186611080565b9050818103602083015261123b8185611080565b905061124a60408301846110b9565b949350505050565b600060208201905061126760008301846110b9565b92915050565b6000611277611288565b905061128382826113f4565b919050565b6000604051905090565b600067ffffffffffffffff8211156112ad576112ac6114cc565b5b6112b6826114fb565b9050602081019050919050565b6000819050602082019050919050565b60008190508160005260206000209050919050565b600081519050919050565b600081519050919050565b6000602082019050919050565b600082825260208201905092915050565b600081905092915050565b600082825260208201905092915050565b600061134382611356565b9050919050565b60008115159050919050565b600073ffffffffffffffffffffffffffffffffffffffff82169050919050565b6000819050919050565b82818337600083830152505050565b60005b838110156113ad578082015181840152602081019050611392565b838111156113bc576000848401525b50505050565b600060028204905060018216806113da57607f821691505b602082108114156113ee576113ed61149d565b5b50919050565b6113fd826114fb565b810181811067ffffffffffffffff8211171561141c5761141b6114cc565b5b80604052505050565b600061143082611376565b91507fffffffffffffffffffffffffffffffffffffffffffffffffffffffffffffffff8214156114635761146261146e565b5b600182019050919050565b7f4e487b7100000000000000000000000000000000000000000000000000000000600052601160045260246000fd5b7f4e487b7100000000000000000000000000000000000000000000000000000000600052602260045260246000fd5b7f4e487b7100000000000000000000000000000000000000000000000000000000600052604160045260246000fd5b6000601f19601f8301169050919050565b61151581611338565b811461152057600080fd5b50565b61152c81611376565b811461153757600080fd5b5056fea26469706673582212206ec0cd62fdc7ae20225cd6957e20485f306240761dc823acd1ef75e0619c86da64736f6c63430008040033a264697066735822122080b77b09f3610b1f6bd1f08090ca0e5862b022f72b786906bb51710a3ab3399a64736f6c63430008040033","opcodes":"PUSH1 0x80 PUSH1 0x40 MSTORE CALLVALUE DUP1 ISZERO PUSH2 0x10 JUMPI PUSH1 0x0 DUP1 REVERT JUMPDEST POP PUSH2 0x2004 DUP1 PUSH2 0x20 PUSH1 0x0 CODECOPY PUSH1 0x0 RETURN INVALID PUSH1 0x80 PUSH1 0x40 MSTORE CALLVALUE DUP1 ISZERO PUSH3 0x11 JUMPI PUSH1 0x0 DUP1 REVERT JUMPDEST POP PUSH1 0x4 CALLDATASIZE LT PUSH3 0x46 JUMPI PUSH1 0x0 CALLDATALOAD PUSH1 0xE0 SHR DUP1 PUSH4 0x26755CB9 EQ PUSH3 0x4B JUMPI DUP1 PUSH4 0x5E6FEF01 EQ PUSH3 0x6B JUMPI DUP1 PUSH4 0xCA306594 EQ PUSH3 0xA1 JUMPI JUMPDEST PUSH1 0x0 DUP1 REVERT JUMPDEST PUSH3 0x69 PUSH1 0x4 DUP1 CALLDATASIZE SUB DUP2 ADD SWAP1 PUSH3 0x63 SWAP2 SWAP1 PUSH3 0x2D0 JUMP JUMPDEST PUSH3 0xC3 JUMP JUMPDEST STOP JUMPDEST PUSH3 0x89 PUSH1 0x4 DUP1 CALLDATASIZE SUB DUP2 ADD SWAP1 PUSH3 0x83 SWAP2 SWAP1 PUSH3 0x315 JUMP JUMPDEST PUSH3 0x169 JUMP JUMPDEST PUSH1 0x40 MLOAD PUSH3 0x98 SWAP2 SWAP1 PUSH3 0x428 JUMP JUMPDEST PUSH1 0x40 MLOAD DUP1 SWAP2 SUB SWAP1 RETURN JUMPDEST PUSH3 0xAB PUSH3 0x1A9 JUMP JUMPDEST PUSH1 0x40 MLOAD PUSH3 0xBA SWAP2 SWAP1 PUSH3 0x445 JUMP JUMPDEST PUSH1 0x40 MLOAD DUP1 SWAP2 SUB SWAP1 RETURN JUMPDEST PUSH1 0x0 DUP2 CALLER PUSH1 0x40 MLOAD PUSH3 0xD5 SWAP1 PUSH3 0x239 JUMP JUMPDEST PUSH3 0xE2 SWAP3 SWAP2 SWAP1 PUSH3 0x469 JUMP JUMPDEST PUSH1 0x40 MLOAD DUP1 SWAP2 SUB SWAP1 PUSH1 0x0 CREATE DUP1 ISZERO DUP1 ISZERO PUSH3 0xFF JUMPI RETURNDATASIZE PUSH1 0x0 DUP1 RETURNDATACOPY RETURNDATASIZE PUSH1 0x0 REVERT JUMPDEST POP SWAP1 POP PUSH1 0x0 DUP2 SWAP1 DUP1 PUSH1 0x1 DUP2 SLOAD ADD DUP1 DUP3 SSTORE DUP1 SWAP2 POP POP PUSH1 0x1 SWAP1 SUB SWAP1 PUSH1 0x0 MSTORE PUSH1 0x20 PUSH1 0x0 KECCAK256 ADD PUSH1 0x0 SWAP1 SWAP2 SWAP1 SWAP2 SWAP1 SWAP2 PUSH2 0x100 EXP DUP2 SLOAD DUP2 PUSH20 0xFFFFFFFFFFFFFFFFFFFFFFFFFFFFFFFFFFFFFFFF MUL NOT AND SWAP1 DUP4 PUSH20 0xFFFFFFFFFFFFFFFFFFFFFFFFFFFFFFFFFFFFFFFF AND MUL OR SWAP1 SSTORE POP POP POP JUMP JUMPDEST PUSH1 0x0 DUP2 DUP2 SLOAD DUP2 LT PUSH3 0x17A JUMPI PUSH1 0x0 DUP1 REVERT JUMPDEST SWAP1 PUSH1 0x0 MSTORE PUSH1 0x20 PUSH1 0x0 KECCAK256 ADD PUSH1 0x0 SWAP2 POP SLOAD SWAP1 PUSH2 0x100 EXP SWAP1 DIV PUSH20 0xFFFFFFFFFFFFFFFFFFFFFFFFFFFFFFFFFFFFFFFF AND DUP2 JUMP JUMPDEST PUSH1 0x60 PUSH1 0x0 DUP1 SLOAD DUP1 PUSH1 0x20 MUL PUSH1 0x20 ADD PUSH1 0x40 MLOAD SWAP1 DUP2 ADD PUSH1 0x40 MSTORE DUP1 SWAP3 SWAP2 SWAP1 DUP2 DUP2 MSTORE PUSH1 0x20 ADD DUP3 DUP1 SLOAD DUP1 ISZERO PUSH3 0x22F JUMPI PUSH1 0x20 MUL DUP3 ADD SWAP2 SWAP1 PUSH1 0x0 MSTORE PUSH1 0x20 PUSH1 0x0 KECCAK256 SWAP1 JUMPDEST DUP2 PUSH1 0x0 SWAP1 SLOAD SWAP1 PUSH2 0x100 EXP SWAP1 DIV PUSH20 0xFFFFFFFFFFFFFFFFFFFFFFFFFFFFFFFFFFFFFFFF AND PUSH20 0xFFFFFFFFFFFFFFFFFFFFFFFFFFFFFFFFFFFFFFFF AND DUP2 MSTORE PUSH1 0x20 ADD SWAP1 PUSH1 0x1 ADD SWAP1 DUP1 DUP4 GT PUSH3 0x1E4 JUMPI JUMPDEST POP POP POP POP POP SWAP1 POP SWAP1 JUMP JUMPDEST PUSH2 0x196A DUP1 PUSH3 0x665 DUP4 CODECOPY ADD SWAP1 JUMP JUMPDEST PUSH1 0x0 PUSH3 0x25E PUSH3 0x258 DUP5 PUSH3 0x4C6 JUMP JUMPDEST PUSH3 0x49D JUMP JUMPDEST SWAP1 POP DUP3 DUP2 MSTORE PUSH1 0x20 DUP2 ADD DUP5 DUP5 DUP5 ADD GT ISZERO PUSH3 0x277 JUMPI PUSH1 0x0 DUP1 REVERT JUMPDEST PUSH3 0x284 DUP5 DUP3 DUP6 PUSH3 0x58F JUMP JUMPDEST POP SWAP4 SWAP3 POP POP POP JUMP JUMPDEST PUSH1 0x0 DUP3 PUSH1 0x1F DUP4 ADD SLT PUSH3 0x29E JUMPI PUSH1 0x0 DUP1 REVERT JUMPDEST DUP2 CALLDATALOAD PUSH3 0x2B0 DUP5 DUP3 PUSH1 0x20 DUP7 ADD PUSH3 0x247 JUMP JUMPDEST SWAP2 POP POP SWAP3 SWAP2 POP POP JUMP JUMPDEST PUSH1 0x0 DUP2 CALLDATALOAD SWAP1 POP PUSH3 0x2CA DUP2 PUSH3 0x64A JUMP JUMPDEST SWAP3 SWAP2 POP POP JUMP JUMPDEST PUSH1 0x0 PUSH1 0x20 DUP3 DUP5 SUB SLT ISZERO PUSH3 0x2E3 JUMPI PUSH1 0x0 DUP1 REVERT JUMPDEST PUSH1 0x0 DUP3 ADD CALLDATALOAD PUSH8 0xFFFFFFFFFFFFFFFF DUP2 GT ISZERO PUSH3 0x2FE JUMPI PUSH1 0x0 DUP1 REVERT JUMPDEST PUSH3 0x30C DUP5 DUP3 DUP6 ADD PUSH3 0x28C JUMP JUMPDEST SWAP2 POP POP SWAP3 SWAP2 POP POP JUMP JUMPDEST PUSH1 0x0 PUSH1 0x20 DUP3 DUP5 SUB SLT ISZERO PUSH3 0x328 JUMPI PUSH1 0x0 DUP1 REVERT JUMPDEST PUSH1 0x0 PUSH3 0x338 DUP5 DUP3 DUP6 ADD PUSH3 0x2B9 JUMP JUMPDEST SWAP2 POP POP SWAP3 SWAP2 POP POP JUMP JUMPDEST PUSH1 0x0 PUSH3 0x34F DUP4 DUP4 PUSH3 0x35B JUMP JUMPDEST PUSH1 0x20 DUP4 ADD SWAP1 POP SWAP3 SWAP2 POP POP JUMP JUMPDEST PUSH3 0x366 DUP2 PUSH3 0x551 JUMP JUMPDEST DUP3 MSTORE POP POP JUMP JUMPDEST PUSH3 0x377 DUP2 PUSH3 0x551 JUMP JUMPDEST DUP3 MSTORE POP POP JUMP JUMPDEST PUSH1 0x0 PUSH3 0x38A DUP3 PUSH3 0x50C JUMP JUMPDEST PUSH3 0x396 DUP2 DUP6 PUSH3 0x52F JUMP JUMPDEST SWAP4 POP PUSH3 0x3A3 DUP4 PUSH3 0x4FC JUMP JUMPDEST DUP1 PUSH1 0x0 JUMPDEST DUP4 DUP2 LT ISZERO PUSH3 0x3DA JUMPI DUP2 MLOAD PUSH3 0x3BE DUP9 DUP3 PUSH3 0x341 JUMP JUMPDEST SWAP8 POP PUSH3 0x3CB DUP4 PUSH3 0x522 JUMP JUMPDEST SWAP3 POP POP PUSH1 0x1 DUP2 ADD SWAP1 POP PUSH3 0x3A7 JUMP JUMPDEST POP DUP6 SWAP4 POP POP POP POP SWAP3 SWAP2 POP POP JUMP JUMPDEST PUSH1 0x0 PUSH3 0x3F4 DUP3 PUSH3 0x517 JUMP JUMPDEST PUSH3 0x400 DUP2 DUP6 PUSH3 0x540 JUMP JUMPDEST SWAP4 POP PUSH3 0x412 DUP2 DUP6 PUSH1 0x20 DUP7 ADD PUSH3 0x59E JUMP JUMPDEST PUSH3 0x41D DUP2 PUSH3 0x639 JUMP JUMPDEST DUP5 ADD SWAP2 POP POP SWAP3 SWAP2 POP POP JUMP JUMPDEST PUSH1 0x0 PUSH1 0x20 DUP3 ADD SWAP1 POP PUSH3 0x43F PUSH1 0x0 DUP4 ADD DUP5 PUSH3 0x36C JUMP JUMPDEST SWAP3 SWAP2 POP POP JUMP JUMPDEST PUSH1 0x0 PUSH1 0x20 DUP3 ADD SWAP1 POP DUP2 DUP2 SUB PUSH1 0x0 DUP4 ADD MSTORE PUSH3 0x461 DUP2 DUP5 PUSH3 0x37D JUMP JUMPDEST SWAP1 POP SWAP3 SWAP2 POP POP JUMP JUMPDEST PUSH1 0x0 PUSH1 0x40 DUP3 ADD SWAP1 POP DUP2 DUP2 SUB PUSH1 0x0 DUP4 ADD MSTORE PUSH3 0x485 DUP2 DUP6 PUSH3 0x3E7 JUMP JUMPDEST SWAP1 POP PUSH3 0x496 PUSH1 0x20 DUP4 ADD DUP5 PUSH3 0x36C JUMP JUMPDEST SWAP4 SWAP3 POP POP POP JUMP JUMPDEST PUSH1 0x0 PUSH3 0x4A9 PUSH3 0x4BC JUMP JUMPDEST SWAP1 POP PUSH3 0x4B7 DUP3 DUP3 PUSH3 0x5D4 JUMP JUMPDEST SWAP2 SWAP1 POP JUMP JUMPDEST PUSH1 0x0 PUSH1 0x40 MLOAD SWAP1 POP SWAP1 JUMP JUMPDEST PUSH1 0x0 PUSH8 0xFFFFFFFFFFFFFFFF DUP3 GT ISZERO PUSH3 0x4E4 JUMPI PUSH3 0x4E3 PUSH3 0x60A JUMP JUMPDEST JUMPDEST PUSH3 0x4EF DUP3 PUSH3 0x639 JUMP JUMPDEST SWAP1 POP PUSH1 0x20 DUP2 ADD SWAP1 POP SWAP2 SWAP1 POP JUMP JUMPDEST PUSH1 0x0 DUP2 SWAP1 POP PUSH1 0x20 DUP3 ADD SWAP1 POP SWAP2 SWAP1 POP JUMP JUMPDEST PUSH1 0x0 DUP2 MLOAD SWAP1 POP SWAP2 SWAP1 POP JUMP JUMPDEST PUSH1 0x0 DUP2 MLOAD SWAP1 POP SWAP2 SWAP1 POP JUMP JUMPDEST PUSH1 0x0 PUSH1 0x20 DUP3 ADD SWAP1 POP SWAP2 SWAP1 POP JUMP JUMPDEST PUSH1 0x0 DUP3 DUP3 MSTORE PUSH1 0x20 DUP3 ADD SWAP1 POP SWAP3 SWAP2 POP POP JUMP JUMPDEST PUSH1 0x0 DUP3 DUP3 MSTORE PUSH1 0x20 DUP3 ADD SWAP1 POP SWAP3 SWAP2 POP POP JUMP JUMPDEST PUSH1 0x0 PUSH3 0x55E DUP3 PUSH3 0x565 JUMP JUMPDEST SWAP1 POP SWAP2 SWAP1 POP JUMP JUMPDEST PUSH1 0x0 PUSH20 0xFFFFFFFFFFFFFFFFFFFFFFFFFFFFFFFFFFFFFFFF DUP3 AND SWAP1 POP SWAP2 SWAP1 POP JUMP JUMPDEST PUSH1 0x0 DUP2 SWAP1 POP SWAP2 SWAP1 POP JUMP JUMPDEST DUP3 DUP2 DUP4 CALLDATACOPY PUSH1 0x0 DUP4 DUP4 ADD MSTORE POP POP POP JUMP JUMPDEST PUSH1 0x0 JUMPDEST DUP4 DUP2 LT ISZERO PUSH3 0x5BE JUMPI DUP1 DUP3 ADD MLOAD DUP2 DUP5 ADD MSTORE PUSH1 0x20 DUP2 ADD SWAP1 POP PUSH3 0x5A1 JUMP JUMPDEST DUP4 DUP2 GT ISZERO PUSH3 0x5CE JUMPI PUSH1 0x0 DUP5 DUP5 ADD MSTORE JUMPDEST POP POP POP POP JUMP JUMPDEST PUSH3 0x5DF DUP3 PUSH3 0x639 JUMP JUMPDEST DUP2 ADD DUP2 DUP2 LT PUSH8 0xFFFFFFFFFFFFFFFF DUP3 GT OR ISZERO PUSH3 0x601 JUMPI PUSH3 0x600 PUSH3 0x60A JUMP JUMPDEST JUMPDEST DUP1 PUSH1 0x40 MSTORE POP POP POP JUMP JUMPDEST PUSH32 0x4E487B7100000000000000000000000000000000000000000000000000000000 PUSH1 0x0 MSTORE PUSH1 0x41 PUSH1 0x4 MSTORE PUSH1 0x24 PUSH1 0x0 REVERT JUMPDEST PUSH1 0x0 PUSH1 0x1F NOT PUSH1 0x1F DUP4 ADD AND SWAP1 POP SWAP2 SWAP1 POP JUMP JUMPDEST PUSH3 0x655 DUP2 PUSH3 0x585 JUMP JUMPDEST DUP2 EQ PUSH3 0x661 JUMPI PUSH1 0x0 DUP1 REVERT JUMPDEST POP JUMP INVALID PUSH1 0x80 PUSH1 0x40 MSTORE CALLVALUE DUP1 ISZERO PUSH3 0x11 JUMPI PUSH1 0x0 DUP1 REVERT JUMPDEST POP PUSH1 0x40 MLOAD PUSH3 0x196A CODESIZE SUB DUP1 PUSH3 0x196A DUP4 CODECOPY DUP2 DUP2 ADD PUSH1 0x40 MSTORE DUP2 ADD SWAP1 PUSH3 0x37 SWAP2 SWAP1 PUSH3 0x1D2 JUMP JUMPDEST DUP1 PUSH1 0x5 PUSH1 0x0 PUSH2 0x100 EXP DUP2 SLOAD DUP2 PUSH20 0xFFFFFFFFFFFFFFFFFFFFFFFFFFFFFFFFFFFFFFFF MUL NOT AND SWAP1 DUP4 PUSH20 0xFFFFFFFFFFFFFFFFFFFFFFFFFFFFFFFFFFFFFFFF AND MUL OR SWAP1 SSTORE POP DUP2 PUSH1 0x4 SWAP1 DUP1 MLOAD SWAP1 PUSH1 0x20 ADD SWAP1 PUSH3 0x90 SWAP3 SWAP2 SWAP1 PUSH3 0x99 JUMP JUMPDEST POP POP POP PUSH3 0x3EA JUMP JUMPDEST DUP3 DUP1 SLOAD PUSH3 0xA7 SWAP1 PUSH3 0x2F5 JUMP JUMPDEST SWAP1 PUSH1 0x0 MSTORE PUSH1 0x20 PUSH1 0x0 KECCAK256 SWAP1 PUSH1 0x1F ADD PUSH1 0x20 SWAP1 DIV DUP2 ADD SWAP3 DUP3 PUSH3 0xCB JUMPI PUSH1 0x0 DUP6 SSTORE PUSH3 0x117 JUMP JUMPDEST DUP3 PUSH1 0x1F LT PUSH3 0xE6 JUMPI DUP1 MLOAD PUSH1 0xFF NOT AND DUP4 DUP1 ADD OR DUP6 SSTORE PUSH3 0x117 JUMP JUMPDEST DUP3 DUP1 ADD PUSH1 0x1 ADD DUP6 SSTORE DUP3 ISZERO PUSH3 0x117 JUMPI SWAP2 DUP3 ADD JUMPDEST DUP3 DUP2 GT ISZERO PUSH3 0x116 JUMPI DUP3 MLOAD DUP3 SSTORE SWAP2 PUSH1 0x20 ADD SWAP2 SWAP1 PUSH1 0x1 ADD SWAP1 PUSH3 0xF9 JUMP JUMPDEST JUMPDEST POP SWAP1 POP PUSH3 0x126 SWAP2 SWAP1 PUSH3 0x12A JUMP JUMPDEST POP SWAP1 JUMP JUMPDEST JUMPDEST DUP1 DUP3 GT ISZERO PUSH3 0x145 JUMPI PUSH1 0x0 DUP2 PUSH1 0x0 SWAP1 SSTORE POP PUSH1 0x1 ADD PUSH3 0x12B JUMP JUMPDEST POP SWAP1 JUMP JUMPDEST PUSH1 0x0 PUSH3 0x160 PUSH3 0x15A DUP5 PUSH3 0x255 JUMP JUMPDEST PUSH3 0x22C JUMP JUMPDEST SWAP1 POP DUP3 DUP2 MSTORE PUSH1 0x20 DUP2 ADD DUP5 DUP5 DUP5 ADD GT ISZERO PUSH3 0x179 JUMPI PUSH1 0x0 DUP1 REVERT JUMPDEST PUSH3 0x186 DUP5 DUP3 DUP6 PUSH3 0x2BF JUMP JUMPDEST POP SWAP4 SWAP3 POP POP POP JUMP JUMPDEST PUSH1 0x0 DUP2 MLOAD SWAP1 POP PUSH3 0x19F DUP2 PUSH3 0x3D0 JUMP JUMPDEST SWAP3 SWAP2 POP POP JUMP JUMPDEST PUSH1 0x0 DUP3 PUSH1 0x1F DUP4 ADD SLT PUSH3 0x1B7 JUMPI PUSH1 0x0 DUP1 REVERT JUMPDEST DUP2 MLOAD PUSH3 0x1C9 DUP5 DUP3 PUSH1 0x20 DUP7 ADD PUSH3 0x149 JUMP JUMPDEST SWAP2 POP POP SWAP3 SWAP2 POP POP JUMP JUMPDEST PUSH1 0x0 DUP1 PUSH1 0x40 DUP4 DUP6 SUB SLT ISZERO PUSH3 0x1E6 JUMPI PUSH1 0x0 DUP1 REVERT JUMPDEST PUSH1 0x0 DUP4 ADD MLOAD PUSH8 0xFFFFFFFFFFFFFFFF DUP2 GT ISZERO PUSH3 0x201 JUMPI PUSH1 0x0 DUP1 REVERT JUMPDEST PUSH3 0x20F DUP6 DUP3 DUP7 ADD PUSH3 0x1A5 JUMP JUMPDEST SWAP3 POP POP PUSH1 0x20 PUSH3 0x222 DUP6 DUP3 DUP7 ADD PUSH3 0x18E JUMP JUMPDEST SWAP2 POP POP SWAP3 POP SWAP3 SWAP1 POP JUMP JUMPDEST PUSH1 0x0 PUSH3 0x238 PUSH3 0x24B JUMP JUMPDEST SWAP1 POP PUSH3 0x246 DUP3 DUP3 PUSH3 0x32B JUMP JUMPDEST SWAP2 SWAP1 POP JUMP JUMPDEST PUSH1 0x0 PUSH1 0x40 MLOAD SWAP1 POP SWAP1 JUMP JUMPDEST PUSH1 0x0 PUSH8 0xFFFFFFFFFFFFFFFF DUP3 GT ISZERO PUSH3 0x273 JUMPI PUSH3 0x272 PUSH3 0x390 JUMP JUMPDEST JUMPDEST PUSH3 0x27E DUP3 PUSH3 0x3BF JUMP JUMPDEST SWAP1 POP PUSH1 0x20 DUP2 ADD SWAP1 POP SWAP2 SWAP1 POP JUMP JUMPDEST PUSH1 0x0 PUSH3 0x298 DUP3 PUSH3 0x29F JUMP JUMPDEST SWAP1 POP SWAP2 SWAP1 POP JUMP JUMPDEST PUSH1 0x0 PUSH20 0xFFFFFFFFFFFFFFFFFFFFFFFFFFFFFFFFFFFFFFFF DUP3 AND SWAP1 POP SWAP2 SWAP1 POP JUMP JUMPDEST PUSH1 0x0 JUMPDEST DUP4 DUP2 LT ISZERO PUSH3 0x2DF JUMPI DUP1 DUP3 ADD MLOAD DUP2 DUP5 ADD MSTORE PUSH1 0x20 DUP2 ADD SWAP1 POP PUSH3 0x2C2 JUMP JUMPDEST DUP4 DUP2 GT ISZERO PUSH3 0x2EF JUMPI PUSH1 0x0 DUP5 DUP5 ADD MSTORE JUMPDEST POP POP POP POP JUMP JUMPDEST PUSH1 0x0 PUSH1 0x2 DUP3 DIV SWAP1 POP PUSH1 0x1 DUP3 AND DUP1 PUSH3 0x30E JUMPI PUSH1 0x7F DUP3 AND SWAP2 POP JUMPDEST PUSH1 0x20 DUP3 LT DUP2 EQ ISZERO PUSH3 0x325 JUMPI PUSH3 0x324 PUSH3 0x361 JUMP JUMPDEST JUMPDEST POP SWAP2 SWAP1 POP JUMP JUMPDEST PUSH3 0x336 DUP3 PUSH3 0x3BF JUMP JUMPDEST DUP2 ADD DUP2 DUP2 LT PUSH8 0xFFFFFFFFFFFFFFFF DUP3 GT OR ISZERO PUSH3 0x358 JUMPI PUSH3 0x357 PUSH3 0x390 JUMP JUMPDEST JUMPDEST DUP1 PUSH1 0x40 MSTORE POP POP POP JUMP JUMPDEST PUSH32 0x4E487B7100000000000000000000000000000000000000000000000000000000 PUSH1 0x0 MSTORE PUSH1 0x22 PUSH1 0x4 MSTORE PUSH1 0x24 PUSH1 0x0 REVERT JUMPDEST PUSH32 0x4E487B7100000000000000000000000000000000000000000000000000000000 PUSH1 0x0 MSTORE PUSH1 0x41 PUSH1 0x4 MSTORE PUSH1 0x24 PUSH1 0x0 REVERT JUMPDEST PUSH1 0x0 PUSH1 0x1F NOT PUSH1 0x1F DUP4 ADD AND SWAP1 POP SWAP2 SWAP1 POP JUMP JUMPDEST PUSH3 0x3DB DUP2 PUSH3 0x28B JUMP JUMPDEST DUP2 EQ PUSH3 0x3E7 JUMPI PUSH1 0x0 DUP1 REVERT JUMPDEST POP JUMP JUMPDEST PUSH2 0x1570 DUP1 PUSH3 0x3FA PUSH1 0x0 CODECOPY PUSH1 0x0 RETURN INVALID PUSH1 0x80 PUSH1 0x40 MSTORE CALLVALUE DUP1 ISZERO PUSH2 0x10 JUMPI PUSH1 0x0 DUP1 REVERT JUMPDEST POP PUSH1 0x4 CALLDATASIZE LT PUSH2 0xEA JUMPI PUSH1 0x0 CALLDATALOAD PUSH1 0xE0 SHR DUP1 PUSH4 0x5750AF77 GT PUSH2 0x8C JUMPI DUP1 PUSH4 0x85E8E7A7 GT PUSH2 0x66 JUMPI DUP1 PUSH4 0x85E8E7A7 EQ PUSH2 0x22D JUMPI DUP1 PUSH4 0x8FD82076 EQ PUSH2 0x24B JUMPI DUP1 PUSH4 0xA3EC138D EQ PUSH2 0x269 JUMPI DUP1 PUSH4 0xAA922556 EQ PUSH2 0x29C JUMPI PUSH2 0xEA JUMP JUMPDEST DUP1 PUSH4 0x5750AF77 EQ PUSH2 0x1C3 JUMPI DUP1 PUSH4 0x68AC66DC EQ PUSH2 0x1F3 JUMPI DUP1 PUSH4 0x7F178F2E EQ PUSH2 0x211 JUMPI PUSH2 0xEA JUMP JUMPDEST DUP1 PUSH4 0x369A5B34 GT PUSH2 0xC8 JUMPI DUP1 PUSH4 0x369A5B34 EQ PUSH2 0x149 JUMPI DUP1 PUSH4 0x3EC2A019 EQ PUSH2 0x167 JUMPI DUP1 PUSH4 0x4051DDAC EQ PUSH2 0x183 JUMPI DUP1 PUSH4 0x42169E48 EQ PUSH2 0x1A5 JUMPI PUSH2 0xEA JUMP JUMPDEST DUP1 PUSH4 0x2260B98B EQ PUSH2 0xEF JUMPI DUP1 PUSH4 0x2D35A8A2 EQ PUSH2 0xF9 JUMPI DUP1 PUSH4 0x3477EE2E EQ PUSH2 0x117 JUMPI JUMPDEST PUSH1 0x0 DUP1 REVERT JUMPDEST PUSH2 0xF7 PUSH2 0x2B8 JUMP JUMPDEST STOP JUMPDEST PUSH2 0x101 PUSH2 0x2E4 JUMP JUMPDEST PUSH1 0x40 MLOAD PUSH2 0x10E SWAP2 SWAP1 PUSH2 0x1252 JUMP JUMPDEST PUSH1 0x40 MLOAD DUP1 SWAP2 SUB SWAP1 RETURN JUMPDEST PUSH2 0x131 PUSH1 0x4 DUP1 CALLDATASIZE SUB DUP2 ADD SWAP1 PUSH2 0x12C SWAP2 SWAP1 PUSH2 0xF35 JUMP JUMPDEST PUSH2 0x2EA JUMP JUMPDEST PUSH1 0x40 MLOAD PUSH2 0x140 SWAP4 SWAP3 SWAP2 SWAP1 PUSH2 0x120D JUMP JUMPDEST PUSH1 0x40 MLOAD DUP1 SWAP2 SUB SWAP1 RETURN JUMPDEST PUSH2 0x151 PUSH2 0x424 JUMP JUMPDEST PUSH1 0x40 MLOAD PUSH2 0x15E SWAP2 SWAP1 PUSH2 0x10FA JUMP JUMPDEST PUSH1 0x40 MLOAD DUP1 SWAP2 SUB SWAP1 RETURN JUMPDEST PUSH2 0x181 PUSH1 0x4 DUP1 CALLDATASIZE SUB DUP2 ADD SWAP1 PUSH2 0x17C SWAP2 SWAP1 PUSH2 0xE9E JUMP JUMPDEST PUSH2 0x4B2 JUMP JUMPDEST STOP JUMPDEST PUSH2 0x18B PUSH2 0x628 JUMP JUMPDEST PUSH1 0x40 MLOAD PUSH2 0x19C SWAP6 SWAP5 SWAP4 SWAP3 SWAP2 SWAP1 PUSH2 0x1159 JUMP JUMPDEST PUSH1 0x40 MLOAD DUP1 SWAP2 SUB SWAP1 RETURN JUMPDEST PUSH2 0x1AD PUSH2 0x708 JUMP JUMPDEST PUSH1 0x40 MLOAD PUSH2 0x1BA SWAP2 SWAP1 PUSH2 0x1252 JUMP JUMPDEST PUSH1 0x40 MLOAD DUP1 SWAP2 SUB SWAP1 RETURN JUMPDEST PUSH2 0x1DD PUSH1 0x4 DUP1 CALLDATASIZE SUB DUP2 ADD SWAP1 PUSH2 0x1D8 SWAP2 SWAP1 PUSH2 0xF35 JUMP JUMPDEST PUSH2 0x70E JUMP JUMPDEST PUSH1 0x40 MLOAD PUSH2 0x1EA SWAP2 SWAP1 PUSH2 0x10DF JUMP JUMPDEST PUSH1 0x40 MLOAD DUP1 SWAP2 SUB SWAP1 RETURN JUMPDEST PUSH2 0x1FB PUSH2 0x74D JUMP JUMPDEST PUSH1 0x40 MLOAD PUSH2 0x208 SWAP2 SWAP1 PUSH2 0x111C JUMP JUMPDEST PUSH1 0x40 MLOAD DUP1 SWAP2 SUB SWAP1 RETURN JUMPDEST PUSH2 0x22B PUSH1 0x4 DUP1 CALLDATASIZE SUB DUP2 ADD SWAP1 PUSH2 0x226 SWAP2 SWAP1 PUSH2 0xF35 JUMP JUMPDEST PUSH2 0x760 JUMP JUMPDEST STOP JUMPDEST PUSH2 0x235 PUSH2 0x943 JUMP JUMPDEST PUSH1 0x40 MLOAD PUSH2 0x242 SWAP2 SWAP1 PUSH2 0x1137 JUMP JUMPDEST PUSH1 0x40 MLOAD DUP1 SWAP2 SUB SWAP1 RETURN JUMPDEST PUSH2 0x253 PUSH2 0x9D1 JUMP JUMPDEST PUSH1 0x40 MLOAD PUSH2 0x260 SWAP2 SWAP1 PUSH2 0x10DF JUMP JUMPDEST PUSH1 0x40 MLOAD DUP1 SWAP2 SUB SWAP1 RETURN JUMPDEST PUSH2 0x283 PUSH1 0x4 DUP1 CALLDATASIZE SUB DUP2 ADD SWAP1 PUSH2 0x27E SWAP2 SWAP1 PUSH2 0xE09 JUMP JUMPDEST PUSH2 0x9F7 JUMP JUMPDEST PUSH1 0x40 MLOAD PUSH2 0x293 SWAP5 SWAP4 SWAP3 SWAP2 SWAP1 PUSH2 0x11B3 JUMP JUMPDEST PUSH1 0x40 MLOAD DUP1 SWAP2 SUB SWAP1 RETURN JUMPDEST PUSH2 0x2B6 PUSH1 0x4 DUP1 CALLDATASIZE SUB DUP2 ADD SWAP1 PUSH2 0x2B1 SWAP2 SWAP1 PUSH2 0xE32 JUMP JUMPDEST PUSH2 0xBCC JUMP JUMPDEST STOP JUMPDEST PUSH1 0x5 PUSH1 0x14 SWAP1 SLOAD SWAP1 PUSH2 0x100 EXP SWAP1 DIV PUSH1 0xFF AND ISZERO PUSH1 0x5 PUSH1 0x14 PUSH2 0x100 EXP DUP2 SLOAD DUP2 PUSH1 0xFF MUL NOT AND SWAP1 DUP4 ISZERO ISZERO MUL OR SWAP1 SSTORE POP JUMP JUMPDEST PUSH1 0x3 SLOAD DUP2 JUMP JUMPDEST PUSH1 0x1 PUSH1 0x20 MSTORE DUP1 PUSH1 0x0 MSTORE PUSH1 0x40 PUSH1 0x0 KECCAK256 PUSH1 0x0 SWAP2 POP SWAP1 POP DUP1 PUSH1 0x0 ADD DUP1 SLOAD PUSH2 0x30D SWAP1 PUSH2 0x13C2 JUMP JUMPDEST DUP1 PUSH1 0x1F ADD PUSH1 0x20 DUP1 SWAP2 DIV MUL PUSH1 0x20 ADD PUSH1 0x40 MLOAD SWAP1 DUP2 ADD PUSH1 0x40 MSTORE DUP1 SWAP3 SWAP2 SWAP1 DUP2 DUP2 MSTORE PUSH1 0x20 ADD DUP3 DUP1 SLOAD PUSH2 0x339 SWAP1 PUSH2 0x13C2 JUMP JUMPDEST DUP1 ISZERO PUSH2 0x386 JUMPI DUP1 PUSH1 0x1F LT PUSH2 0x35B JUMPI PUSH2 0x100 DUP1 DUP4 SLOAD DIV MUL DUP4 MSTORE SWAP2 PUSH1 0x20 ADD SWAP2 PUSH2 0x386 JUMP JUMPDEST DUP3 ADD SWAP2 SWAP1 PUSH1 0x0 MSTORE PUSH1 0x20 PUSH1 0x0 KECCAK256 SWAP1 JUMPDEST DUP2 SLOAD DUP2 MSTORE SWAP1 PUSH1 0x1 ADD SWAP1 PUSH1 0x20 ADD DUP1 DUP4 GT PUSH2 0x369 JUMPI DUP3 SWAP1 SUB PUSH1 0x1F AND DUP3 ADD SWAP2 JUMPDEST POP POP POP POP POP SWAP1 DUP1 PUSH1 0x1 ADD DUP1 SLOAD PUSH2 0x39B SWAP1 PUSH2 0x13C2 JUMP JUMPDEST DUP1 PUSH1 0x1F ADD PUSH1 0x20 DUP1 SWAP2 DIV MUL PUSH1 0x20 ADD PUSH1 0x40 MLOAD SWAP1 DUP2 ADD PUSH1 0x40 MSTORE DUP1 SWAP3 SWAP2 SWAP1 DUP2 DUP2 MSTORE PUSH1 0x20 ADD DUP3 DUP1 SLOAD PUSH2 0x3C7 SWAP1 PUSH2 0x13C2 JUMP JUMPDEST DUP1 ISZERO PUSH2 0x414 JUMPI DUP1 PUSH1 0x1F LT PUSH2 0x3E9 JUMPI PUSH2 0x100 DUP1 DUP4 SLOAD DIV MUL DUP4 MSTORE SWAP2 PUSH1 0x20 ADD SWAP2 PUSH2 0x414 JUMP JUMPDEST DUP3 ADD SWAP2 SWAP1 PUSH1 0x0 MSTORE PUSH1 0x20 PUSH1 0x0 KECCAK256 SWAP1 JUMPDEST DUP2 SLOAD DUP2 MSTORE SWAP1 PUSH1 0x1 ADD SWAP1 PUSH1 0x20 ADD DUP1 DUP4 GT PUSH2 0x3F7 JUMPI DUP3 SWAP1 SUB PUSH1 0x1F AND DUP3 ADD SWAP2 JUMPDEST POP POP POP POP POP SWAP1 DUP1 PUSH1 0x2 ADD SLOAD SWAP1 POP DUP4 JUMP JUMPDEST PUSH1 0x60 PUSH1 0x6 DUP1 SLOAD DUP1 PUSH1 0x20 MUL PUSH1 0x20 ADD PUSH1 0x40 MLOAD SWAP1 DUP2 ADD PUSH1 0x40 MSTORE DUP1 SWAP3 SWAP2 SWAP1 DUP2 DUP2 MSTORE PUSH1 0x20 ADD DUP3 DUP1 SLOAD DUP1 ISZERO PUSH2 0x4A8 JUMPI PUSH1 0x20 MUL DUP3 ADD SWAP2 SWAP1 PUSH1 0x0 MSTORE PUSH1 0x20 PUSH1 0x0 KECCAK256 SWAP1 JUMPDEST DUP2 PUSH1 0x0 SWAP1 SLOAD SWAP1 PUSH2 0x100 EXP SWAP1 DIV PUSH20 0xFFFFFFFFFFFFFFFFFFFFFFFFFFFFFFFFFFFFFFFF AND PUSH20 0xFFFFFFFFFFFFFFFFFFFFFFFFFFFFFFFFFFFFFFFF AND DUP2 MSTORE PUSH1 0x20 ADD SWAP1 PUSH1 0x1 ADD SWAP1 DUP1 DUP4 GT PUSH2 0x45E JUMPI JUMPDEST POP POP POP POP POP SWAP1 POP SWAP1 JUMP JUMPDEST PUSH1 0x0 PUSH1 0x40 MLOAD DUP1 PUSH1 0x20 ADD PUSH1 0x40 MSTORE DUP1 PUSH1 0x0 DUP2 MSTORE POP SWAP1 POP DUP1 DUP1 MLOAD SWAP1 PUSH1 0x20 ADD KECCAK256 PUSH1 0x0 DUP1 CALLER PUSH20 0xFFFFFFFFFFFFFFFFFFFFFFFFFFFFFFFFFFFFFFFF AND PUSH20 0xFFFFFFFFFFFFFFFFFFFFFFFFFFFFFFFFFFFFFFFF AND DUP2 MSTORE PUSH1 0x20 ADD SWAP1 DUP2 MSTORE PUSH1 0x20 ADD PUSH1 0x0 KECCAK256 PUSH1 0x1 ADD PUSH1 0x40 MLOAD PUSH2 0x51C SWAP2 SWAP1 PUSH2 0x10C8 JUMP JUMPDEST PUSH1 0x40 MLOAD DUP1 SWAP2 SUB SWAP1 KECCAK256 EQ PUSH2 0x52E JUMPI PUSH1 0x0 DUP1 REVERT JUMPDEST PUSH1 0x40 MLOAD DUP1 PUSH1 0x80 ADD PUSH1 0x40 MSTORE DUP1 DUP6 DUP2 MSTORE PUSH1 0x20 ADD DUP5 DUP2 MSTORE PUSH1 0x20 ADD DUP4 DUP2 MSTORE PUSH1 0x20 ADD PUSH1 0x0 ISZERO ISZERO DUP2 MSTORE POP PUSH1 0x0 DUP1 CALLER PUSH20 0xFFFFFFFFFFFFFFFFFFFFFFFFFFFFFFFFFFFFFFFF AND PUSH20 0xFFFFFFFFFFFFFFFFFFFFFFFFFFFFFFFFFFFFFFFF AND DUP2 MSTORE PUSH1 0x20 ADD SWAP1 DUP2 MSTORE PUSH1 0x20 ADD PUSH1 0x0 KECCAK256 PUSH1 0x0 DUP3 ADD MLOAD DUP2 PUSH1 0x0 ADD SWAP1 DUP1 MLOAD SWAP1 PUSH1 0x20 ADD SWAP1 PUSH2 0x5AC SWAP3 SWAP2 SWAP1 PUSH2 0xCD4 JUMP JUMPDEST POP PUSH1 0x20 DUP3 ADD MLOAD DUP2 PUSH1 0x1 ADD SWAP1 DUP1 MLOAD SWAP1 PUSH1 0x20 ADD SWAP1 PUSH2 0x5C9 SWAP3 SWAP2 SWAP1 PUSH2 0xCD4 JUMP JUMPDEST POP PUSH1 0x40 DUP3 ADD MLOAD DUP2 PUSH1 0x2 ADD SWAP1 DUP1 MLOAD SWAP1 PUSH1 0x20 ADD SWAP1 PUSH2 0x5E6 SWAP3 SWAP2 SWAP1 PUSH2 0xCD4 JUMP JUMPDEST POP PUSH1 0x60 DUP3 ADD MLOAD DUP2 PUSH1 0x3 ADD PUSH1 0x0 PUSH2 0x100 EXP DUP2 SLOAD DUP2 PUSH1 0xFF MUL NOT AND SWAP1 DUP4 ISZERO ISZERO MUL OR SWAP1 SSTORE POP SWAP1 POP POP PUSH1 0x2 PUSH1 0x0 DUP2 SLOAD DUP1 SWAP3 SWAP2 SWAP1 PUSH2 0x61D SWAP1 PUSH2 0x1425 JUMP JUMPDEST SWAP2 SWAP1 POP SSTORE POP POP POP POP POP JUMP JUMPDEST PUSH1 0x60 PUSH1 0x0 DUP1 PUSH1 0x0 DUP1 PUSH1 0x4 PUSH1 0x5 PUSH1 0x0 SWAP1 SLOAD SWAP1 PUSH2 0x100 EXP SWAP1 DIV PUSH20 0xFFFFFFFFFFFFFFFFFFFFFFFFFFFFFFFFFFFFFFFF AND PUSH1 0x3 SLOAD PUSH1 0x2 SLOAD PUSH1 0x5 PUSH1 0x14 SWAP1 SLOAD SWAP1 PUSH2 0x100 EXP SWAP1 DIV PUSH1 0xFF AND DUP5 DUP1 SLOAD PUSH2 0x677 SWAP1 PUSH2 0x13C2 JUMP JUMPDEST DUP1 PUSH1 0x1F ADD PUSH1 0x20 DUP1 SWAP2 DIV MUL PUSH1 0x20 ADD PUSH1 0x40 MLOAD SWAP1 DUP2 ADD PUSH1 0x40 MSTORE DUP1 SWAP3 SWAP2 SWAP1 DUP2 DUP2 MSTORE PUSH1 0x20 ADD DUP3 DUP1 SLOAD PUSH2 0x6A3 SWAP1 PUSH2 0x13C2 JUMP JUMPDEST DUP1 ISZERO PUSH2 0x6F0 JUMPI DUP1 PUSH1 0x1F LT PUSH2 0x6C5 JUMPI PUSH2 0x100 DUP1 DUP4 SLOAD DIV MUL DUP4 MSTORE SWAP2 PUSH1 0x20 ADD SWAP2 PUSH2 0x6F0 JUMP JUMPDEST DUP3 ADD SWAP2 SWAP1 PUSH1 0x0 MSTORE PUSH1 0x20 PUSH1 0x0 KECCAK256 SWAP1 JUMPDEST DUP2 SLOAD DUP2 MSTORE SWAP1 PUSH1 0x1 ADD SWAP1 PUSH1 0x20 ADD DUP1 DUP4 GT PUSH2 0x6D3 JUMPI DUP3 SWAP1 SUB PUSH1 0x1F AND DUP3 ADD SWAP2 JUMPDEST POP POP POP POP POP SWAP5 POP SWAP5 POP SWAP5 POP SWAP5 POP SWAP5 POP SWAP5 POP SWAP1 SWAP2 SWAP3 SWAP4 SWAP5 JUMP JUMPDEST PUSH1 0x2 SLOAD DUP2 JUMP JUMPDEST PUSH1 0x6 DUP2 DUP2 SLOAD DUP2 LT PUSH2 0x71E JUMPI PUSH1 0x0 DUP1 REVERT JUMPDEST SWAP1 PUSH1 0x0 MSTORE PUSH1 0x20 PUSH1 0x0 KECCAK256 ADD PUSH1 0x0 SWAP2 POP SLOAD SWAP1 PUSH2 0x100 EXP SWAP1 DIV PUSH20 0xFFFFFFFFFFFFFFFFFFFFFFFFFFFFFFFFFFFFFFFF AND DUP2 JUMP JUMPDEST PUSH1 0x5 PUSH1 0x14 SWAP1 SLOAD SWAP1 PUSH2 0x100 EXP SWAP1 DIV PUSH1 0xFF AND DUP2 JUMP JUMPDEST PUSH1 0x5 PUSH1 0x14 SWAP1 SLOAD SWAP1 PUSH2 0x100 EXP SWAP1 DIV PUSH1 0xFF AND ISZERO PUSH2 0x77A JUMPI PUSH1 0x0 DUP1 REVERT JUMPDEST PUSH1 0x0 PUSH1 0x40 MLOAD DUP1 PUSH1 0x20 ADD PUSH1 0x40 MSTORE DUP1 PUSH1 0x0 DUP2 MSTORE POP SWAP1 POP DUP1 DUP1 MLOAD SWAP1 PUSH1 0x20 ADD KECCAK256 PUSH1 0x0 DUP1 CALLER PUSH20 0xFFFFFFFFFFFFFFFFFFFFFFFFFFFFFFFFFFFFFFFF AND PUSH20 0xFFFFFFFFFFFFFFFFFFFFFFFFFFFFFFFFFFFFFFFF AND DUP2 MSTORE PUSH1 0x20 ADD SWAP1 DUP2 MSTORE PUSH1 0x20 ADD PUSH1 0x0 KECCAK256 PUSH1 0x0 ADD PUSH1 0x40 MLOAD PUSH2 0x7E4 SWAP2 SWAP1 PUSH2 0x10C8 JUMP JUMPDEST PUSH1 0x40 MLOAD DUP1 SWAP2 SUB SWAP1 KECCAK256 EQ ISZERO PUSH2 0x7F7 JUMPI PUSH1 0x0 DUP1 REVERT JUMPDEST PUSH1 0x0 ISZERO ISZERO PUSH1 0x0 DUP1 CALLER PUSH20 0xFFFFFFFFFFFFFFFFFFFFFFFFFFFFFFFFFFFFFFFF AND PUSH20 0xFFFFFFFFFFFFFFFFFFFFFFFFFFFFFFFFFFFFFFFF AND DUP2 MSTORE PUSH1 0x20 ADD SWAP1 DUP2 MSTORE PUSH1 0x20 ADD PUSH1 0x0 KECCAK256 PUSH1 0x3 ADD PUSH1 0x0 SWAP1 SLOAD SWAP1 PUSH2 0x100 EXP SWAP1 DIV PUSH1 0xFF AND ISZERO ISZERO EQ PUSH2 0x856 JUMPI PUSH1 0x0 DUP1 REVERT JUMPDEST PUSH1 0x1 PUSH1 0x0 DUP4 DUP2 MSTORE PUSH1 0x20 ADD SWAP1 DUP2 MSTORE PUSH1 0x20 ADD PUSH1 0x0 KECCAK256 PUSH1 0x2 ADD PUSH1 0x0 DUP2 SLOAD DUP1 SWAP3 SWAP2 SWAP1 PUSH2 0x87D SWAP1 PUSH2 0x1425 JUMP JUMPDEST SWAP2 SWAP1 POP SSTORE POP PUSH1 0x1 PUSH1 0x0 DUP1 CALLER PUSH20 0xFFFFFFFFFFFFFFFFFFFFFFFFFFFFFFFFFFFFFFFF AND PUSH20 0xFFFFFFFFFFFFFFFFFFFFFFFFFFFFFFFFFFFFFFFF AND DUP2 MSTORE PUSH1 0x20 ADD SWAP1 DUP2 MSTORE PUSH1 0x20 ADD PUSH1 0x0 KECCAK256 PUSH1 0x3 ADD PUSH1 0x0 PUSH2 0x100 EXP DUP2 SLOAD DUP2 PUSH1 0xFF MUL NOT AND SWAP1 DUP4 ISZERO ISZERO MUL OR SWAP1 SSTORE POP PUSH1 0x6 CALLER SWAP1 DUP1 PUSH1 0x1 DUP2 SLOAD ADD DUP1 DUP3 SSTORE DUP1 SWAP2 POP POP PUSH1 0x1 SWAP1 SUB SWAP1 PUSH1 0x0 MSTORE PUSH1 0x20 PUSH1 0x0 KECCAK256 ADD PUSH1 0x0 SWAP1 SWAP2 SWAP1 SWAP2 SWAP1 SWAP2 PUSH2 0x100 EXP DUP2 SLOAD DUP2 PUSH20 0xFFFFFFFFFFFFFFFFFFFFFFFFFFFFFFFFFFFFFFFF MUL NOT AND SWAP1 DUP4 PUSH20 0xFFFFFFFFFFFFFFFFFFFFFFFFFFFFFFFFFFFFFFFF AND MUL OR SWAP1 SSTORE POP POP POP JUMP JUMPDEST PUSH1 0x4 DUP1 SLOAD PUSH2 0x950 SWAP1 PUSH2 0x13C2 JUMP JUMPDEST DUP1 PUSH1 0x1F ADD PUSH1 0x20 DUP1 SWAP2 DIV MUL PUSH1 0x20 ADD PUSH1 0x40 MLOAD SWAP1 DUP2 ADD PUSH1 0x40 MSTORE DUP1 SWAP3 SWAP2 SWAP1 DUP2 DUP2 MSTORE PUSH1 0x20 ADD DUP3 DUP1 SLOAD PUSH2 0x97C SWAP1 PUSH2 0x13C2 JUMP JUMPDEST DUP1 ISZERO PUSH2 0x9C9 JUMPI DUP1 PUSH1 0x1F LT PUSH2 0x99E JUMPI PUSH2 0x100 DUP1 DUP4 SLOAD DIV MUL DUP4 MSTORE SWAP2 PUSH1 0x20 ADD SWAP2 PUSH2 0x9C9 JUMP JUMPDEST DUP3 ADD SWAP2 SWAP1 PUSH1 0x0 MSTORE PUSH1 0x20 PUSH1 0x0 KECCAK256 SWAP1 JUMPDEST DUP2 SLOAD DUP2 MSTORE SWAP1 PUSH1 0x1 ADD SWAP1 PUSH1 0x20 ADD DUP1 DUP4 GT PUSH2 0x9AC JUMPI DUP3 SWAP1 SUB PUSH1 0x1F AND DUP3 ADD SWAP2 JUMPDEST POP POP POP POP POP DUP2 JUMP JUMPDEST PUSH1 0x5 PUSH1 0x0 SWAP1 SLOAD SWAP1 PUSH2 0x100 EXP SWAP1 DIV PUSH20 0xFFFFFFFFFFFFFFFFFFFFFFFFFFFFFFFFFFFFFFFF AND DUP2 JUMP JUMPDEST PUSH1 0x0 PUSH1 0x20 MSTORE DUP1 PUSH1 0x0 MSTORE PUSH1 0x40 PUSH1 0x0 KECCAK256 PUSH1 0x0 SWAP2 POP SWAP1 POP DUP1 PUSH1 0x0 ADD DUP1 SLOAD PUSH2 0xA1A SWAP1 PUSH2 0x13C2 JUMP JUMPDEST DUP1 PUSH1 0x1F ADD PUSH1 0x20 DUP1 SWAP2 DIV MUL PUSH1 0x20 ADD PUSH1 0x40 MLOAD SWAP1 DUP2 ADD PUSH1 0x40 MSTORE DUP1 SWAP3 SWAP2 SWAP1 DUP2 DUP2 MSTORE PUSH1 0x20 ADD DUP3 DUP1 SLOAD PUSH2 0xA46 SWAP1 PUSH2 0x13C2 JUMP JUMPDEST DUP1 ISZERO PUSH2 0xA93 JUMPI DUP1 PUSH1 0x1F LT PUSH2 0xA68 JUMPI PUSH2 0x100 DUP1 DUP4 SLOAD DIV MUL DUP4 MSTORE SWAP2 PUSH1 0x20 ADD SWAP2 PUSH2 0xA93 JUMP JUMPDEST DUP3 ADD SWAP2 SWAP1 PUSH1 0x0 MSTORE PUSH1 0x20 PUSH1 0x0 KECCAK256 SWAP1 JUMPDEST DUP2 SLOAD DUP2 MSTORE SWAP1 PUSH1 0x1 ADD SWAP1 PUSH1 0x20 ADD DUP1 DUP4 GT PUSH2 0xA76 JUMPI DUP3 SWAP1 SUB PUSH1 0x1F AND DUP3 ADD SWAP2 JUMPDEST POP POP POP POP POP SWAP1 DUP1 PUSH1 0x1 ADD DUP1 SLOAD PUSH2 0xAA8 SWAP1 PUSH2 0x13C2 JUMP JUMPDEST DUP1 PUSH1 0x1F ADD PUSH1 0x20 DUP1 SWAP2 DIV MUL PUSH1 0x20 ADD PUSH1 0x40 MLOAD SWAP1 DUP2 ADD PUSH1 0x40 MSTORE DUP1 SWAP3 SWAP2 SWAP1 DUP2 DUP2 MSTORE PUSH1 0x20 ADD DUP3 DUP1 SLOAD PUSH2 0xAD4 SWAP1 PUSH2 0x13C2 JUMP JUMPDEST DUP1 ISZERO PUSH2 0xB21 JUMPI DUP1 PUSH1 0x1F LT PUSH2 0xAF6 JUMPI PUSH2 0x100 DUP1 DUP4 SLOAD DIV MUL DUP4 MSTORE SWAP2 PUSH1 0x20 ADD SWAP2 PUSH2 0xB21 JUMP JUMPDEST DUP3 ADD SWAP2 SWAP1 PUSH1 0x0 MSTORE PUSH1 0x20 PUSH1 0x0 KECCAK256 SWAP1 JUMPDEST DUP2 SLOAD DUP2 MSTORE SWAP1 PUSH1 0x1 ADD SWAP1 PUSH1 0x20 ADD DUP1 DUP4 GT PUSH2 0xB04 JUMPI DUP3 SWAP1 SUB PUSH1 0x1F AND DUP3 ADD SWAP2 JUMPDEST POP POP POP POP POP SWAP1 DUP1 PUSH1 0x2 ADD DUP1 SLOAD PUSH2 0xB36 SWAP1 PUSH2 0x13C2 JUMP JUMPDEST DUP1 PUSH1 0x1F ADD PUSH1 0x20 DUP1 SWAP2 DIV MUL PUSH1 0x20 ADD PUSH1 0x40 MLOAD SWAP1 DUP2 ADD PUSH1 0x40 MSTORE DUP1 SWAP3 SWAP2 SWAP1 DUP2 DUP2 MSTORE PUSH1 0x20 ADD DUP3 DUP1 SLOAD PUSH2 0xB62 SWAP1 PUSH2 0x13C2 JUMP JUMPDEST DUP1 ISZERO PUSH2 0xBAF JUMPI DUP1 PUSH1 0x1F LT PUSH2 0xB84 JUMPI PUSH2 0x100 DUP1 DUP4 SLOAD DIV MUL DUP4 MSTORE SWAP2 PUSH1 0x20 ADD SWAP2 PUSH2 0xBAF JUMP JUMPDEST DUP3 ADD SWAP2 SWAP1 PUSH1 0x0 MSTORE PUSH1 0x20 PUSH1 0x0 KECCAK256 SWAP1 JUMPDEST DUP2 SLOAD DUP2 MSTORE SWAP1 PUSH1 0x1 ADD SWAP1 PUSH1 0x20 ADD DUP1 DUP4 GT PUSH2 0xB92 JUMPI DUP3 SWAP1 SUB PUSH1 0x1F AND DUP3 ADD SWAP2 JUMPDEST POP POP POP POP POP SWAP1 DUP1 PUSH1 0x3 ADD PUSH1 0x0 SWAP1 SLOAD SWAP1 PUSH2 0x100 EXP SWAP1 DIV PUSH1 0xFF AND SWAP1 POP DUP5 JUMP JUMPDEST PUSH1 0x5 PUSH1 0x0 SWAP1 SLOAD SWAP1 PUSH2 0x100 EXP SWAP1 DIV PUSH20 0xFFFFFFFFFFFFFFFFFFFFFFFFFFFFFFFFFFFFFFFF AND PUSH20 0xFFFFFFFFFFFFFFFFFFFFFFFFFFFFFFFFFFFFFFFF AND CALLER PUSH20 0xFFFFFFFFFFFFFFFFFFFFFFFFFFFFFFFFFFFFFFFF AND EQ PUSH2 0xC26 JUMPI PUSH1 0x0 DUP1 REVERT JUMPDEST PUSH1 0x5 PUSH1 0x14 SWAP1 SLOAD SWAP1 PUSH2 0x100 EXP SWAP1 DIV PUSH1 0xFF AND ISZERO PUSH2 0xC40 JUMPI PUSH1 0x0 DUP1 REVERT JUMPDEST PUSH1 0x3 PUSH1 0x0 DUP2 SLOAD DUP1 SWAP3 SWAP2 SWAP1 PUSH2 0xC53 SWAP1 PUSH2 0x1425 JUMP JUMPDEST SWAP2 SWAP1 POP SSTORE POP PUSH1 0x40 MLOAD DUP1 PUSH1 0x60 ADD PUSH1 0x40 MSTORE DUP1 DUP4 DUP2 MSTORE PUSH1 0x20 ADD DUP3 DUP2 MSTORE PUSH1 0x20 ADD PUSH1 0x0 DUP2 MSTORE POP PUSH1 0x1 PUSH1 0x0 PUSH1 0x3 SLOAD DUP2 MSTORE PUSH1 0x20 ADD SWAP1 DUP2 MSTORE PUSH1 0x20 ADD PUSH1 0x0 KECCAK256 PUSH1 0x0 DUP3 ADD MLOAD DUP2 PUSH1 0x0 ADD SWAP1 DUP1 MLOAD SWAP1 PUSH1 0x20 ADD SWAP1 PUSH2 0xCA5 SWAP3 SWAP2 SWAP1 PUSH2 0xCD4 JUMP JUMPDEST POP PUSH1 0x20 DUP3 ADD MLOAD DUP2 PUSH1 0x1 ADD SWAP1 DUP1 MLOAD SWAP1 PUSH1 0x20 ADD SWAP1 PUSH2 0xCC2 SWAP3 SWAP2 SWAP1 PUSH2 0xCD4 JUMP JUMPDEST POP PUSH1 0x40 DUP3 ADD MLOAD DUP2 PUSH1 0x2 ADD SSTORE SWAP1 POP POP POP POP JUMP JUMPDEST DUP3 DUP1 SLOAD PUSH2 0xCE0 SWAP1 PUSH2 0x13C2 JUMP JUMPDEST SWAP1 PUSH1 0x0 MSTORE PUSH1 0x20 PUSH1 0x0 KECCAK256 SWAP1 PUSH1 0x1F ADD PUSH1 0x20 SWAP1 DIV DUP2 ADD SWAP3 DUP3 PUSH2 0xD02 JUMPI PUSH1 0x0 DUP6 SSTORE PUSH2 0xD49 JUMP JUMPDEST DUP3 PUSH1 0x1F LT PUSH2 0xD1B JUMPI DUP1 MLOAD PUSH1 0xFF NOT AND DUP4 DUP1 ADD OR DUP6 SSTORE PUSH2 0xD49 JUMP JUMPDEST DUP3 DUP1 ADD PUSH1 0x1 ADD DUP6 SSTORE DUP3 ISZERO PUSH2 0xD49 JUMPI SWAP2 DUP3 ADD JUMPDEST DUP3 DUP2 GT ISZERO PUSH2 0xD48 JUMPI DUP3 MLOAD DUP3 SSTORE SWAP2 PUSH1 0x20 ADD SWAP2 SWAP1 PUSH1 0x1 ADD SWAP1 PUSH2 0xD2D JUMP JUMPDEST JUMPDEST POP SWAP1 POP PUSH2 0xD56 SWAP2 SWAP1 PUSH2 0xD5A JUMP JUMPDEST POP SWAP1 JUMP JUMPDEST JUMPDEST DUP1 DUP3 GT ISZERO PUSH2 0xD73 JUMPI PUSH1 0x0 DUP2 PUSH1 0x0 SWAP1 SSTORE POP PUSH1 0x1 ADD PUSH2 0xD5B JUMP JUMPDEST POP SWAP1 JUMP JUMPDEST PUSH1 0x0 PUSH2 0xD8A PUSH2 0xD85 DUP5 PUSH2 0x1292 JUMP JUMPDEST PUSH2 0x126D JUMP JUMPDEST SWAP1 POP DUP3 DUP2 MSTORE PUSH1 0x20 DUP2 ADD DUP5 DUP5 DUP5 ADD GT ISZERO PUSH2 0xDA2 JUMPI PUSH1 0x0 DUP1 REVERT JUMPDEST PUSH2 0xDAD DUP5 DUP3 DUP6 PUSH2 0x1380 JUMP JUMPDEST POP SWAP4 SWAP3 POP POP POP JUMP JUMPDEST PUSH1 0x0 DUP2 CALLDATALOAD SWAP1 POP PUSH2 0xDC4 DUP2 PUSH2 0x150C JUMP JUMPDEST SWAP3 SWAP2 POP POP JUMP JUMPDEST PUSH1 0x0 DUP3 PUSH1 0x1F DUP4 ADD SLT PUSH2 0xDDB JUMPI PUSH1 0x0 DUP1 REVERT JUMPDEST DUP2 CALLDATALOAD PUSH2 0xDEB DUP5 DUP3 PUSH1 0x20 DUP7 ADD PUSH2 0xD77 JUMP JUMPDEST SWAP2 POP POP SWAP3 SWAP2 POP POP JUMP JUMPDEST PUSH1 0x0 DUP2 CALLDATALOAD SWAP1 POP PUSH2 0xE03 DUP2 PUSH2 0x1523 JUMP JUMPDEST SWAP3 SWAP2 POP POP JUMP JUMPDEST PUSH1 0x0 PUSH1 0x20 DUP3 DUP5 SUB SLT ISZERO PUSH2 0xE1B JUMPI PUSH1 0x0 DUP1 REVERT JUMPDEST PUSH1 0x0 PUSH2 0xE29 DUP5 DUP3 DUP6 ADD PUSH2 0xDB5 JUMP JUMPDEST SWAP2 POP POP SWAP3 SWAP2 POP POP JUMP JUMPDEST PUSH1 0x0 DUP1 PUSH1 0x40 DUP4 DUP6 SUB SLT ISZERO PUSH2 0xE45 JUMPI PUSH1 0x0 DUP1 REVERT JUMPDEST PUSH1 0x0 DUP4 ADD CALLDATALOAD PUSH8 0xFFFFFFFFFFFFFFFF DUP2 GT ISZERO PUSH2 0xE5F JUMPI PUSH1 0x0 DUP1 REVERT JUMPDEST PUSH2 0xE6B DUP6 DUP3 DUP7 ADD PUSH2 0xDCA JUMP JUMPDEST SWAP3 POP POP PUSH1 0x20 DUP4 ADD CALLDATALOAD PUSH8 0xFFFFFFFFFFFFFFFF DUP2 GT ISZERO PUSH2 0xE88 JUMPI PUSH1 0x0 DUP1 REVERT JUMPDEST PUSH2 0xE94 DUP6 DUP3 DUP7 ADD PUSH2 0xDCA JUMP JUMPDEST SWAP2 POP POP SWAP3 POP SWAP3 SWAP1 POP JUMP JUMPDEST PUSH1 0x0 DUP1 PUSH1 0x0 PUSH1 0x60 DUP5 DUP7 SUB SLT ISZERO PUSH2 0xEB3 JUMPI PUSH1 0x0 DUP1 REVERT JUMPDEST PUSH1 0x0 DUP5 ADD CALLDATALOAD PUSH8 0xFFFFFFFFFFFFFFFF DUP2 GT ISZERO PUSH2 0xECD JUMPI PUSH1 0x0 DUP1 REVERT JUMPDEST PUSH2 0xED9 DUP7 DUP3 DUP8 ADD PUSH2 0xDCA JUMP JUMPDEST SWAP4 POP POP PUSH1 0x20 DUP5 ADD CALLDATALOAD PUSH8 0xFFFFFFFFFFFFFFFF DUP2 GT ISZERO PUSH2 0xEF6 JUMPI PUSH1 0x0 DUP1 REVERT JUMPDEST PUSH2 0xF02 DUP7 DUP3 DUP8 ADD PUSH2 0xDCA JUMP JUMPDEST SWAP3 POP POP PUSH1 0x40 DUP5 ADD CALLDATALOAD PUSH8 0xFFFFFFFFFFFFFFFF DUP2 GT ISZERO PUSH2 0xF1F JUMPI PUSH1 0x0 DUP1 REVERT JUMPDEST PUSH2 0xF2B DUP7 DUP3 DUP8 ADD PUSH2 0xDCA JUMP JUMPDEST SWAP2 POP POP SWAP3 POP SWAP3 POP SWAP3 JUMP JUMPDEST PUSH1 0x0 PUSH1 0x20 DUP3 DUP5 SUB SLT ISZERO PUSH2 0xF47 JUMPI PUSH1 0x0 DUP1 REVERT JUMPDEST PUSH1 0x0 PUSH2 0xF55 DUP5 DUP3 DUP6 ADD PUSH2 0xDF4 JUMP JUMPDEST SWAP2 POP POP SWAP3 SWAP2 POP POP JUMP JUMPDEST PUSH1 0x0 PUSH2 0xF6A DUP4 DUP4 PUSH2 0xF76 JUMP JUMPDEST PUSH1 0x20 DUP4 ADD SWAP1 POP SWAP3 SWAP2 POP POP JUMP JUMPDEST PUSH2 0xF7F DUP2 PUSH2 0x1338 JUMP JUMPDEST DUP3 MSTORE POP POP JUMP JUMPDEST PUSH2 0xF8E DUP2 PUSH2 0x1338 JUMP JUMPDEST DUP3 MSTORE POP POP JUMP JUMPDEST PUSH1 0x0 PUSH2 0xF9F DUP3 PUSH2 0x12E8 JUMP JUMPDEST PUSH2 0xFA9 DUP2 DUP6 PUSH2 0x130B JUMP JUMPDEST SWAP4 POP PUSH2 0xFB4 DUP4 PUSH2 0x12C3 JUMP JUMPDEST DUP1 PUSH1 0x0 JUMPDEST DUP4 DUP2 LT ISZERO PUSH2 0xFE5 JUMPI DUP2 MLOAD PUSH2 0xFCC DUP9 DUP3 PUSH2 0xF5E JUMP JUMPDEST SWAP8 POP PUSH2 0xFD7 DUP4 PUSH2 0x12FE JUMP JUMPDEST SWAP3 POP POP PUSH1 0x1 DUP2 ADD SWAP1 POP PUSH2 0xFB8 JUMP JUMPDEST POP DUP6 SWAP4 POP POP POP POP SWAP3 SWAP2 POP POP JUMP JUMPDEST PUSH2 0xFFB DUP2 PUSH2 0x134A JUMP JUMPDEST DUP3 MSTORE POP POP JUMP JUMPDEST PUSH1 0x0 DUP2 SLOAD PUSH2 0x100E DUP2 PUSH2 0x13C2 JUMP JUMPDEST PUSH2 0x1018 DUP2 DUP7 PUSH2 0x131C JUMP JUMPDEST SWAP5 POP PUSH1 0x1 DUP3 AND PUSH1 0x0 DUP2 EQ PUSH2 0x1033 JUMPI PUSH1 0x1 DUP2 EQ PUSH2 0x1044 JUMPI PUSH2 0x1077 JUMP JUMPDEST PUSH1 0xFF NOT DUP4 AND DUP7 MSTORE DUP2 DUP7 ADD SWAP4 POP PUSH2 0x1077 JUMP JUMPDEST PUSH2 0x104D DUP6 PUSH2 0x12D3 JUMP JUMPDEST PUSH1 0x0 JUMPDEST DUP4 DUP2 LT ISZERO PUSH2 0x106F JUMPI DUP2 SLOAD DUP2 DUP10 ADD MSTORE PUSH1 0x1 DUP3 ADD SWAP2 POP PUSH1 0x20 DUP2 ADD SWAP1 POP PUSH2 0x1050 JUMP JUMPDEST DUP4 DUP9 ADD SWAP6 POP POP POP JUMPDEST POP POP POP SWAP3 SWAP2 POP POP JUMP JUMPDEST PUSH1 0x0 PUSH2 0x108B DUP3 PUSH2 0x12F3 JUMP JUMPDEST PUSH2 0x1095 DUP2 DUP6 PUSH2 0x1327 JUMP JUMPDEST SWAP4 POP PUSH2 0x10A5 DUP2 DUP6 PUSH1 0x20 DUP7 ADD PUSH2 0x138F JUMP JUMPDEST PUSH2 0x10AE DUP2 PUSH2 0x14FB JUMP JUMPDEST DUP5 ADD SWAP2 POP POP SWAP3 SWAP2 POP POP JUMP JUMPDEST PUSH2 0x10C2 DUP2 PUSH2 0x1376 JUMP JUMPDEST DUP3 MSTORE POP POP JUMP JUMPDEST PUSH1 0x0 PUSH2 0x10D4 DUP3 DUP5 PUSH2 0x1001 JUMP JUMPDEST SWAP2 POP DUP2 SWAP1 POP SWAP3 SWAP2 POP POP JUMP JUMPDEST PUSH1 0x0 PUSH1 0x20 DUP3 ADD SWAP1 POP PUSH2 0x10F4 PUSH1 0x0 DUP4 ADD DUP5 PUSH2 0xF85 JUMP JUMPDEST SWAP3 SWAP2 POP POP JUMP JUMPDEST PUSH1 0x0 PUSH1 0x20 DUP3 ADD SWAP1 POP DUP2 DUP2 SUB PUSH1 0x0 DUP4 ADD MSTORE PUSH2 0x1114 DUP2 DUP5 PUSH2 0xF94 JUMP JUMPDEST SWAP1 POP SWAP3 SWAP2 POP POP JUMP JUMPDEST PUSH1 0x0 PUSH1 0x20 DUP3 ADD SWAP1 POP PUSH2 0x1131 PUSH1 0x0 DUP4 ADD DUP5 PUSH2 0xFF2 JUMP JUMPDEST SWAP3 SWAP2 POP POP JUMP JUMPDEST PUSH1 0x0 PUSH1 0x20 DUP3 ADD SWAP1 POP DUP2 DUP2 SUB PUSH1 0x0 DUP4 ADD MSTORE PUSH2 0x1151 DUP2 DUP5 PUSH2 0x1080 JUMP JUMPDEST SWAP1 POP SWAP3 SWAP2 POP POP JUMP JUMPDEST PUSH1 0x0 PUSH1 0xA0 DUP3 ADD SWAP1 POP DUP2 DUP2 SUB PUSH1 0x0 DUP4 ADD MSTORE PUSH2 0x1173 DUP2 DUP9 PUSH2 0x1080 JUMP JUMPDEST SWAP1 POP PUSH2 0x1182 PUSH1 0x20 DUP4 ADD DUP8 PUSH2 0xF85 JUMP JUMPDEST PUSH2 0x118F PUSH1 0x40 DUP4 ADD DUP7 PUSH2 0x10B9 JUMP JUMPDEST PUSH2 0x119C PUSH1 0x60 DUP4 ADD DUP6 PUSH2 0x10B9 JUMP JUMPDEST PUSH2 0x11A9 PUSH1 0x80 DUP4 ADD DUP5 PUSH2 0xFF2 JUMP JUMPDEST SWAP7 SWAP6 POP POP POP POP POP POP JUMP JUMPDEST PUSH1 0x0 PUSH1 0x80 DUP3 ADD SWAP1 POP DUP2 DUP2 SUB PUSH1 0x0 DUP4 ADD MSTORE PUSH2 0x11CD DUP2 DUP8 PUSH2 0x1080 JUMP JUMPDEST SWAP1 POP DUP2 DUP2 SUB PUSH1 0x20 DUP4 ADD MSTORE PUSH2 0x11E1 DUP2 DUP7 PUSH2 0x1080 JUMP JUMPDEST SWAP1 POP DUP2 DUP2 SUB PUSH1 0x40 DUP4 ADD MSTORE PUSH2 0x11F5 DUP2 DUP6 PUSH2 0x1080 JUMP JUMPDEST SWAP1 POP PUSH2 0x1204 PUSH1 0x60 DUP4 ADD DUP5 PUSH2 0xFF2 JUMP JUMPDEST SWAP6 SWAP5 POP POP POP POP POP JUMP JUMPDEST PUSH1 0x0 PUSH1 0x60 DUP3 ADD SWAP1 POP DUP2 DUP2 SUB PUSH1 0x0 DUP4 ADD MSTORE PUSH2 0x1227 DUP2 DUP7 PUSH2 0x1080 JUMP JUMPDEST SWAP1 POP DUP2 DUP2 SUB PUSH1 0x20 DUP4 ADD MSTORE PUSH2 0x123B DUP2 DUP6 PUSH2 0x1080 JUMP JUMPDEST SWAP1 POP PUSH2 0x124A PUSH1 0x40 DUP4 ADD DUP5 PUSH2 0x10B9 JUMP JUMPDEST SWAP5 SWAP4 POP POP POP POP JUMP JUMPDEST PUSH1 0x0 PUSH1 0x20 DUP3 ADD SWAP1 POP PUSH2 0x1267 PUSH1 0x0 DUP4 ADD DUP5 PUSH2 0x10B9 JUMP JUMPDEST SWAP3 SWAP2 POP POP JUMP JUMPDEST PUSH1 0x0 PUSH2 0x1277 PUSH2 0x1288 JUMP JUMPDEST SWAP1 POP PUSH2 0x1283 DUP3 DUP3 PUSH2 0x13F4 JUMP JUMPDEST SWAP2 SWAP1 POP JUMP JUMPDEST PUSH1 0x0 PUSH1 0x40 MLOAD SWAP1 POP SWAP1 JUMP JUMPDEST PUSH1 0x0 PUSH8 0xFFFFFFFFFFFFFFFF DUP3 GT ISZERO PUSH2 0x12AD JUMPI PUSH2 0x12AC PUSH2 0x14CC JUMP JUMPDEST JUMPDEST PUSH2 0x12B6 DUP3 PUSH2 0x14FB JUMP JUMPDEST SWAP1 POP PUSH1 0x20 DUP2 ADD SWAP1 POP SWAP2 SWAP1 POP JUMP JUMPDEST PUSH1 0x0 DUP2 SWAP1 POP PUSH1 0x20 DUP3 ADD SWAP1 POP SWAP2 SWAP1 POP JUMP JUMPDEST PUSH1 0x0 DUP2 SWAP1 POP DUP2 PUSH1 0x0 MSTORE PUSH1 0x20 PUSH1 0x0 KECCAK256 SWAP1 POP SWAP2 SWAP1 POP JUMP JUMPDEST PUSH1 0x0 DUP2 MLOAD SWAP1 POP SWAP2 SWAP1 POP JUMP JUMPDEST PUSH1 0x0 DUP2 MLOAD SWAP1 POP SWAP2 SWAP1 POP JUMP JUMPDEST PUSH1 0x0 PUSH1 0x20 DUP3 ADD SWAP1 POP SWAP2 SWAP1 POP JUMP JUMPDEST PUSH1 0x0 DUP3 DUP3 MSTORE PUSH1 0x20 DUP3 ADD SWAP1 POP SWAP3 SWAP2 POP POP JUMP JUMPDEST PUSH1 0x0 DUP2 SWAP1 POP SWAP3 SWAP2 POP POP JUMP JUMPDEST PUSH1 0x0 DUP3 DUP3 MSTORE PUSH1 0x20 DUP3 ADD SWAP1 POP SWAP3 SWAP2 POP POP JUMP JUMPDEST PUSH1 0x0 PUSH2 0x1343 DUP3 PUSH2 0x1356 JUMP JUMPDEST SWAP1 POP SWAP2 SWAP1 POP JUMP JUMPDEST PUSH1 0x0 DUP2 ISZERO ISZERO SWAP1 POP SWAP2 SWAP1 POP JUMP JUMPDEST PUSH1 0x0 PUSH20 0xFFFFFFFFFFFFFFFFFFFFFFFFFFFFFFFFFFFFFFFF DUP3 AND SWAP1 POP SWAP2 SWAP1 POP JUMP JUMPDEST PUSH1 0x0 DUP2 SWAP1 POP SWAP2 SWAP1 POP JUMP JUMPDEST DUP3 DUP2 DUP4 CALLDATACOPY PUSH1 0x0 DUP4 DUP4 ADD MSTORE POP POP POP JUMP JUMPDEST PUSH1 0x0 JUMPDEST DUP4 DUP2 LT ISZERO PUSH2 0x13AD JUMPI DUP1 DUP3 ADD MLOAD DUP2 DUP5 ADD MSTORE PUSH1 0x20 DUP2 ADD SWAP1 POP PUSH2 0x1392 JUMP JUMPDEST DUP4 DUP2 GT ISZERO PUSH2 0x13BC JUMPI PUSH1 0x0 DUP5 DUP5 ADD MSTORE JUMPDEST POP POP POP POP JUMP JUMPDEST PUSH1 0x0 PUSH1 0x2 DUP3 DIV SWAP1 POP PUSH1 0x1 DUP3 AND DUP1 PUSH2 0x13DA JUMPI PUSH1 0x7F DUP3 AND SWAP2 POP JUMPDEST PUSH1 0x20 DUP3 LT DUP2 EQ ISZERO PUSH2 0x13EE JUMPI PUSH2 0x13ED PUSH2 0x149D JUMP JUMPDEST JUMPDEST POP SWAP2 SWAP1 POP JUMP JUMPDEST PUSH2 0x13FD DUP3 PUSH2 0x14FB JUMP JUMPDEST DUP2 ADD DUP2 DUP2 LT PUSH8 0xFFFFFFFFFFFFFFFF DUP3 GT OR ISZERO PUSH2 0x141C JUMPI PUSH2 0x141B PUSH2 0x14CC JUMP JUMPDEST JUMPDEST DUP1 PUSH1 0x40 MSTORE POP POP POP JUMP JUMPDEST PUSH1 0x0 PUSH2 0x1430 DUP3 PUSH2 0x1376 JUMP JUMPDEST SWAP2 POP PUSH32 0xFFFFFFFFFFFFFFFFFFFFFFFFFFFFFFFFFFFFFFFFFFFFFFFFFFFFFFFFFFFFFFFF DUP3 EQ ISZERO PUSH2 0x1463 JUMPI PUSH2 0x1462 PUSH2 0x146E JUMP JUMPDEST JUMPDEST PUSH1 0x1 DUP3 ADD SWAP1 POP SWAP2 SWAP1 POP JUMP JUMPDEST PUSH32 0x4E487B7100000000000000000000000000000000000000000000000000000000 PUSH1 0x0 MSTORE PUSH1 0x11 PUSH1 0x4 MSTORE PUSH1 0x24 PUSH1 0x0 REVERT JUMPDEST PUSH32 0x4E487B7100000000000000000000000000000000000000000000000000000000 PUSH1 0x0 MSTORE PUSH1 0x22 PUSH1 0x4 MSTORE PUSH1 0x24 PUSH1 0x0 REVERT JUMPDEST PUSH32 0x4E487B7100000000000000000000000000000000000000000000000000000000 PUSH1 0x0 MSTORE PUSH1 0x41 PUSH1 0x4 MSTORE PUSH1 0x24 PUSH1 0x0 REVERT JUMPDEST PUSH1 0x0 PUSH1 0x1F NOT PUSH1 0x1F DUP4 ADD AND SWAP1 POP SWAP2 SWAP1 POP JUMP JUMPDEST PUSH2 0x1515 DUP2 PUSH2 0x1338 JUMP JUMPDEST DUP2 EQ PUSH2 0x1520 JUMPI PUSH1 0x0 DUP1 REVERT JUMPDEST POP JUMP JUMPDEST PUSH2 0x152C DUP2 PUSH2 0x1376 JUMP JUMPDEST DUP2 EQ PUSH2 0x1537 JUMPI PUSH1 0x0 DUP1 REVERT JUMPDEST POP JUMP INVALID LOG2 PUSH5 0x6970667358 0x22 SLT KECCAK256 PUSH15 0xC0CD62FDC7AE20225CD6957E20485F ADDRESS PUSH3 0x40761D 0xC8 0x23 0xAC 0xD1 0xEF PUSH22 0xE0619C86DA64736F6C63430008040033A26469706673 PC 0x22 SLT KECCAK256 DUP1 0xB7 PUSH28 0x9F3610B1F6BD1F08090CA0E5862B022F72B786906BB51710A3AB339 SWAP11 PUSH5 0x736F6C6343 STOP ADDMOD DIV STOP CALLER "},"gasEstimates":{"creation":{"codeDepositCost":"1639200","executionCost":"1722","totalCost":"1640922"},"external":{"createElections(string)":"infinite","elections(uint256)":"2356","getDeployedElections()":"infinite"}},"methodIdentifiers":{"createElections(string)":"26755cb9","elections(uint256)":"5e6fef01","getDeployedElections()":"ca306594"}},"storageLayout":{"storage":[{"astId":4,"contract":"Election.sol:ManageElection","label":"elections","offset":0,"slot":"0","type":"t_array(t_address)dyn_storage"}],"types":{"t_address":{"encoding":"inplace","label":"address","numberOfBytes":"20"},"t_array(t_address)dyn_storage":{"base":"t_address","encoding":"dynamic_array","label":"address[]","numberOfBytes":"32"}}},"userdoc":{"kind":"user","methods":{},"version":1}}